:100000004469616D6F6E64204465706C6F796D65D5
:100010006E7420546F6F6C20332E31312E310A44B0
:100020006174653A204D6F6E2030392F31392F328F
:10003000322031353A31393A3436200AFFFFFFFF9A
:10004000FFFFFFFFFFFFFFFFFFFFFFFFFFFFFFFFC0
:10005000FFFFFFFFFFFFFFFFFFFFFFFFFFFFFFFFB0
:10006000FFFFFFFFFFFFFFFFFFFFFFFFFFFFFFFFA0
:10007000FFFFFFFFFFFFFFFFFFFFFFFFFFFFFFFF90
:10008000FFFFFFFFFFFFFFFFFFFFFFFFFFFFFFFF80
:10009000FFFFFFFFFFFFFFFFFFFFFFFFFFFFFFFF70
:1000A000FFFFFFFFFFFFFFFFFFFFFFFFFFFFFFFF60
:1000B000FFFFFFFFFFFFFFFFFFFFFFFFFFFFFFFF50
:1000C000FFFFFFFFFFFFFFFFFFFFFFFFFFFFFFFF40
:1000D000FFFFFFFFFFFFFFFFFFFFFFFFFFFFFFFF30
:1000E000FFFFFFFFFFFFFFFFFFFFFFFFFFFFFFFF20
:1000F000FFFFFFFFFFFFFFFFFFFFFFFFFFFFFFFF10
:10010000FFFFFFFFFFFFFFFFFFFFFFFFFFFFFFFFFF
:10011000FFFFFFFFFFFFFFFFFFFFFFFFFFFFFFFFEF
:10012000FFFFFFFFFFFFFFFFFFFFFFFFFFFFFFFFDF
:10013000FFFFFFFFBDB3FFFFFFFFFFFFFFFF440017
:100140000000780000006200000041800E86000080
:1001500000000022914000000000000000000000AC
:10016000000000000000000000000000000000008F
:10017000000000000000000000000000000000007F
:1001800000C00000000000000000000000000000AF
:10019000000000000011400000000000000000000E
:1001A000000000000000000000000000E18AFFFFE6
:1001B000FFFF0000000000CA050000000000000072
:1001C000000000000000000000000000000000002F
:1001D000000000000000000000000000000000001F
:1001E000000000000080000000000000000000008F
:1001F00000000000000000000025000000000004D6
:100200004000000011000000000000088000000015
:100210003A09FFFFFFFF0000000000100800000087
:1002200000000000000000000000000000000000CE
:1002300000000000000000000000000000000000BE
:1002400000000000000000000000000000000000AE
:100250000000000000000000000000000008000096
:1002600000000018000000006000000000000030E6
:1002700000000000CDA9FFFFFFFF0000000000000C
:10028000000000000000000000000000000000006E
:10029000000000000000000000000000000000005E
:1002A000000000000000000000000000000000004E
:1002B000000000000000000000000000000000003E
:1002C000000000000000000000000000000000002E
:1002D0000000000000000000D558FFFFFFFF0000F5
:1002E000000000000000000000000000000000000E
:1002F00000000000000000000000000000000000FE
:1003000000000000000000000000000000000000ED
:1003100000000000000000000000000000000000DD
:1003200000000000000000000000000000000000CD
:1003300009000000000000000000000016D9FFFFC7
:10034000FFFF0000000000000000000000000000AF
:10035000000000000000000000000000000000009D
:10036000000000000000000000000000000000008D
:10037000000000000000000000000000000000007D
:10038000000000000000000000020000000000006B
:10039000000000000000000000000000000000005D
:1003A000F994FFFFFFFF00000000000000000000C4
:1003B000000000000000000000000000000000003D
:1003C000000000000000000000000000000000002D
:1003D000000000000000000000000000000000001D
:1003E00000000000000000000000000000300000DD
:1003F000000000000000000180000000000000007C
:10040000000000003FB2FFFFFFFF000000000000FF
:1004100000000000000000000000000000000000DC
:1004200000000000000000000000000000000000CC
:1004300000000000000000000000000000000000BC
:1004400000000000000000000000000000000000AC
:100450000018000000000000000000000000000084
:100460000000000000000000800DFFFFFFFF0222DF
:1004700000444008880111002220044400888011B3
:1004800010022200444008880111002220000000D0
:10049000000000000000000000000000000000114B
:1004A00011022200444008880111008888111002BE
:1004B0002200444028880111002220044400888042
:1004C0001110022200444008880044402D94FFFF90
:1004D000FFFF0111102222044440888811110222DA
:1004E0002044440888811110222204444088881145
:1004F00011000000000000000000000000000000EB
:100500000000000888811110222204444088884499
:100510004408888111102222044440888811110265
:1005200022204444088881111022220444488880F3
:10053000F0E1FFFFFFFF02222044440888811110F0
:100540002222044440888811110222204444088851
:1005500081111022220000000000000000000000B5
:1005600000000000000000113102222044440888ED
:1005700081111088881111022220444408888111B9
:100580001022220444408888111102222044440889
:10059000888444408048FFFFFFFF000010000200F5
:1005A000004000080001000020000400008000104E
:1005B00000020000400008000100000000000000F0
:1005C000000000000000000000000000008000109B
:1005D000000200004000080004000080001000023B
:1005E000000040000800010000200004000080001E
:1005F00010000200004800001F9BFFFFFFFF0222C7
:100600002044440888811110222204444088881123
:100610001102222044440888811110222200000087
:1006200000000000000000000000000000000011B9
:100630001102222044440888811110888811110277
:1006400022204444088881111022220444408888D2
:10065000111102222044440888844440E0ABFFFF8B
:10066000FFFF0000100002400040000800010000F1
:10067000200004000080001000020000400008007C
:100680000100000000000000000000000000000069
:100690000000000000800010000200004000080080
:1006A000040000800010000200004000080001006B
:1006B000002000040000800010000200004800003C
:1006C000055BFFFFFFFF0222004440088801110084
:1006D000222004440088801110022200444008882F
:1006E00001110022200000000000000000000000B6
:1006F0000000000000000011190222004440088898
:10070000011100888811100222004440088801115C
:100710000022200444008880111002220044400876
:1007200088004440DB04FFFFFFFF01111022220478
:100730004440888811110222204444088881111005
:1007400022220444408888111100000000000000AB
:100750000000000000000000000000088881111067
:1007600022220444408888444408888111102222AF
:1007700004444088881111022220444408888111D1
:100780001022220444488880F0E1FFFFFFFF02228C
:100790002044440888811110222204444088881192
:1007A00011022220444408888111102222000000F6
:1007B0000000000000000000000000000000001128
:1007C00011022220444408888111108888111102E6
:1007D000222044440888A111102222044440888821
:1007E0001111022220444408888444404264FFFFDF
:1007F000FFFF011110222244444088881111022277
:100800002044440888811110222204444088881121
:1008100011000000000000000000000000000000C7
:100820000000000888811110222204444088884476
:1008300044088881111022226444608888111102C2
:1008400022204444088881111022220444488880D0
:100850009B13FFFFFFFF02220044400888011100A4
:10086000222004440088801110022200444008889D
:100870000111002220000000000000000000000024
:1008800000000000000000310102220044400888FE
:100890000111008808111002220044400A88011149
:1008A00000222004440088801110022200444008E5
:1008B00088004440BDD2FFFFFFFF01111022220437
:1008C0004440888811110222204444088881111074
:1008D000222204444088881111000000000000001A
:1008E00000000000000000000000000888811110D6
:1008F000222204444088884444088881111022221E
:10090000044440888811110222204444088881113F
:100910001022220444488880F0E1FFFFFFFF0222FA
:100920002044440888811110222204444088881100
:100930001102222044440888811110222200000064
:10094000000000000000000000000000000000198E
:100950003102222044440888811110898811110233
:1009600022204444088881111022220444408888AF
:1009700011110222204444088884444038B7FFFF04
:10098000FFFF00001000020000400008000100000E
:100990002000040000800010000200004000080059
:1009A0000100000000000000000000000000000046
:1009B000000000000C800010000200004000080051
:1009C00064000080001000020000400008000100E8
:1009D0000020000400008000100002000048000019
:1009E000FBABFFFFFFFF0222204444088881111067
:1009F000222204444088881111022220444408889D
:100A00008111102222000000000000000000000000
:100A10000000000000000011150222204444088854
:100A200081111088A81111022220444408888111E4
:100A300010222204444088881111022220444408D4
:100A4000888444403CB8FFFFFFFF00001000020014
:100A50000040000800010000200004000080001099
:100A6000000200004000080001000000000000003B
:100A700000000000000000000000000008800010DE
:100A80000002000040000800440000820010000244
:100A90000000400008000100002000040000800069
:100AA000100002000048000027B6FFFFFFFF0222EF
:100AB000204444088881111022220444408888116F
:100AC00011022220444408888111102222000000D3
:100AD0000000000000000000000000000000001105
:100AE00029022220444408888111108948111102EA
:100AF000222044440C88811110222204444088881A
:100B0000111102222044440888844440D194FFFFFC
:100B1000FFFF011110222204444088881111022293
:100B200020444408888111102222044440888811FE
:100B300011000000000000000000000000000000A4
:100B40000000000888811110222204444088884453
:100B5000440888819110222204444088881111029F
:100B600022204444088881111022220444488880AD
:100B700030E0FFFFFFFF022220444408888111106B
:100B8000222204444088881111022220444408880B
:100B9000811110222200000000000000000000006F
:100BA00000000000000000110102222044440888D7
:100BB00081111088081111022220444408888111F3
:100BC0001022220444408888111102222044440843
:100BD0008884444090EDFFFFFFFF011110222204A2
:100BE0004440888811110222204444088881111051
:100BF00022220444408888111100000000000000F7
:100C0000000000000000000000000008A881111092
:100C100022220444408888454408888111102222F9
:100C2000044440888811110222204444088881111C
:100C30001022220444488880106DFFFFFFFF02222B
:100C400020444408888111102222044440888811DD
:100C50001102222044440888811110222200000041
:100C60000000000000000000000000000000001173
:100C7000190222204444088881111088C8111102E9
:100C8000222044440888811110222204444088888C
:100C9000111102222044440888844440D888FFFF70
:100CA000FFFF011110222204444088881111022202
:100CB000204444088881111022220444408888116D
:100CC0001100000000000000000000000000000013
:100CD00000000008888111102222044440888844C2
:100CE000440888811110222204444088881111028E
:100CF00022204444488881111022220444488880DC
:100D00006F02FFFFFFFF0222204444088881111078
:100D10002222044440888811110222204444088879
:100D200081111022220000000000000000000000DD
:100D30000000000000000011110222204444088835
:100D400081111088881111022220444408888111E1
:100D500010222204444088881111022220444408B1
:100D600088844440E0ABFFFFFFFF0000100002005A
:100D70000040000800010000200004000080001076
:100D80000002000040000800010000000000000018
:100D900000000000000000000000000008800010BB
:100DA0000002000040002800440000800010000203
:100DB0004000400008000100002000040000800006
:100DC00010000200004800003AC0FFFFFFFF0222AF
:100DD0002044440880811110222204444088881154
:100DE00011022220444408888111102222000000B0
:100DF00000000000000000000000000000000011E2
:100E0000110222204444088881111088881111029F
:100E100022204444088881111022220444408888FA
:100E200011110222204444088884444004AAFFFF90
:100E3000FFFF000010000200004000080001000059
:100E400020000400008000100002000040000800A4
:100E50000100000000000000000000000000000091
:100E600000000000008000100002000040000800A8
:100E70000400008000100002000040000800010093
:100E80000020000400008000100002000048000064
:100E90001F9BFFFFFFFF0222204444088C8111109A
:100EA00022220444408888111102222044440888E8
:100EB000811110222200000000000000000000004C
:100EC00000000000000000111102222044440888A4
:100ED0008111008888111102222044440888811160
:100EE0001022220444408888111102222044440820
:100EF0008884444012BEFFFFFFFF0111102222042C
:100F0000444088881111022220444408888111102D
:100F100022220444408888111100000000000000D3
:100F20000000000000000000000000088081111097
:100F30002222044440888844040888811110222217
:100F400004404088881111022220444408888111FD
:100F50001022220444488880915AFFFFFFFF02229A
:100F600020444408888111102222044440888811BA
:100F7000110222204444088881111022220000001E
:100F80000000000000000000000000000000001150
:100F9000110222204444088881111088881111020E
:100FA0002220444408888111302222044440888849
:100FB0001111022220444408888444406F8AFFFFB4
:100FC000FFFF0111102222044440888811110222DF
:100FD000204444088881111022220444408888114A
:100FE00011000000000000000000000000000000F0
:100FF000000000088881111022220444408888449F
:10100000440888811110222204404088A81111024E
:1010100022204444488881111022220444488880B8
:10102000B9BBFFFFFFFF0222204444088881111052
:101030002222044440888811110222204444088856
:1010400081111022220000000000000000000000BA
:101050000000000000000011110222204444088812
:101060008111108888111102222044440E888111B8
:10107000102222044440888811110222204444088E
:10108000888444403596FFFFFFFF0111102222049F
:10109000444088881111022220444408888111109C
:1010A0002222044440888811110000000000000042
:1010B00000000000000000000000000888811110FE
:1010C0002222044440888844440888811110222246
:1010D0000444408888111102222044440888811168
:1010E0001022220444488880F0E1FFFFFFFF022223
:1010F0002044440888811110222204444088881129
:10110000110222204444088881111022220000008C
:1011100000000000000000000000000000000011BE
:101120000542222044440888811110882A111102A6
:1011300002204444088881311022220444408888D7
:101140001111022220444408888444403B1CFFFFC4
:10115000FFFF000010000200004000080001000036
:101160002000040000800010000200004000080081
:10117000010000000000000000000000000000006E
:10118000000000000880001000020000400008007D
:101190004400008000100002000040100800010020
:1011A0000020000400008000100002000048000041
:1011B000B6AAFFFFFFFF0222004440008801110091
:1011C0002220044400888011100222004440088834
:1011D00001110022200000000000000000000000BB
:1011E00000000000000000111502220044400888A1
:1011F00001110088A8111002620044400888011102
:10120000002220044400888011100222004440087B
:10121000880044401C76FFFFFFFF00001000020022
:1012200000400008000100002000040000800010C1
:101230000002000040000800010000000000000063
:101240000000000000000000000000001800001076
:101250000002000040000800C000008000100002F2
:101260000000400008000100002000040000800091
:101270001000020000480000DC7FFFFFFFFF022299
:101280000044400C88011100222004440088801191
:1012900010022200444008880111002220000000B2
:1012A000000000000000000000000000000000112D
:1012B00008022200444008880111008840111002F1
:1012C00022004440088A0111002420044400888040
:1012D000111002220044400888004440E82DFFFF1E
:1012E000FFFF0111102222044440888811110222BC
:1012F0002044440888811110222204444088881127
:1013000011000000000000000000000000000000CC
:10131000000000088881111022220444408888447B
:101320004408888111102222044440888811110247
:1013300022204444088881111022220444488880D5
:10134000F0E1FFFFFFFF022220444408A8811110B2
:101350002222044440888811110222204444088833
:101360008111102222000000000000000000000097
:1013700000000000000000110502222044440888FB
:10138000811110882811110222204444088C8111F7
:10139000102222044440888811110222204444086B
:1013A000888444408568FFFFFFFF0111102222045A
:1013B000C4408888111102222044440888811110F9
:1013C000222204444088881111000000000000001F
:1013D000000000000000000000000048888111109B
:1013E0002222044440888844440888911110222213
:1013F000044448888811110222204444088881113D
:101400001022220444488880FC93FFFFFFFF022241
:101410000044400888011100222004440088801103
:101420001002220044400888011100222000000020
:10143000000000000000000000000000000000119B
:10144000190222004440088801110088C8111002C6
:1014500022004440088801110022200444008880B2
:101460001110022200444008880044405B1CFFFF2A
:10147000FFFF01111022220444408888111102222A
:101480002044440888811110222204444088881195
:10149000110000000000000000000000000000003B
:1014A000000000088C011110222204444088884466
:1014B000600888811110222204444088881111029A
:1014C0002220444408888111102222044448888044
:1014D000A773FFFFFFFF02222044440888811110F8
:1014E00022220444408888111102222044440888A2
:1014F0008111102222000000000000000000000006
:10150000000000000000001111422220444408881D
:10151000811110888A111102222044440888811107
:1015200010222204444088881111022220444408D9
:1015300088044440EF6AFFFFFFFF00001000020034
:10154000004000080001000020000400008000109E
:101550000002000040000800010000000000000040
:1015600000000000000000000000000008800050A3
:10157000000200004000080044000080001000024B
:10158000000040000800010000200004000080006E
:10159000100002000048000097E4FFFFFFFF022256
:1015A0002044440888811110222204444088881174
:1015B00011022220444408888111102222000000D8
:1015C00000000000000000000000000000000051CA
:1015D00011022200444408888111108888111102E8
:1015E0002220444408888111102222044440888823
:1015F000111102222044440888844440FC00FFFF6B
:10160000FFFF0000100002208040000800010000E1
:1016100020000400008000100002000040000800CC
:1016200001000000000000000000000000000000B9
:101630000000000008000010000200004000080048
:101640004000008800100002200044000800011043
:10165000002000044000800010000220000800006C
:101660001F05FFFFFFFF022220444408888111105C
:101670002222044440888811110222204444088810
:101680008111102222000000000000000000000074
:1016900000000000000000111002222044440888CD
:1016A0008111108880111102222044440888811180
:1016B0001022220444408888111102222044440848
:1016C0008884444077ACFFFFFFFF01111022220401
:1016D0000440888811110222204444088881111096
:1016E00022220444408888111100000000000000FC
:1016F00000000000000000000000000888811110B8
:1017000022220444408888444408888111102222FF
:101710002444408888111102222044440888811101
:1017200010222204444888801E53FFFFFFFF02223C
:1017300020444408888111102222044440888811E2
:101740001102222044440888811110222200000046
:101750000000000000000000000000000000001178
:101760001102222044440888811110888811110236
:101770002220444408888111102222044440888891
:10178000111102222044440888844440E0ABFFFF4A
:10179000FFFF011110222204444088881111022207
:1017A0002044440888811110222204444088881172
:1017B0001100000000000000000000000000000018
:1017C00000000008888111102222044440888844C7
:1017D0004408888111102222044440888811110293
:1017E0002220444408888111102222044448888021
:1017F000F0E1FFFFFFFF022A20454408A8811510F1
:1018000022A20454408A881151022A20454408A883
:1018100081151022A200000000000000000000005E
:10182000000000000000001151022A20454408A8D1
:101830008115108A881151022A2045440808811513
:101840001022A20454408A881151022A20454408DB
:10185000A88454404F83FFFFFFFF01111022220490
:1018600044408888111102222044440888811110C4
:10187000222204444088881111000000000000006A
:1018800000000000000000000000000888011110A6
:101890002222044440888844400888811110222272
:1018A0000404408888111102222044440A888111CE
:1018B00010222204444888806202FFFFFFFF0222B8
:1018C0002044440888811110222204444088881151
:1018D00011022220444408888111102222000000B5
:1018E00000000000000000000000000000000011E7
:1018F00011022220444408888111108888111102A5
:10190000222044440808811110222204444088887F
:101910001111022220444408888444405392FFFF5E
:10192000FFFF00111002220044400888011100222C
:1019300020044400888011100222004440088801DD
:101940001100000000000000000000000000000086
:1019500000000000088011100222004440088800A6
:1019600044008880111002220044400888011100C0
:10197000222004440188801110022200444888007B
:101980002A71FFFFFFFF02002040040800810010C1
:1019900020020400408008100102002040040800DA
:1019A0008100102002000000000000000000000084
:1019B0000000000000000010110200204004080098
:1019C000810010808810010200204004080081007E
:1019D000102002040000800850010200204004088A
:1019E0000084004059C6FFFFFFFF001110022200D3
:1019F000444008880111002220044400888011100E
:101A0000022200444008880111000000000000008C
:101A1000000000000000000000000000088011101D
:101A200002220044400888004400888011100222ED
:101A3000104440088801110822A004440088801145
:101A40001002220044488800BEFBFFFFFFFF020097
:101A5000204004080081001020020400408008108B
:101A60000102002040040800810010200200000054
:101A70000000000000000000000000000000000066
:101A80001042002040040800810010008210010272
:101A9000002040040800810010600204004080081B
:101AA0000001020020400408008400404BA5FFFF15
:101AB000FFFF01191023220464408C881191023227
:101AC00020464408C881191023220464408C8811E0
:101AD0009100000000000000000000000000000075
:101AE000000000008881191023220464408C8804BF
:101AF0004408C881191023220C04408C8851910697
:101B000032204644084881191023220464489880F2
:101B10000238FFFFFFFF0260204C04098081301073
:101B2000260204C040980813010260204C0409807A
:101B300081301026020000000000000000000000BC
:101B40000000000000000000104260204C040980EA
:101B5000813010008213010260204C040980813022
:101B600010260204C040980817010260204C0409A6
:101B7000808406400EA5FFFFFFFF01051020A20490
:101B8000144082881051020A20414408288105101F
:101B900020A20414408288105100000000000000C0
:101BA0000000000000000000000000008801051097
:101BB00020A204144082880440082881051020A235
:101BC00004144082881051020A20414408288105EB
:101BD0001020A2041448A0803396FFFFFFFF0202EA
:101BE000204044080881011020220404408088100D
:101BF0001102022040440808810110202200000048
:101C000000000000000000000000000000000001D3
:101C100010020220404408088101100880101102BF
:101C200002204044100881011020220404408088D2
:101C30000011020220404408088440403C83FFFF1A
:101C4000FFFF0101102022040440808810110202CD
:101C5000204044080881011020220404408088109C
:101C60001100000000000000000000000000000063
:101C70000000000088010110202204044080880434
:101C800040080881011020220404408088101102BD
:101C9000022040440808810110202204044880806A
:101CA0000B75FFFFFFFF02222044440888811110BA
:101CB00022220444408888111102222044440888CA
:101CC000811110222200000000000000000000002E
:101CD0000000000000000001500222204444088857
:101CE0008111100A8011110222204444030C811139
:101CF00010222204444088880051022220444408D3
:101D0000880444409F9DFFFFFFFF01011020220433
:101D1000044080881011020220404408088101100C
:101D20002022040440808810110000000000000000
:101D30000000000000000000000000000801011089
:101D400020220404408088004008088101102022DD
:101D50000414408088101102022040440848810188
:101D600010202204054880802B34FFFFFFFF020073
:101D70002040040800810010200204004080081068
:101D80000102002040040800810010200200000031
:101D90000000000000000000000000000000000043
:101DA0000102002040040800810010000810010218
:101DB0000020400408008100102002040040800838
:101DC00010010200204004080084004030C0FFFFE2
:101DD000FFFF011010220204404088081101022078
:101DE0002044040880811010220204404088081119
:101DF00001000000000000000000000000000000E2
:101E00000000000000011010220204404088080079
:101E1000000880811010220205004088081101028C
:101E200020204404088081101022020440480880C9
:101E30008332FFFFFFFF02220044400888011100A7
:101E400022200444008880111002220044400888A7
:101E5000011100222000000000000000000000002E
:101E60000000000000000011110222004440088818
:101E7000011102888811100222004440088E0111CD
:101E800000222004440088801110022200444008EF
:101E9000880044404E68FFFFFFFF0111102222041A
:101EA000444088881111022220444408888111107E
:101EB0002222044440888811110000000000000024
:101EC00000000000000000000000000888811110E0
:101ED0002222044440888844440888811110222228
:101EE000044440888811110222204444088881114A
:101EF0001022220444488880F0E1FFFFFFFF022205
:101F0000204444088881111022220444408888110A
:101F1000110222204444088881111022220000006E
:101F200000000000000000000000000000000011A0
:101F3000110222204444088881111088881111025E
:101F400022204444088881111022220444408888B9
:101F5000111102222044440888844440E0ABFFFF72
:101F6000FFFF000010000200004000080001000018
:101F70002000040000800010000200004000080063
:101F80000100000000000000000000000000000050
:101F90000000000000800010000200004000080067
:101FA0000400008000100002000040000800010052
:101FB0000020000400008000100002000048000023
:101FC0001F9BFFFFFFFF022220444408888111105D
:101FD00022220444408888111102222044440888A7
:101FE000811110222200000000000000000000000B
:101FF0000000000000000051110222204444088823
:10200000811110888811110222204444088881110E
:1020100010222204444088881111022220444408DE
:1020200088844440A42EFFFFFFFF00001000020040
:1020300000400008000100002000040000800010A3
:102040000002000040000800010000000000000045
:1020500000000000000000000000000000800010F0
:102060000002000040000800040000800010000290
:102070001000400008000100002000040000800063
:102080001000020000480000F8CCFFFFFFFF022212
:102090000044400888011100222004440088801177
:1020A0001002220044400888011100222000000094
:1020B000000000000000000000000000000000110F
:1020C0001102220044400888011100888811100282
:1020D0002200444008880111002220044400888026
:1020E000111002220044400888004440633FFFFF73
:1020F000FFFF01111022220444408888111102229E
:102100002044440888811110222204444088881108
:1021100011000000000000000000000000000000AE
:10212000000000088881111022220444408888445D
:102130004408888111102222044440888811110229
:1021400022204444088881111022220444488880B7
:10215000F0E1FFFFFFFF02222044440888811110B4
:102160002222044440888811110222204444088815
:102170008111102222000000000000000000000079
:1021800000000000000000111102222044440888D1
:10219000811110888811110222204444088881117D
:1021A000102222044440888811110222204444084D
:1021B00088844440E0ABFFFFFFFF0111102222049E
:1021C000444088881111022220444408888111105B
:1021D0002222044440888811110000000000000001
:1021E00000000000000000000000000888811110BD
:1021F0002222044440888844440888811110222205
:102200000C4440888811110222204444088881111E
:1022100010222204444888804348FFFFFFFF022227
:1022200000444008880111002220044400888011E5
:102230001002220044400888011100222000000002
:10224000000000000000000000000000000000117D
:102250000102220044400888011100880811100280
:102260002200444008880111002220044400888094
:102270001110022200444008880044401379FFFFF7
:10228000FFFF01111022220444408888111102220C
:102290002044440888811110222204444088881177
:1022A000110000000000000000000000000000001D
:1022B00000000008888111102222044440888844CC
:1022C0004408888111102222044440888811110298
:1022D0002220444408888111102222044448888026
:1022E000F0E1FFFFFFFF0222204444088881111023
:1022F0002222044440888811110222204444088884
:1023000081111022220000000000000000000000E7
:10231000000000000000001111022220444408883F
:1023200081111088881111022220444408888111EB
:1023300010222204444088881111022220444408BB
:1023400088844440E0ABFFFFFFFF00001000020064
:102350000040000800010000200004000080001080
:102360000002000040000800010000000000000022
:1023700000000000000000000000000008800010C5
:10238000000200004000080044000080001000022D
:102390000000400008000100002000040000800050
:1023A000100002000048000027B8FFFFFFFF0222D4
:1023B0002044440888811110222204444088881156
:1023C00011022220444408888111102222000000BA
:1023D00000000000000000000000000000000011EC
:1023E000010222204444088881111088081111023A
:1023F0002220444408888111102222044440888805
:1024000011110222204444088884444090EDFFFFCB
:10241000FFFF000010000200004000080001000063
:1024200020000400008000100002000040000800AE
:10243000010000000000000000000000000000009B
:1024400000000000088000100002000040000800AA
:10245000440000800010000200004000080001005D
:10246000002000040000800010000200004800006E
:1024700027B8FFFFFFFF0222204444088881111083
:1024800022220444408888111102222044440888F2
:102490008111102222000000000000000000000056
:1024A00000000000000000110102222044440888BE
:1024B00081111088081111022220444408888111DA
:1024C000102222044440888811110222204444082A
:1024D0008884444090EDFFFFFFFF01111022220489
:1024E0004440888811110222204444088881111038
:1024F00022220444408888111100000000000000DE
:102500000000000000000000000000088881111099
:1025100022220444408888444408888111102222E1
:102520000444408888111102222044440888811103
:102530001022220444488880F0E1FFFFFFFF0222BE
:1025400020444408888111102222044440888811C4
:102550001102222044440888811110222200000028
:10256000000000000000000000000000000000115A
:1025700001022220444408888111108808111102A8
:1025800022204444C88881111022220444408888B3
:10259000111102222044440888844440B712FFFFEE
:1025A000FFFF0111102222044440888811110222E9
:1025B0002044440888811110222204444088881154
:1025C00011000000000000000000000000000000FA
:1025D00000000008888111102222044440888844A9
:1025E0004408888111102222C444408888111102B5
:1025F0002220444408888111102222044448888003
:10260000D71EFFFFFFFF02222044440888811110DB
:102610002222044440888811110222204444088860
:1026200081111022220000000000000000000000C4
:10263000000000000000001111022220444408881C
:1026400081111088881111022220444428888111A8
:102650001022220444408888111102222044440898
:1026600088844440AE00FFFFFFFF011110222204C6
:1026700044408888111102222044440888811110A6
:10268000222204444088881111000000000000004C
:102690000000000000000000000000088881111008
:1026A0002222044440888844440888811110222250
:1026B0000444408888111102222044440888811172
:1026C0001022220444488880F0E1FFFFFFFF02222D
:1026D0002044440888811110222204444088881133
:1026E0001102222044440888811110222200000097
:1026F00000000000000000000000000000000011C9
:102700001102222044440888811110888811110286
:102710002220444488888111102222044440888861
:102720001111022220444408888444405A02FFFFC9
:10273000FFFF000010000200004000080001000040
:10274000200004000080001000020000400008008B
:102750000100000000000000000000000000000078
:102760000000000008800010000200004000080087
:1027700044000080001000028000400008000100BA
:10278000002000040000800010000200004800004B
:102790009D11FFFFFFFF0222204444088881111091
:1027A00022220444408888111102222044440888CF
:1027B0008111102222000000000000000000000033
:1027C000000000000000001111022220444408888B
:1027D0008111108888111102222044440888811137
:1027E0001022220444408888111102222044440807
:1027F00088844440E0ABFFFFFFFF000010000200B0
:1028000000400008000100002000040000800010CB
:10281000000200004000080001000000000000006D
:102820000000000000000000000000000080001018
:1028300000020000400008000400008000100002B8
:10284000200040000800010000200004000080007B
:1028500010000200004800005130FFFFFFFF02227D
:1028600020444408888111102222044440888811A1
:102870001102222044440888811110222200000005
:102880000000000000000000000000000000001137
:1028900011022220444408888111108888111102F5
:1028A0002220444408888111102222044440888850
:1028B000111102222044440888844440E0ABFFFF09
:1028C000FFFF0111102222044440888811110222C6
:1028D0002044440888811110222204444088881131
:1028E00011000000000000000000000000000000D7
:1028F000000000088081111022220444408888448E
:102900000408888111102222044440888811110291
:1029100022204444088881111022220444488880DF
:10292000C8C2FFFFFFFF0222204444088881111023
:10293000222204444088881111022220444408883D
:1029400081111022220000000000000000000000A1
:1029500000000000000000111102222044440888F9
:10296000811112888811110222204444C8888111E3
:102970001022220444408888111102222044440875
:10298000888444409F57FFFFFFFF0111102222045B
:102990004440888811110222204444088881111083
:1029A0002222044440888811110000000000000029
:1029B00000000000000000000000000888811110E5
:1029C000222204444088884444088881111022222D
:1029D000C44440888811110222204444088881118F
:1029E0001022220444488880D71EFFFFFFFF0222E6
:1029F0002044440888811110222204444088881110
:102A00001102222044440888811110222200000073
:102A100000000000000000000000000000000011A5
:102A20001102222044440888811110888811110263
:102A300022204444C98881111022220444408888FD
:102A40001111022220444408888444402123FFFFBE
:102A5000FFFF011110222204444088881111022234
:102A6000204444088881111022220444408888119F
:102A70001100000000000000000000000000000045
:102A800000000008888111102222044440888844F4
:102A90004408888111102222E40460888811110200
:102AA000222044440888811110222204444888804E
:102AB000A2E4FFFFFFFF0222204444088881111096
:102AC00022220444408888111102222044440888AC
:102AD0008111102222000000000000000000000010
:102AE0000000000000000011014222204444088838
:102AF000811110880A11110222204444C8888111D2
:102B000010222204444088881111022220444408E3
:102B10008884444032D0FFFFFFFF00001000020015
:102B200000400008000100002000040000800010A8
:102B3000000200004000080001000000000000004A
:102B400000000000000000000000000008800010ED
:102B50000002000040000800440000800010000255
:102B6000E100400008000100002000040000800097
:102B70001000020000480000A89BFFFFFFFF022298
:102B8000004440088801110022200444008880117C
:102B90001002220044400888011100222000000099
:102BA0000000000000000000000000000000001114
:102BB0001102220044400888011100888811100287
:102BC000220044400988211100222004440088800A
:102BD0001110022200444008880044402787FFFF6C
:102BE000FFFF00001000020000400008000100008C
:102BF00020000400008000100002000040000800D7
:102C000001000000000000000000000000000000C3
:102C10000000000008000010000200004000080052
:102C20004000008000100002200040000800010069
:102C30000020000400008000100002000048000096
:102C4000E292FFFFFFFF02220044400888011100CA
:102C50002220044400888011100222004440088889
:102C60000111002220000000000000000000000010
:102C7000000000000000001100022200444008880B
:102C8000011100880011100222004440088801113F
:102C900000222004440088801110022200444008D1
:102CA00088004440847EFFFFFFFF011110222204B0
:102CB0004440888811110222204444088881111060
:102CC0002222044440888811110000000000000006
:102CD00000000000000000000000000888811110C2
:102CE000222204444088884444088881111022220A
:102CF000244440888811110222204444088881110C
:102D00001022220444488880BE4AFFFFFFFF0222AF
:102D100020444408888111102222044440888811EC
:102D20001102222044440888811110222200000050
:102D30000000000000000000000000000000001182
:102D400001022220444408888111108808111102D0
:102D5000222044440888811110222204444088889B
:102D600011110222204444088884444090EDFFFF62
:102D7000FFFF011110222204444088881111022211
:102D8000204444088881111022220444408888117C
:102D90001100000000000000000000000000000022
:102DA00000000008888111102222044440888844D1
:102DB000440888811110222204444088881111029D
:102DC000222044440888811110222204444888802B
:102DD000F0E1FFFFFFFF02220044400888011100DC
:102DE00022200444008880111002220044400888F8
:102DF000011100222000000000000000000000007F
:102E00000000000000000011010222004440088878
:102E100001110088081110022200444008484111A5
:102E2000002220044400888011100222004440083F
:102E300088004440FC45FFFFFFFF011110222204DF
:102E400044408888111102222044440888811110CE
:102E50002222044440888811110000000000000074
:102E600000000000000000000000000888011110B0
:102E7000222204444088884440088881111022227C
:102E80000544608888111102222044440888811179
:102E900010222204444888803FD8FFFFFFFF02220F
:102EA000204444088881111022220444408888115B
:102EB00011022220444408888111102222000000BF
:102EC00000000000000000000000000000000011F1
:102ED0001142222044440888811110888A1111026D
:102EE000222044440888811110222204444088880A
:102EF0001111022220444408888444406569FFFF80
:102F0000FFFF000010000200004000080001000068
:102F100020000400008000100002000040000800B3
:102F200001000000000000000000000000000000A0
:102F300000000000088000100002000040000800AF
:102F40004400008000100002004040000800010022
:102F50000020000400008000100002000048000073
:102F6000BE26FFFFFFFF0222204444088881111083
:102F700022220444408888111102222044440888F7
:102F8000811110222200000000000000000000005B
:102F900000000000000000111102222044440888B3
:102FA000811110888811110222204444088881115F
:102FB000102222044440888811110222204444082F
:102FC00088844440E0ABFFFFFFFF000010000200D8
:102FD00000400008000100002000040000800010F4
:102FE0000002000040000800010000000000000096
:102FF00000000000000000000000000008000010B9
:1030000000020000400008004000008000100002A4
:1030100000004000080001000020000400008000C3
:103020001000020000480000AC39FFFFFFFF022241
:1030300020444408888111102222044440888811C9
:10304000110222204444088881111022220000002D
:10305000000000000000000000000000000000115F
:103060001002222044440888811110888011110226
:103070002220444400888111102222044440888880
:10308000111102222044440888844440C405FFFFF3
:10309000FFFF0111102222044440888811110222EE
:1030A0002044440888811110222204444088881159
:1030B00011000000000000000000000000000000FF
:1030C00000000008888111102222044440888844AE
:1030D000440888811110222204444088881111027A
:1030E0002220444408888111102222044448888008
:1030F000F0E1FFFFFFFF0222204444088881111005
:103100002222044440888811110222204444088865
:1031100081111022220000000000000000000000C9
:103120000000000000000011110222204444088821
:1031300081111088881111022220444408888111CD
:10314000102222044440888811110222204444089D
:1031500088844440E0ABFFFFFFFF011110222204EE
:1031600044408888111102222044440888811110AB
:103170002222044440888811110000000000000051
:10318000000000000000000000000008888111100D
:103190002222044440888A44440888811110222253
:1031A0001444408888111102222044440888811167
:1031B00010222204444888804FB5FFFFFFFF022AF7
:1031C00020454408A881151022A20454408A881181
:1031D00051022A20454408A881151022A2000000AF
:1031E00000000000000000000000000000000011CE
:1031F00051022A20454408A88115108A88115102DD
:103200002A204544082881151022A20454408A88A7
:103210001151022A20454408A8845440034CFFFF62
:10322000FFFF01111022220444408888111102225C
:1032300020444408888111102222044440888811C7
:10324000110000000000000000000000000000006D
:10325000000000088801111022220444408888449C
:1032600040088881111022220444408888111102EC
:103270002220444408888111102222044448888076
:103280007B60FFFFFFFF0222204444088881111069
:1032900022220444408888111102222044440888D4
:1032A0008111102222000000000000000000000038
:1032B0000000000000000011110222204444088890
:1032C00081111088881111022220444408088111BC
:1032D000102222044440888811110222204444080C
:1032E000888444405392FFFFFFFF00111002220028
:1032F00044400888011100222004440088801110F5
:103300000222004440088801110000000000000073
:103310000000000000000000000000000880111004
:1033200002220044400888004400888011100222D4
:1033300000444008880111002220044400888011C4
:1033400010022200444888006A0FFFFFFFFF0205B9
:10335000A0400408008100102002040040800810F2
:10336000010200204004080081001020020000003B
:10337000000000000000000000000000000000103D
:103380001102002040040800810010808810010212
:103390000020400408008100102002040040800842
:1033A00010010200204004080085A0405F59FFFF83
:1033B000FFFF001110022200444008880111002282
:1033C0002004440088801110022200444008880133
:1033D00011000000000000000000000000000000DC
:1033E00000000000088011100222004440088800FC
:1033F0004400888011100222004440088801110016
:1034000022200444008880111002220044488800D1
:103410006A0FFFFFFFFF0200204004080081001038
:10342000200204004080081001020020400408002F
:1034300081001020020000000000000000000000D9
:1034400000000000000000001042002040040800BE
:103450008100100082100102002040040800810059
:1034600010200204004080081001020020400408DF
:10347000008400405243FFFFFFFF01191023220484
:1034800064408C881191023220464408C88119108A
:1034900023220464408C8811910000000000000089
:1034A00000000000000000000000000088811910EA
:1034B00023220464408C88044408C8811910232204
:1034C0000464408C881191023220464408C8811956
:1034D000102322046448988042B1FFFFFFFF02607E
:1034E000204C040980813010260204C04098081343
:1034F000010260204C040980813010260200000087
:1035000000000000000000000000000000000000BB
:10351000104260204C0409808130100082130102A7
:1035200060204C040980813010260204C0409808B5
:1035300013010260204C0409808406408F58FFFF6D
:10354000FFFF01051020A204144082881051020AD6
:10355000204144082881051020A2041440828810CC
:10356000510000000000000000000000000000000A
:10357000000000008801051020A204144082880485
:1035800040082881051020A20414408288105102AE
:103590000A204144082881051020A2041448A08074
:1035A0003396FFFFFFFF020220404408088101100C
:1035B00020220404408088101102022040440808A0
:1035C0008101102022000000000000000000000027
:1035D0000000000000000001100202204044080822
:1035E0008101100880101102022040440808810166
:1035F0001020220404408088101102022040440858
:1036000008844040EF86FFFFFFFF010111202224C4
:103610000444808890111202224044480889011114
:103620002022240444808890110000000000000043
:1036300000000000000000000000000088090111E7
:103640002022240444808804404808890111202253
:1036500034044480889011120222404448088901B1
:1036600011202224044880804E97FFFFFFFF022292
:103670002044440888811110222204444088881183
:1036800011022220444408888111102222000000E7
:103690000000000000000000000000000000000129
:1036A00050022220444408888111100A801111021E
:1036B0002220444408A88111102222044440888812
:1036C000111102222044440888844440BD5DFFFF5C
:1036D000FFFF01011120222404448088901112026E
:1036E0002240444808890111202224044480889003
:1036F00011000000000000000000000000000000B9
:1037000000000000080901112022240444808800E0
:1037100040480889011120222C24448088901112ED
:103720000222404448088901112022240448808054
:10373000D49CFFFFFFFF0205A040B408168102D011
:10374000205A0403408068100D0201A0403408068E
:103750008100D0201A0000000000000000000000DE
:103760000000000000000000010201A04034080633
:103770008100D00008100D0201A04034080681022B
:10378000D0201A040B408168102D0205A040B40817
:103790001685A0404563FFFFFFFF01121022D204EF
:1037A0005A408B481169022D20452408B481169097
:1037B00022D20452408A4811690000000000000033
:1037C0000000000000000000000000000001169052
:1037D0002292045A408B482AAE08B481169022D215
:1037E0000452408B481169022D2045A408A481167B
:1037F0009022D2045A484880EFD5FFFFFFFF0222F3
:1038000000444008880111002220044400888011EF
:10381000100222004440088801110022200000000C
:103820000000000000000000000000000000001187
:1038300011022200444008880111008888111002FA
:10384000220044400888011100222004440088809E
:10385000111002220044400888004440633FFFFFEB
:10386000FFFF011110222204444088881111022216
:103870002044440888811110222204444088881181
:103880001100000000000000000000000000000027
:1038900000000008888111102222044440888844D6
:1038A00044088881111022220444408888111102A2
:1038B0002220444408888111102222044448888030
:1038C000F0E1FFFFFFFF022220444408888111102D
:1038D000222204444088881111022220444408888E
:1038E00081111022220000000000000000000000F2
:1038F000000000000000001111022220444408884A
:1039000081111088881111022220444408888111F5
:1039100010222204444088881111022220444408C5
:1039200088844440E0ABFFFFFFFF0000100002006E
:10393000004000080001000020000400008000108A
:10394000000200004000080001000000000000002C
:1039500000000000000000000000000000800010D7
:103960000002000040000800040000800010000277
:10397000000040000800010000200004000080005A
:1039800010000200004800001F9BFFFFFFFF022203
:103990002044440888811110222204444088881160
:1039A00011022220444408888111102222000000C4
:1039B00000000000000000000000000000000011F6
:1039C00011022220444408888111108888111102B4
:1039D000222044440888811110222204444088880F
:1039E000111102222044440888844440E0ABFFFFC8
:1039F000FFFF00001000020000400008000100006E
:103A000020000400008000100002000040000800B8
:103A100001000000000000000000000000000000A5
:103A200000000000008000100002000040000800BC
:103A300004000080001000020000400008000100A7
:103A40000020000400008000100002000048000078
:103A50001F9BFFFFFFFF0222004440088801110066
:103A6000222004440088801110022200444008886B
:103A700001110022200000000000000000000000F2
:103A800000000000000000111102220044400888DC
:103A90000111008888111002220044400888011199
:103AA00000222004440088801110022200444008B3
:103AB00088004440633FFFFFFFFF011110222204F2
:103AC0004440888811110222204444088881111042
:103AD00022220444408888111100000000000000E8
:103AE00000000000000000000000000888811110A4
:103AF00022220444408888444408888111102222EC
:103B0000044440888811110222204444088881110D
:103B10001022220444488880F0E1FFFFFFFF0222C8
:103B200020444408888111102222044440888811CE
:103B30001102222044440888811110222200000032
:103B40000000000000000000000000000000001164
:103B50001102222044440888811110888811110222
:103B6000222044440888811110222204444088887D
:103B7000111102222044440888844440E0ABFFFF36
:103B8000FFFF0111102222044440888811110222F3
:103B9000204444088881111022220444408888115E
:103BA0001100000000000000000000000000000004
:103BB00000000008888111102222044440888844B3
:103BC000440888811110222204444088881111027F
:103BD000222044440888811110222204444888800D
:103BE000F0E1FFFFFFFF02220044400888011100BE
:103BF00022200444008880111002220044400888DA
:103C00000111002220000000000000000000000060
:103C1000000000000000001101022200444008885A
:103C20000111008808111002220044400888011187
:103C30000022200444008880111002220044400821
:103C400088004448934AFFFFFFFF0111102222041D
:103C500044408888111102222044440888811110B0
:103C60002222044440888811110000000000000056
:103C70000000000000000000000000088881111012
:103C8000222204444088884444088881111022225A
:103C9000044440888811110222204444088881117C
:103CA0001022220444488880F0E1FFFFFFFF022237
:103CB000204444088881111022220444408888113D
:103CC00011022220444408888111102222000000A1
:103CD00000000000000000000000000000000011D3
:103CE0001102222044440888811110888811110291
:103CF00022204444088881111022220444408888EC
:103D0000111102222044440888844440E0ABFFFFA4
:103D1000FFFF00001000020000400008000100004A
:103D20002000040000800010000200004000080095
:103D30000100000000000000000000000000000082
:103D40000000000008800010000200004000080091
:103D50004400008000100002000040000800010044
:103D60000020000400008000100002000048000055
:103D700027B8FFFFFFFF022220444408888111106A
:103D800022220444408888111102222044440888D9
:103D9000811110222200000000000000000000003D
:103DA00000000000000000110102222044440888A5
:103DB00081111088081111022220444408888111C1
:103DC0001022220444408888111102222044440811
:103DD0008884444090EDFFFFFFFF000010000200C8
:103DE00000400008000100002000040000800010D6
:103DF0000002000040000800010000000000000078
:103E0000000000000000000000000000088000101A
:103E10000002000040000800440000800010000282
:103E200000004000080001000020000400008000A5
:103E3000100002000048000027B8FFFFFFFF022229
:103E400020444408888111102222044440888811AB
:103E5000110222204444088881111022220000000F
:103E60000000000000000000000000000000001141
:103E7000010222204444088881111088081111028F
:103E8000222044440888811110222204444088885A
:103E900011110222204444088884444090EDFFFF21
:103EA000FFFF0111102222044440888811110222D0
:103EB000204444088881111022220444408888113B
:103EC00011000000000000000000000000000000E1
:103ED0000000000888811110222204444088884490
:103EE000440888811110222204444088881111025C
:103EF00022204444088881111022220444488880EA
:103F0000F0E1FFFFFFFF02222044440888811110E6
:103F10002222044440888811110222204444088847
:103F200081111022220000000000000000000000AB
:103F30000000000000000011010222204444088813
:103F4000811110880811110222204444088881112F
:103F5000102222044440888811110222204444087F
:103F60008884444090EDFFFFFFFF011110222204DE
:103F7000444088881111022220444408888111108D
:103F80002222044440888811110000000000000033
:103F900000000000000000000000000888811110EF
:103FA0002222044440888844440888811110222237
:103FB0000444408888111102222044440888811159
:103FC000102222044448888870D2FFFFFFFF02229B
:103FD000204444088881111022220444408888111A
:103FE000110222204444088881111022220000007E
:103FF00000000000000000000000000000000011B0
:10400000110222204444088881111088881111026D
:1040100022204444088881111022220444408888C8
:10402000111102222044440888844440E0ABFFFF81
:10403000FFFF01111022220444408888111102223E
:1040400020444408888111102222044440888811A9
:10405000110000000000000000000000000000004F
:1040600000000008888111102222044440888844FE
:1040700044088881111022220444408888111102CA
:104080002220444408888111102222044448888058
:10409000F0E1FFFFFFFF0222204444088881111055
:1040A00022220444408888111102222044440888B6
:1040B000811110222200000000000000000000001A
:1040C0000000000000000011110222204444088872
:1040D000811112888811110222204444088881111C
:1040E00010222204444088881111022220444408EE
:1040F00088844440B8A8FFFFFFFF000010000200C2
:1041000000400008000100002000040000800010B2
:104110000002000040000800010000000000000054
:1041200000000000000000000000000008800010F7
:10413000000200004000080044000080001000025F
:104140000000400008000100002000040000800082
:10415000100002000048000027B8FFFFFFFF022206
:104160002044440888811110222204444088881188
:1041700011022220444408888111102222000000EC
:10418000000000000000000000000000000000111E
:1041900011022220444408888111108888111102DC
:1041A0002220444408888111102222044440888837
:1041B000111102222044440888844440E0ABFFFFF0
:1041C000FFFF000010000200004000080001000096
:1041D00020000400008000100002000040000800E1
:1041E00001000000000000000000000000000000CE
:1041F00000000000008000100002000040000800E5
:1042000004000080001000020000400008000100CF
:1042100000200004000080001000020000480000A0
:104220001F9BFFFFFFFF02222044440888811110DA
:104230002222044440888811110222204444088824
:104240008111102222000000000000000000000088
:1042500000000000000000111102222044440888E0
:10426000811110888811110222204444088881118C
:10427000102222044440888811110222204444085C
:1042800088844440E0ABFFFFFFFF011110222204AD
:10429000444088881111022220444408888111106A
:1042A0002222044440888811110000000000000010
:1042B00000000000000000000000000880811110D4
:1042C0002222044440888844040888811110222254
:1042D0000444408888111102222044440888811136
:1042E0001022220444488880C8C2FFFFFFFF022238
:1042F00020444408888111102222044440888811F7
:10430000110222204444088881111022220000005A
:10431000000000000000000000000000000000118C
:10432000110222204444088881111088881111024A
:1043300022204444088881111022220444408888A5
:10434000111102222044440888844440E0ABFFFF5E
:10435000FFFF01111022220444408888111102221B
:104360002044440888811110222204444088881186
:10437000110000000000000000000000000000002C
:1043800000000008888111102222044440888844DB
:1043900044088881111022220444408888111102A7
:1043A0002220444408888111102222044448888035
:1043B000F0E1FFFFFFFF0222204444088881111032
:1043C0002222044440888811110222204444088893
:1043D00081111022220000000000000000000000F7
:1043E000000000000000001111022220444408884F
:1043F00081111088881111022220444408888111FB
:1044000010222204444088881111022220444408CA
:1044100088844440E0ABFFFFFFFF0111102222041B
:1044200044408888111102222044440888811110D8
:10443000222204444088881111000000000000007E
:10444000000000000000000000000008888111103A
:104450002222044440888844440888811110222282
:1044600004444088881111022220444408888111A4
:104470001022220444488880F0E1FFFFFFFF02225F
:104480002044440888811110222204444088881165
:1044900011022220444408888111102222000000C9
:1044A00000000000000000000000000000000011FB
:1044B0000142222044440888811110880A11110207
:1044C0002220444408888111102222044440888814
:1044D000111102222044440888844440152FFFFF14
:1044E000FFFF000010000200004000080001000073
:1044F00020000400008000100002000040000800BE
:1045000001000000000000000000000000000000AA
:1045100000000000088000100002000040000800B9
:10452000440000800010000200004000080001006C
:10453000002000040000800010000200004800007D
:1045400027B8FFFFFFFF0222004440088801110046
:104550002220044400888011100222004440088870
:1045600001110022200000000000000000000000F7
:1045700000000000000000111102220044400888E1
:10458000011100888811100222004440088801119E
:1045900000222004440088801110022200444008B8
:1045A00088004440633FFFFFFFFF0000100002004F
:1045B00000400008000100002000040000800010FE
:1045C00000020000400008000100000000000000A0
:1045D00000000000000000000000000008000010C3
:1045E00000020000400008004000008000100002AF
:1045F00000004000080001000020000400008000CE
:104600001000020000480000AC39FFFFFFFF02224B
:1046100000444008880111002220044400888011D1
:1046200010022200444008880111002220000000EE
:104630000000000000000000000000000000001169
:104640000002220044400888011100880011100275
:104650002200444008880111002220044400888080
:10466000111002220044400888004440847EFFFF6D
:10467000FFFF0111102222044440888811110222F8
:104680002044440888811110222204444088881163
:104690001100000000000000000000000000000009
:1046A00000000008888111102222044440888844B8
:1046B0004408888111102222044440888811110284
:1046C0002220444408888111102222044448888012
:1046D000F0E1FFFFFFFF022220444408888111100F
:1046E0002222044440888811110222204444088870
:1046F00081111022220000000000000000000000D4
:10470000000000000000001101022220444408883B
:104710008111108808111102222044440888811157
:1047200010222204444088881111022220444408A7
:104730008884444090EDFFFFFFFF01111022220406
:1047400044408888111102222044440888811110B5
:10475000222204444088881111000000000000005B
:104760000000000000000000000000088881111017
:10477000222204444088884444088881111022225F
:104780000444408888111102222044440888811181
:104790001022220444488880F0E1FFFFFFFF02223C
:1047A0000044400888011100222004440088801140
:1047B000100222004440088801110022200000005D
:1047C00000000000000000000000000000000011D8
:1047D00001022200444008880111008808111002DB
:1047E00022004440088801110022200444008880EF
:1047F0001110022200444008880044401379FFFF52
:10480000FFFF011110222204444088881111022266
:1048100020444408888111102222044440888811D1
:104820001100000000000000000000000000000077
:1048300000000008880111102222044440888844A6
:1048400040088881111022220444408888111102F6
:104850002220444408888111102222044448888080
:104860007B60FFFFFFFF0222204444088881111073
:1048700022220444408888111102222044440888DE
:104880008111102222000000000000000000000042
:10489000000000000000001111422220444408885A
:1048A000811110888A111102222044440888811144
:1048B0001022220444408888111102222044440816
:1048C000888444406569FFFFFFFF0000100002007C
:1048D00000400008000100002000040000800010DB
:1048E000000200004000080001000000000000007D
:1048F0000000000000000000000000000880001020
:104900000002000040000800440000800010000287
:1049100000004000080001000020000400008000AA
:10492000100002000048000027B8FFFFFFFF02222E
:1049300020444408888111102222044440888811B0
:104940001102222044440888811110222200000014
:104950000000000000000000000000000000001146
:104960001102222044440888811110888811110204
:10497000222044440888811110222204444088885F
:10498000111102222044440888844440E0ABFFFF18
:10499000FFFF0000100002000040000800010000BE
:1049A0002000040000800010000200004000080009
:1049B00001000000000000000000000000000000F6
:1049C0000000000008000010000200004000080085
:1049D00040000080001000020000400008000100BC
:1049E00000200004000080001000020000480000C9
:1049F000AC39FFFFFFFF02222044440888811110D8
:104A0000222204444088881111022220444408884C
:104A100081111022220000000000000000000000B0
:104A20000000000000000011100222204444088809
:104A300081111088801111022220444408888111BC
:104A40001022220444408888111102222044440884
:104A50008884444077ACFFFFFFFF0111102222043D
:104A60004440888811110222204444088881111092
:104A70002222044440888811110000000000000038
:104A800000000000000000000000000888811110F4
:104A9000222204444088884444088881111022223C
:104AA000044440888811110222204444088881115E
:104AB0001022220444488880F0E1FFFFFFFF022219
:104AC000204444088881111022220444408888111F
:104AD0001102222044440888811110222200000083
:104AE00000000000000000000000000000000011B5
:104AF0001102222044440888811110888811110273
:104B000022204444088881111022220444408888CD
:104B1000111102222044440888844440E0ABFFFF86
:104B2000FFFF011110222204444088881111022243
:104B300020444408888111102222044440888811AE
:104B40001100000000000000000000000000000054
:104B50000000000888811110222204444088884403
:104B600044088881111022220444408888111102CF
:104B7000222044440888811110222204444888805D
:104B8000F0E1FFFFFFFF022A20454408A88115102D
:104B900022A20454408A881151022A20454408A8C0
:104BA00081151022A200000000000000000000009B
:104BB000000000000000001151022A20454408A80E
:104BC0008115108A881151022A20454408A88115B0
:104BD0001022A20454408A881151022A2045440818
:104BE000A8845440B075FFFFFFFF0111102222047A
:104BF0004440888811110222204444088881111001
:104C000022220444408888111100000000000000A6
:104C100000000000000000000000000888011110E2
:104C200022220444408888444008888111102222AE
:104C300004444088881111022220444408888111CC
:104C400010222204444888807B60FFFFFFFF02227D
:104C5000204444088881111022220444408888118D
:104C600011022220444408888111102222000000F1
:104C70000000000000000000000000000000001123
:104C800011022220444408888111108888111102E1
:104C9000222044440888811110222204444088883C
:104CA000111102222044440888844440E0ABFFFFF5
:104CB000FFFF001110022200444008880111002269
:104CC000200444008880111002220044400888011A
:104CD00011000000000000000000000000000000C3
:104CE00000000000088011100222004440088800E3
:104CF00044008880111002220044400888011100FD
:104D000022200444008880111002220044488800B8
:104D10006A0FFFFFFFFF0205A0400408008100109A
:104D20002002040040800810010200204004080016
:104D300081001020020000000000000000000000C0
:104D400000000000000000101102002040040800D4
:104D500081001080881001020020400408008100BA
:104D600010200204004080081001020020400408C6
:104D70000085A0405F59FFFFFFFF001110022200D5
:104D8000444008880111002220044400888011104A
:104D900002220044400888011100000000000000C9
:104DA000000000000000000000000000088011105A
:104DB000022200444008880044008880111002222A
:104DC000004440088801110022200444008880111A
:104DD00010022200444888006A0FFFFFFFFF020014
:104DE00020400408008100102002040040800810C8
:104DF0000102002040040800810010200200000091
:104E000000000000000000000000000000000000A2
:104E100010420020400408008100100082100102AE
:104E20000020400408008100102002040040800897
:104E30001001020020400408008400405243FFFF9C
:104E4000FFFF01191023220464408C881191023263
:104E500020464408C881191023220464408C88111C
:104E600091000000000000000000000000000000B1
:104E7000000000008881191023220464408C8804FB
:104E80004408C881191023220464408C88119102BF
:104E90003220464408C881191023220464489880AF
:104EA00042B1FFFFFFFF0260204C040980813010F7
:104EB000260204C040980813010260204C040980B7
:104EC00081301026020000000000000000000000F9
:104ED0000000000000000000104260204C04098027
:104EE000813010008213010260204C04098081305F
:104EF00010260204C040980813010260204C0409E7
:104F0000808406408F58FFFFFFFF01051020A20498
:104F1000144082881051020A20414408288105105B
:104F200020A20414408288105100000000000000FC
:104F300000000000000000000000000088010510D3
:104F400020A204144082880440082881051020A271
:104F500004144082881051020A2041440828810527
:104F60001020A2041448A0803396FFFFFFFF020226
:104F70002040440808810110202204044080881049
:104F80001102022040440808810110202200000084
:104F90000000000000000000000000000000000110
:104FA00010020220404408088101100880101102FC
:104FB00002204044280881011020220404408088F7
:104FC0005011020220404408088440403ECEFFFFBA
:104FD000FFFF010111202224044480889011120255
:104FE00022404448088901112022240444808890EA
:104FF00011000000000000000000000000000000A0
:105000000000000088090111202224044480880443
:1050100040480889011120222404448088901112FC
:10502000022240444808890111202224044880803B
:10503000A9C0FFFFFFFF022220444408888111100D
:105040002222044440888811110222204444088806
:10505000811110222200000000000000000000006A
:105060000000000000000001500222204444088893
:105070008111100A801111022220444408888111F4
:10508000102222044440888811110222204444083E
:1050900088844440F192FFFFFFFF01011120222488
:1050A000044480889011120222404448088901116A
:1050B0002022240444808890110000000000000099
:1050C00000000000000000000000000008090111BD
:1050D00020222404448088004048088901112022AD
:1050E0002404448088901112022240444808890117
:1050F00011202224044880802BFAFFFFFFFF0205C5
:10510000A040B408168102D0205A040340806810E1
:105110000D0201A0403408068100D0201A000000D2
:10512000000000000000000000000000000000007F
:10513000010201A0403408068100D00008100D02D1
:1051400001A0403408068102D0201A040B40816877
:10515000102D0205A040B4081685A0404563FFFF4E
:10516000FFFF01121022D2045A408B481169022D10
:1051700020452408B481169022D20452408A481156
:1051800069000000000000000000000000000000B6
:1051900000000000000116902292045A408B482A19
:1051A000AE08B481169022D20452408B4811690295
:1051B0002D2045A408A481169022D2045A48488084
:1051C000EFD5FFFFFFFF02220044400888011100D5
:1051D00022200444008880111002220044400888E4
:1051E000011100222000000000000000000000006B
:1051F0000000000000000011110222004440088855
:105200000111008888111002220044400888011111
:10521000002220044400888011100222004440082B
:1052200088004440633FFFFFFFFF0111102222046A
:1052300044408888111102222044440888811110BA
:105240002222044440888811110000000000000060
:10525000000000000000000000000008888111101C
:105260002222044440888844440888811110222264
:105270000444408888111102222044440888811186
:105280001022220444488880F0E1FFFFFFFF022241
:105290002044440888811110222204444088881147
:1052A00011022220444408888111102222000000AB
:1052B00000000000000000000000000000000011DD
:1052C000110222204444088881111088881111029B
:1052D00022204444088881111022220444408888F6
:1052E000111102222044440888844440E0ABFFFFAF
:1052F000FFFF000010000200004000080001000055
:10530000200004000080001000020000400008009F
:10531000010000000000000000000000000000008C
:1053200000000000008000100002000040000800A3
:10533000040000800010000200004000080001008E
:10534000002000040000800010000200004800005F
:105350001F9BFFFFFFFF0222204444088881111099
:1053600022220444408888111102222044440888E3
:105370008111102222000000000000000000000047
:10538000000000000000001111022220444408889F
:105390008111128888111102222044440888811149
:1053A000102222044440888811110222204444081B
:1053B00088844440B8A8FFFFFFFF000010000200EF
:1053C00000400008000100002000040000800010E0
:1053D0000002000040000800010000000000000082
:1053E000000000000000000000000000008000102D
:1053F00000020000400008000400008000100002CD
:1054000000004000080001000020000400008000AF
:1054100010000200004800001F9BFFFFFFFF022258
:1054200000444008880111002220044400888011B3
:1054300010022200444008880111002220000000D0
:10544000000000000000000000000000000000114B
:1054500011022200444008880111008888111002BE
:105460002200444008880111002220044400888062
:10547000111002220044400888004440633FFFFFAF
:10548000FFFF0111102222044440888811110222DA
:105490002044440888811110222204444088881145
:1054A00011000000000000000000000000000000EB
:1054B000000000088881111022220444408888449A
:1054C0004408888111102222044440888811110266
:1054D00022204444088881111022220444488880F4
:1054E000F0E1FFFFFFFF02222044440888811110F1
:1054F0002222044440888811110222204444088852
:1055000081111022220000000000000000000000B5
:10551000000000000000001111022220444408880D
:1055200081111088881111022220444408888111B9
:105530001022220444408888111102222044440889
:1055400088844440E0ABFFFFFFFF011110222204DA
:105550004440888811110222204444088881111097
:10556000222204444088881111000000000000003D
:1055700000000000000000000000000888811110F9
:105580002222044440888844440888811110222241
:105590000444408888111102222044440888811163
:1055A0001022220444488880F0E1FFFFFFFF02221E
:1055B0000044400888011100222004440088801122
:1055C000100222004440088801110022200000003F
:1055D00000000000000000000000000000000011BA
:1055E00001022200444008880111008808111002BD
:1055F00022004440088801110022200444008880D1
:105600001110022200444008880044401379FFFF33
:10561000FFFF011110222204444088881111022248
:1056200020444408888111102222044440888811B3
:105630001100000000000000000000000000000059
:105640000000000888811110222204444088884408
:1056500044088881111022220444408888111102D4
:105660002220444408888111102222044448888062
:10567000F0E1FFFFFFFF022220444408888111105F
:1056800022220444408888111102222044440888C0
:105690008111102222000000000000000000000024
:1056A000000000000000001111022220444408887C
:1056B0008111108888111102222044440888811128
:1056C00010222204444088881111022220444408F8
:1056D00088844440E0ABFFFFFFFF000010000200A1
:1056E00000400008000100002000040000800010BD
:1056F000000200004000080001000000000000005F
:105700000000000000000000000000000880001001
:105710000002000040000A00440000800010000267
:10572000000040000800010000200004000080008C
:1057300010000200004800007FBBFFFFFFFF0222B5
:105740002044440888811110222204444088881192
:1057500011022220444408888111102222000000F6
:105760000000000000000000000000000000001128
:105770000102222044440888811110880811110276
:105780002220444408888111102222044440888841
:1057900011110222204444088884444090EDFFFF08
:1057A000FFFF0000100002000040000800010000A0
:1057B00020000400008000100002000040000800EB
:1057C00001000000000000000000000000000000D8
:1057D00000000000088000100002000040000800E7
:1057E000440000800010000200004000080001009A
:1057F00000200004000080001000020000480000AB
:1058000027B8FFFFFFFF02222044440888811110BF
:10581000222204444088881111022220444408882E
:105820008111102222000000000000000000000092
:1058300000000000000000110102222044440888FA
:105840008111128808111102222044440888811114
:105850001022220444408888111102222044440866
:1058600088844440C8EEFFFFFFFF0111102222048C
:105870004440888811110222204444088881111074
:10588000222204444088881111000000000000001A
:1058900000000000000000000000000888811110D6
:1058A000222204444088884444088881111022221E
:1058B0000444408888111102222044440888811140
:1058C0001022220444488880F0E1FFFFFFFF0222FB
:1058D0002044440888811110222204444088881101
:1058E0001102222044440888811110222200000065
:1058F0000000000000000000000000000000001197
:1059000001022220444408888111108808111102E4
:1059100022204444088881111022220444408888AF
:1059200011110222204444088884444090EDFFFF76
:10593000FFFF011110222204444088881111022225
:105940002044440888811110222204444088881190
:105950001100000000000000000000000000000036
:1059600000000008888111102222044440888844E5
:1059700044088881111022220444408888111102B1
:10598000222044440888811110222204444888803F
:10599000F0E1FFFFFFFF022220444408888111103C
:1059A000222204444088881111022220444408889D
:1059B0008111102222000000000000000000000001
:1059C0000000000000000011110222204444088859
:1059D0008111108888111102222044440888811105
:1059E00010222204444088881111022220444408D5
:1059F00088844440E0ABFFFFFFFF01111022220426
:105A000044408888111102222044440888811110E2
:105A10002222044440888811110000000000000088
:105A20000000000000000000000000088881111044
:105A3000222204444088884444088881111022228C
:105A400004444088881111022220444408888111AE
:105A50001022220444488880F0E1FFFFFFFF022269
:105A6000204444088881111022220444408888116F
:105A700011022220444408888111102222000000D3
:105A80000000000000000000000000000000001105
:105A900011022220444408888111108888111102C3
:105AA000222044440888811110222204444088881E
:105AB000111102222044440888844440E0ABFFFFD7
:105AC000FFFF00001000020000400008000100007D
:105AD00020000400008000100002000040000800C8
