:020000040800F2
:10780000785634120C01000001000000AAAAAAAAAE
:020000040800F2
:10800000D0CC0020B9820008758500087D85000865
:10801000858500088D850008958500080000000012
:10802000000000000000000000000000A58500081E
:108030009D85000800000000AD850008AD870008A0
:10804000B5850008BD850008C5850008CD850008F8
:10805000D5850008DD850008E5850008ED85000868
:10806000C7150108D5150108058600080D8600080A
:10807000158600081D860008258600082D86000844
:10808000358600083D860008458600084D860008B4
:10809000558600085D860008658600088D8F0008FB
:1080A0006D860008758600087D86000885860008B4
:1080B000878600088F860008978600089F8600083C
:1080C000A7860008AF860008B7860008BF860008AC
:1080D000C7860008E7860008EF860008F7860008D4
:1080E000DF860008CF860008D786000807870008CB
:1080F0000F870008178700081F87000827870008D8
:108100002F870008378700083F8700084787000847
:108110004F870008578700085F87000867870008B7
:108120006F870008778700087F8700088787000827
:1081300000F002F800F0B0F80AA090E8000C8244C9
:108140008344AAF10107DA4501D100F0A5F8AFF2A6
:10815000090EBAE80F0013F0010F18BFFB1A43F025
:1081600001031847A4200100C42001000A444FF075
:10817000000C10F8013B13F0070408BF10F8014B86
:108180001D1108BF10F8015B641E05D010F8016BCB
:10819000641E01F8016BF9D113F0080F1EBF10F82F
:1081A000014BAD1C0C1B09D16D1E58BF01F801CB52
:1081B000FAD505E014F8016B01F8016B6D1EF9D5D5
:1081C0009142D6D3704700000023002400250026EA
:1081D000103A28BF78C1FBD8520728BF30C148BF2A
:1081E0000B6070476E290CF0208170290CF08182A1
:1081F000662911F07C81652911F07981672911F0D8
:1082000076816129AFF3008003681B0A28BF41F023
:10821000800169290BF09C8564290BF099857529EB
:108220000BF096856F290CF00E8278290CF04D82A8
:10823000E9290CF0A981E4290CF0A681F5290CF0BC
:10824000A381EF290CF00B82F8290CF04C82036813
:10825000DB0928BF41F0800163290CF02A817329D2
:108260000CF02F81E3290CF08885F3290CF08D8523
:10827000002070471FB50BF0E3FF04000020002131
:108280000FF0FCFF401C60600020002110F00CF893
:10829000E0601FBD10B510BD0CF0A5FF1146FFF743
:1082A000E9FF00F077FA0DF0F1FA03B4FFF7F2FFFF
:1082B00003BC0DF01FFD00000348004703480449BC
:1082C000024A044B7047000031810008D08C002026
:1082D000D0CC0020D08C002008B54FF4004108031A
:1082E0000EF0A0FC4FF440700EF092FC25208DF8AB
:1082F000000000208DF8010001208DF80300684681
:108300000EF04CFC34208DF8000001208DF80100A7
:108310008DF8030068460EF041FC08208DF800003F
:1083200002208DF8010001208DF8030068460EF050
:1083300035FC09208DF8000003208DF80100012094
:108340008DF8030068460EF029FC17208DF8000018
:1083500004208DF8010001208DF8030068460EF01E
:108360001DFC08BD10B50EF0B5FC4FF480300EF0CA
:1083700043FD00BF31200EF015FD0028FAD000208B
:108380000EF030FD00200EF061FD4FF480600EF025
:1083900053FD4FF480400EF04FFC01206E49086001
:1083A0004FF4E01100040EF061FD01200EF058FDC5
:1083B00000BF39200EF0F6FC0028FAD002200EF0A3
:1083C0005FFD00BF0EF006FD0828FBD10121C002B1
:1083D0000EF060FC0121C8040EF044FC01214802AB
:1083E0000EF058FC01213D200EF054FC01218803C1
:1083F0000EF038FC012108460EF028FC0121022075
:108400000EF024FC012140200EF020FC0121480741
:108410000EF028FC42F227300EF0B1FD01200EF0E4
:10842000A2FD01214FF0C0500EF01CFC10BD10B594
:108430004A480EF0CDFA4A480EF0CAFA49480EF002
:10844000C7FA49480EF0C4FA10BD1CB50921022034
:108450000EF00EFB4FF40070009000208DF8040029
:1084600010208DF8050001208DF8060068460EF0FA
:1084700021FA082100200EF0FBFA4FF480700090E2
:1084800000208DF8040010208DF8050001208DF8E3
:10849000060068460EF00EFA022100200EF0E8FAFF
:1084A0000420009000208DF8040010208DF80500B5
:1084B00001208DF8060068460EF0FCF9032100202B
:1084C0000EF0D6FA0820009000208DF8040010204D
:1084D0008DF8050001208DF8060068460EF0EAF9D7
:1084E0001CBD1FB50EF002F968460EF027F90020FA
:1084F00000900190039069460EF004F901210020DC
:108500000EF0E6F8002108460EF010F91FBD10B578
:1085100000214FF400600EF0A5FB0EF0CFFDFFF739
:1085200021FFFFF784FFFFF790FFFFF7D5FE00F074
:1085300067F9FFF7D6FF03F098FF01F021FB05F084
:10854000BFF800F01DFD012102200EF0FDF8012111
:1085500008020EF0F9F810BD0020024000080140AA
:10856000000C014000100140001401400120884926
:108570000860704710B5FFF7F9FF10BD10B5FFF7A1
:10858000F5FF10BD10B5FFF7F1FF10BD10B5FFF7F7
:10859000EDFF10BD10B5FFF7E9FF10BD10B5FFF7F7
:1085A000E5FF10BD10B5FFF7E1FF10BD10B5FFF7F7
:1085B000DDFF10BD10B5FFF7D9FF10BD10B5FFF7F7
:1085C000D5FF10BD10B5FFF7D1FF10BD10B5FFF7F7
:1085D000CDFF10BD10B5FFF7C9FF10BD10B5FFF7F7
:1085E000C5FF10BD10B5FFF7C1FF10BD10B5FFF7F7
:1085F000BDFF10BD10B5FFF7B9FF10BD10B5FFF7F7
:10860000B5FF10BD10B5FFF7B1FF10BD10B5FFF7F6
:10861000ADFF10BD10B5FFF7A9FF10BD10B5FFF7F6
:10862000A5FF10BD10B5FFF7A1FF10BD10B5FFF7F6
:108630009DFF10BD10B5FFF799FF10BD10B5FFF7F6
:1086400095FF10BD10B5FFF791FF10BD10B5FFF7F6
:108650008DFF10BD10B5FFF789FF10BD10B5FFF7F6
:1086600085FF10BD10B5FFF781FF10BD10B5FFF7F6
:108670007DFF10BD10B5FFF779FF10BD10B5FFF7F6
:1086800075FF10BD704710B5FFF770FF10BD10B536
:10869000FFF76CFF10BD10B5FFF768FF10BD10B5F8
:1086A000FFF764FF10BD10B5FFF760FF10BD10B5F8
:1086B000FFF75CFF10BD10B5FFF758FF10BD10B5F8
:1086C000FFF754FF10BD10B5FFF750FF10BD10B5F8
:1086D000FFF74CFF10BD10B5FFF748FF10BD10B5F8
:1086E000FFF744FF10BD10B5FFF740FF10BD10B5F8
:1086F000FFF73CFF10BD10B5FFF738FF10BD10B5F8
:10870000FFF734FF10BD10B5FFF730FF10BD10B5F7
:10871000FFF72CFF10BD10B5FFF728FF10BD10B5F7
:10872000FFF724FF10BD10B5FFF720FF10BD10B5F7
:10873000FFF71CFF10BD10B5FFF718FF10BD10B5F7
:10874000FFF714FF10BD10B5FFF710FF10BD10B5F7
:10875000FFF70CFF10BD10B5FFF708FF10BD10B5F7
:10876000FFF704FF10BD10B5FFF700FF10BD10B5F7
:10877000FFF7FCFE10BD10B5FFF7F8FE10BD10B5F9
:10878000FFF7F4FE10BD10B5FFF7F0FE10BD0000BE
:108790000000002010B5FFF7BAFE01200EF0D1FB5B
:1087A00003F0C2FB0AF058FF002010BD10B51048BE
:1087B000006820B10E480068401E0D4908600D4851
:1087C000006820B10B480068401E0A4908600A484A
:1087D000006820B108480068401E07490860074843
:1087E0000068401C0549086003F0D2FC10BD000081
:1087F000040000200C0000201000002008000020D1
:1088000000B587B02B480DF0BBFE0220ADF8180074
:1088100000208DF81B0006A927480EF03DF9002026
:1088200001908DF808008DF809004FF46020039046
:108830000020049001208DF8140001A91D480DF0BE
:10884000D5FE01211B480DF091FE1A480DF02CFFBA
:1088500000BF18480DF0C3FE0028FAD115480DF0EE
:1088600032FF00BF13480DF0A9FE0028FAD10523FE
:10887000012211460F480DF0DDFE07B000BD024693
:108880000E4900E0091D48889042FBDB08787047DC
:1088900010B50446012107480DF00BFF00BF02216F
:1088A00004480DF095FE0028F9D002480DF08DFE29
:1088B00010BD00000024014000080140EE950108B1
:1088C00010B50446207800F07BFB40B1607840F0A2
:1088D000020060702078002100F08FFC03E06078D7
:1088E00020F00200607010BD0121FE4800220270DD
:1088F00005E070300170002282704A1CD1B2042958
:10890000F7DB704710B50446207804F1420100F00F
:1089100087FE10BD2DE9F04104460F4615461E4660
:10892000F14850F82400B84206D03946204600F0FD
:1089300087FDED4840F82470EC4850F82400A84228
:1089400006D02946204600F0C2FDE84840F82450F1
:10895000E74850F82400B04206D03146204600F0E7
:1089600014FEE34840F82460BDE8F0812DE9F047AB
:1089700006460D46C6EBC600DA4901EB0014062D8B
:1089800052D2DFE805F003510A1118502078D4E9DB
:108990000C23E16AFFF7BEFF48E02078D4E90C23FE
:1089A000E16AFFF7B7FF41E020780123D4E90B1219
:1089B000FFF7B0FF3AE0CF4890F8980760B3CD4892
:1089C000D0F8600750F8882F416810460FF004FF78
:1089D000B0F1000901DB484601E0C9F1000007469B
:1089E000C448D0F8600750F8902F416810460FF047
:1089F000F3FEB0F1000901DB484601E0C9F10000D7
:108A00008046B84500DAB84640F28A23BA4A414661
:108A10000320FFF77FFF05E020780123D4E90B1244
:108A2000FFF778FF02E001E0BDE8F08700BFC6EB8A
:108A3000C600AC4901EB0010857000BFF4E770B5CB
:108A40000546C5EBC500A74901EB00142046FFF71A
:108A500059FF6068606100212846FFF787FF2046C4
:108A600001F064F870BDF8B5044600252078694629
:108A700000F011FEBDF8000000F0080060B12078A1
:108A800004F1200100F06CFC20784FF6F77100F043
:108A9000F2FD012084F82400A078042824D1BDF838
:108AA000000000F0040000281DD12078002204F10D
:108AB000140100F0EDFE04F11401204600F01EFF49
:108AC0002078D4E90C23E16AFFF724FF20784FF6E1
:108AD000BF7100F0D0FD0020A0702078401E012161
:108AE00001FA00F0054365E0BDF8000000F0400029
:108AF00000285FD020784FF6BF7100F0BCFD2178D0
:108B0000012088407D49B1F900100840B0B1002033
:108B1000A0702078002204F1140100F0B9FE04F1E5
:108B20001401204600F0EAFE2178012088407349B4
:108B30000988814308B2714908803BE0BDF8000014
:108B400000F0030078BB20780022211D00F0A0FE79
:108B5000A078012802D10020A0702BE004F11401BC
:108B6000204600F0CBFE70B12078D4E90C23E16AF6
:108B7000FFF7D0FE2278521E0123934099B220784D
:108B800000F087FB16E00020A0702078401E012135
:108B900001FA00F0054394F86D0058B120780021E7
:108BA00000F00BFB06E0FFE72078401E012101FAF0
:108BB00000F00543BDF8000000F00300A0B12078EC
:108BC0004FF6FC7100F057FD2046FFF79BFE207822
:108BD000002204F1140100F05BFE04F114012046B0
:108BE00000F08CFE0020A0702846F8BD10B50246AB
:108BF000C2EBC2003B4C04EB00110023487800F0AC
:108C00000700072801D1002010BD487800F00100BE
:108C100058B1487800F0020028B1487800F004000C
:108C200088B981230FE003230DE00878012804D0E0
:108C3000022803D0032805D102E000BF012301E090
:108C4000072300BF00BF1846DEE710B52C480068B8
:108C5000FFF709FF10BD70B504460D46C4EBC40113
:108C6000204A02EB0110294600F048FE28B10221FB
:108C70002046FFF77BFE012070BD0020FCE7F8B521
:108C800006460D46C6EBC600164901EB001415B9A1
:108C9000A078042844D1A078042822D00DB3A0786D
:108CA00001281AD120780123134A1649FFF732FE12
:108CB000207800F091FC00BF0DF056FF2078694647
:108CC00000F0E9FCBDF8000000F004000028F3D13A
:108CD00020784FF6BF7100F0CEFC04213046FFF73C
:108CE00045FE11E0A8010020780300208803002041
:108CF00098030020600B0020808D5B002000002086
:108D00001C000020400D0300A078042808D1207822
:108D1000294600F034FB207804F1540100F053F9A7
:108D2000F8BD10B5754C00BF7034A07878B12078CC
:108D300000F064FC2078002204F1140100F0A8FD8A
:108D400004F11401204600F0D9FD0020A070207825
:108D50000428E9DB10BD10B5684C00BF7034A07862
:108D600070B1207800F038FCA078042808D0217871
:108D70000120884062490988084300B260490880A0
:108D800020780428EADB10BD70B505460C46C5EB1B
:108D9000C5015A4A02EB01112068896B48432060E3
:108DA000206800EBD071491021602146284600F070
:108DB0005AFE40B270BD10B50A6852000A600A68D7
:108DC000002A21DDC0EBC0024C4B03EB0212926B78
:108DD000002A0CDDC0EBC003484C04EB03139A6B74
:108DE00002EBD2730C6804EB63030B602DE0C0EB65
:108DF000C003424C04EB03139A6B02EBD2730C6872
:108E0000A4EB63030B6020E0C0EBC0023B4B03EB21
:108E10000212926B002A0CDAC0EBC003374C04EB51
:108E200003139A6B02EBD2730C6804EB63030B60C1
:108E30000BE0C0EBC003314C04EB03139A6B02EB65
:108E4000D2730C68A4EB63030B60C0EBC0032B4C24
:108E500004EB03130A689B6B92FBF3F20A6010BDEC
:108E60002DE9F04104460D46164601272548007AB3
:108E700053280AD132462946204600F009FD47B260
:108E800029462046FFF797FF1AE0C4EBC4001B49B0
:108E900001EB0010806B002807DAC4EBC40001EB83
:108EA000001040694042286006E0C4EBC40013494A
:108EB00001EB00104069286029462046FFF77BFF40
:108EC0003846BDE8F08110B503460C490122002068
:108ED00000BF703102EA03042CB14C7804F007049F
:108EE000072C00D1104452000C78032CF1DB10BD8C
:108EF0000146487800F0800070470000A80100207B
:108F000020000020600B00200020FD49C870FD49B2
:108F1000C870FD49C860FD49C860FD49C870FD4979
:108F2000C8600021FC48C0F85C11704710B54FF4D0
:108F30000071FA480DF000FE30B1F148C07820F021
:108F40000100EF49C87005E0ED48C07840F001002D
:108F5000EB49C87010BD10B54FF48071F0480DF0AA
:108F6000EBFD30B1E648C07820F00200E449C8705B
:108F700005E0E348C07840F00200E149C87010BD48
:108F800010B5FFF7D3FFFFF7E6FF10BD10B54FF4A4
:108F900000700DF085FC012805D1FFF7C7FF4FF4E5
:108FA00000700DF077FC4FF480700DF079FC012813
:108FB00005D1FFF7D0FF4FF480700DF06BFC10BDB2
:108FC0000146012070470246D6480068086001202B
:108FD000704700B503460A46002010601846FFF7A8
:108FE000EFFF08B9002000BD03EB4300CE4951F864
:108FF000200010600120F6E72DE9F04707460C46F7
:10900000CA4890F81008A0B1C848D0F80808002154
:10901000E317A0FB048601FB046100FB03114CF283
:109020005032002340460AF0E0FD05462846BDE8E0
:10903000F087012F04D0022F03D0032F1DD10EE0A3
:1090400000BF20460FF025FC05460E46B84AB94B36
:10905000284631460FF084FC05460E460DE02046BA
:109060000FF017FC05460E46B34AB44B284631466E
:109070000FF076FC05460E4600BF00BF284631467D
:109080000FF0AAFBD3E72DE9F04707460C46A748A7
:1090900090F8100880B1A548D0F808584CF250302C
:1090A00084FB008001462A46002340460AF09DFDCD
:1090B00006463046BDE8F087012F04D0022F03D0CA
:1090C000032F1DD10EE000BF20460FF0E2FB054646
:1090D0000E46974A974B284631460FF0E9F9054668
:1090E0000E460DE020460FF0D4FB05460E46924A90
:1090F000924B284631460FF0DBF905460E4600BF7D
:1091000000BF284631460FF067FBD3E770B5054630
:109110000C46864890F8100818B109F00DFC206044
:1091200015E00120864908700020864908600A463B
:109130008349012004F0A1F982480068206020687A
:1091400000F4001018B18049206808432060012015
:1091500070BD70B505460C46002020602846FFF71C
:109160002FFF08B9002070BDC5EBC5006A4901EBAF
:109170000010807848B121462846FFF7C7FF2846EF
:109180002168FFF780FF206003E05F4850F825006A
:1091900020600120E7E700B503460A461846FFF7BE
:1091A0000FFF08B9002000BD032B02D10020108062
:1091B00001E0002010800120F5E700B502460B46D3
:1091C0001046FFF7FDFE08B9002000BD0120FCE7B6
:1091D0000146032901D1012070470020FCE7014628
:1091E0000120704700B502460B461046FFF7E8FE27
:1091F00008B9002000BD0120FCE700B502460B467F
:109200001046FFF7DDFE08B9002000BD0120FCE795
:10921000002006E000214A4A11544C4A42F820102E
:10922000401C0128F6DB704738B505460C46364829
:1092300040F8254021462846FFF7DEFE04463B481D
:1092400090F8100848B114F5000F00DA404CB4F55E
:10925000000F0BDB3E4CE44308E014F5001F00DA7E
:109260003C4CB4F5001F01DB3A4CE4436946284608
:10927000FFF74CFF0098844203DD01202449485544
:1092800002E0002022494855204840F825400120AE
:1092900038BD70B504460D46244890F8100858B102
:1092A0001A4951F8240009F07EF91548005D40F094
:1092B00004001349085521E0FFF7AAFF1448005D98
:1092C00040F068002449095D1D4A50540F4850F889
:1092D00024002149095D1D4A42F821001849012056
:1092E00003F052F81C48005D1C4951F8200040F082
:1092F00060001949095D194A42F82100012070BD3A
:10930000280000202C000020D8030020E8030020C3
:1093100030000020F8030020A801002000100140C8
:109320000008014008000020A8030020600B002076
:1093300070BF3C97BBACB63FFCA9F1D24D62C03FB9
:1093400088000020900000200000C0FF8C0000205A
:10935000000080FF0000E0FF889601083400002034
:1093600000B503460A46002010601846FFF728FEA5
:1093700008B9002000BD002010600120FAE72DE9A7
:10938000FE4F04468946FE4890F8100870B14946E1
:109390002046FFF731FE8146484609F05CFBF9485C
:1093A000005D40F00400F749085547E0B9F1000FAF
:1093B0000DDA4FF40071F4480DF0BEFB10B9002037
:1093C000BDE8FE8F4FF0000AC9F1000909E04FF433
:1093D0008071EE480DF0B0FB08B90020F0E74FF0C7
:1093E000010A49462046FFF707FE814648460FF02E
:1093F000F1FE0290E249D1F8E0070FF033FF054695
:10940000294602980FF0E8FD029002980FF0B8FD8F
:109410000746DF4ADF4B0FF0A3FA0022DE4BCDE90F
:1094200000010EF089FF05460FF006FA8346DB497E
:10943000085D5B465246012104F02DF90120BFE78B
:109440002DE9FC5F82468B4659465046FFF7D4FD16
:1094500004460FF0BFFE0190C94890F8100898BB71
:10946000BAF1010F06D0BAF1020F04D0BAF1030F1E
:109470000FD107E000BF4FF0864101980FF0ACFD1F
:10948000019006E04FF0844101980FF0A5FD019096
:1094900000BF00BF01980FF073FD8046BC4AC04B6F
:1094A0000FF05EFA06460022BB4B0EF045FF044665
:1094B0000FF0C2F980B2B949009011F80A000722F2
:1094C0000121009B03F058FF0120BDE8FC9F2DE91E
:1094D000FC5F0446894649462046FFF78DFD8146DC
:1094E00048460FF077FE0190A54890F81008002834
:1094F00048D1012C04D0022C03D0032C0FD107E05B
:1095000000BF4FF0864101980FF066FD019006E024
:109510004FF0844101980FF05FFD019000BF00BF44
:1095200001980FF02DFD07469E4A9F4B0FF018FA49
:1095300082460022984B0EF0FFFE05460FF07CF9A4
:1095400080B296490090085D05220121009B03F03E
:1095500013FF01980FF014FD0746924A924B0FF04B
:10956000FFF9054600228C4B0EF0E6FE82460FF016
:1095700063F980B289490090085D06220121009BB1
:1095800003F0FAFE0120BDE8FC9F0246012070476F
:1095900010B504467A4890F81008A0B109F09CFA7A
:1095A000032008F0F1FF002009F014F8002008F073
:1095B000FAFF002008F0E8FF0021714880F8151834
:1095C000C0F80C1806E07549085D0023C02201218F
:1095D00003F0E5FF012010BD10B50446684890F87F
:1095E000100810B109F078FA06E06C49085D002314
:1095F000B022012103F0D3FF012010BD10B50446B5
:109600005F4890F8100810B109F066FA06E0634967
:10961000085D0023B822012103F0C1FF012010BD25
:1096200070B505460C46002020702846FFF7C8FCA0
:1096300008B9002070BD00202070514890F8100833
:1096400018B109F05DF9207013E04FF400714E4835
:109650000DF072FA18B9207840F0010020704FF434
:1096600080714A480DF068FA18B9207840F002007D
:1096700020700120DEE700B502460B461046FFF7DA
:109680009FFC08B9002000BD3E48805C18403D4961
:1096900088540120F7E72DE9F04105460F460020E8
:1096A00038802846FFF78CFC10B90020BDE8F08117
:1096B0003448445D324890F81008F8B1C5EBC50055
:1096C0003A4901EB00108078012839DD2C4890F8E8
:1096D000150838B909F028F990B324F0040444F0CF
:1096E00040042DE02648D0F80C0848BB09F077F973
:1096F00030BB24F0040444F0400421E02C49012054
:1097000003F081FF2548405D2A4951F82080234815
:10971000405D274951F8206088EA060000F06000AB
:1097200048B106F0600020B924F0040444F040047D
:1097300001E044F004041948405D1E4941F82060EE
:1097400010494C553C800120B0E710B501246FE072
:109750002046FFF73DFD78B3C4EBC400134901EB8D
:109760000010407840F00400C4EBC4010F4A02EB43
:1097700001114870C4EBC400114601EB00101CE05D
:10978000600B00202800002000100140000801406C
:109790008DEDB5A0F7C650400000E03F8896010867
:1097A000F7C6B03F11EA2D819997B13FA80100207B
:1097B000380000203400002011E0407840F0020022
:1097C000C4EBC40102EB01114870C4EBC40002EB0E
:1097D000001000F164012046FFF7DDFC26E0C4EB39
:1097E000C400E44901EB0010407820F00400C4EB11
:1097F000C401E04A02EB011148700020C4EBC4012F
:1098000002EB01114870C4EBC40102EB0111486086
:109810000120C4EBC40102EB0111886240F2FF3069
:10982000C4EBC40102EB0111A1F86400601CC4B2D6
:10983000042C8DDB10BDF0B506460C461746C6EB72
:10984000C600CC4901EB001500202060687800F0CC
:109850008000802806D0687800F00700072801D033
:109860000020F0BD21463046FFF7B3FB77B92068F2
:109870002969401A2060B5F95010206848432060DB
:109880002068C11700EB9171891021600120E8E781
:109890002DE9F04107460D461646C7EBC700B5490E
:1098A00001EB0014607800F08000802808D0607818
:1098B00000F00700072803D000202860BDE8F081F1
:1098C000452E03D1607800F0080028B9532E09D046
:1098D000607800F0100028B1002229463846FFF7D2
:1098E000AAFF07E020782946FFF733FC2868E168E3
:1098F000401A2860286860600120DFE7FEB5044652
:109900000E46607800F0100000287FD0A078012873
:1099100016D120780123984A9849FEF7FBFF20785A
:10992000FFF75AFE00BF0DF01FF920786946FFF7D8
:10993000B2FEBDF8000000F004000028F3D1A070D2
:10994000207801A9FFF745FB20690199081A0190C9
:109950003068C0000290B4F95000029991FBF0F019
:1099600002900298002803DA0298401E029002E05A
:109970000298401C0290029800EBD07149100291AD
:10998000DDE90110451A281E01DB014600E04142D5
:10999000B4F86020914201DC0020FEBDB4F9500013
:1099A00045432846E91705EB91718D102046FEF7D7
:1099B000A9FF94F84200F0B194F8420000F00100D1
:1099C00048B1002D17DA2078002204F11401FFF7C6
:1099D0005FFF0020E1E794F8420000F0020050B180
:1099E000002D08DD2078002204F11401FFF750FF5C
:1099F0000020D2E70AE00DB90020CEE7207802A9C6
:109A0000FFF7A7FB02982844029026E02046FEF7C5
:109A100079FF94F8420000F0010028B130686168D5
:109A200088420CDA0020B8E794F8420000F0020007
:109A300028B130686168884201DD0020ADE73068F8
:109A4000E1680844029030686060A0680299451A95
:109A50000DB90020A1E70298A06020780299FFF7D5
:109A6000E3FB284699E7F8B507460E46C7EBC70063
:109A7000404901EB0014607800F00700072804D08B
:109A8000607800F0800080284ED1607800F00800F7
:109A900070B369463846FFF79CFA3068C500B4F9E0
:109AA000500095FBF0F5002D01DD6D1C00E06D1EF2
:109AB000284605EBD0714D100098401B009021699D
:109AC000A0690844A061009820612169A069401A3A
:109AD000A061E168E0690844E06160683168401AAB
:109AE000E1680844E060E168E069401AE06115E07F
:109AF000E168A0690844A061E168E0690844E061A8
:109B000060683168401AE1680844E060E168E06933
:109B1000401AE061E168A069401AA06130686060A5
:109B2000306860610120F8BD0020FCE70021816001
:109B3000417801F01001102918D14168C90049424B
:109B40000161B0F95020016991FBF2F101610169F5
:109B5000002903DD0169491C016102E00169491E18
:109B60000161016901EBD172521002614168494201
:109B7000C1607047A8010020808D5B00400D03008C
:109B800008B5C020ADF8000048208DF803006946F4
:109B90007E480CF081FF3020ADF8000048208DF8A1
:109BA000030069467A480CF077FF0320ADF8000007
:109BB00048208DF80300694676480CF06DFFC02000
:109BC000ADF8000048208DF80300694670480CF09D
:109BD00063FF08BD70490878097800216E4A11704A
:109BE00070476E490878097800216C4A11707047F7
:109BF0006B480078C04380B2704710B504462079A6
:109C000060B96848006820B167A1022008F064F8D4
:109C10001EE066A1022008F05FF819E02079012813
:109C200011D1A0680AF058FA5E4908600846006839
:109C300008B1012000E000205A4908605BA1022021
:109C400008F04AF804E094F83800042103F0C6FF55
:109C500010BD70B5564801685648006814308142FE
:109C600000D270BD5248006852490860002440216B
:109C700046480CF061FF08B944F0010480214348D4
:109C80000CF05AFF08B944F00204102140480CF0CF
:109C900053FF08B944F0040420213D480CF04CFF68
:109CA00008B944F0080401213A480CF045FF08B90E
:109CB00044F01004022137480CF03EFF08B944F08C
:109CC0002004402132480CF037FF08B944F040042A
:109CD00080212F480CF030FF08B944F08004304850
:109CE000007884EA00058DB105EA04002A49097864
:109CF0000843294908702A49097805EA01002749DB
:109D000009780843254908702548047025480068EB
:109D100090BB2248007800F0800038B12649D1F885
:109D200060170978491CC8B205F030F81B48007864
:109D300000F0400078B1204890F8980718B1002052
:109D400005F048F907E01C4890F89907022802D16D
:109D5000012005F03FF91148007800F0100058B1DB
:109D6000154890F8A80708B9012000E00020124922
:109D700081F8A80707F0E6FC0020074908700749AA
:109D8000087000BF6DE70748007870470008014081
:109D900000100140000C014045000020460000205A
:109DA0004400002048000020310D0000300D00006C
:109DB0000800002040000020600B002010B5044681
:109DC000F7A1204607F088FF10BD2DE9F8430446AF
:109DD0000D4600200090681E012101FA00F70026C0
:109DE0002079002835D001283FD1A0680678452E7B
:109DF0002ED0532E2CD03846FFF765F838B9C5EB76
:109E0000C501E84A02EB0110FFF772F8B0B138461D
:109E100009F08FFD60B1A0680AF05EF90090694614
:109E20002846FEF7B1FF94F83800FFF7C7FF0EE0B1
:109E300094F83800022103F0D1FE08E02846FEF72E
:109E4000D5FE804694F83800414603F0C7FE12E084
:109E500000BF324669462846FFF702F894F83800FA
:109E6000D1A1009A07F038FF05E094F838000421EA
:109E700003F0B4FE00BF00BFBDE8F88310B5044690
:109E800001212046FFF7A1FF10BD10B504460221B5
:109E90002046FFF79AFF10BD10B504460321204667
:109EA000FFF793FF10BD2DE9FE4304460D4616460D
:109EB000681E012101FA00F7207910B101280DD1A7
:109EC00007E0C5EBC500B74901EB0010806A0290BE
:109ED0000BE0A0680AF000F9029006E094F8380060
:109EE000042103F07BFEBDE8FE8300BF3846FEF789
:109EF000EAFFF8B1002E02DA02984042029038469A
:109F000009F017FD58B12B4602AA0121084604F0BA
:109F1000D7F894F83800394609F0CFFC13E0002058
:109F20000090019094F8380006223946029B07F011
:109F300057F808E02846FEF759FE804694F83800A6
:109F4000414603F04BFE00BFCDE710B504460122A9
:109F500011462046FFF7A7FF10BD10B504464FF08D
:109F6000FF3201212046FFF79EFF10BD10B50446C9
:109F7000012202212046FFF796FF10BD10B50446CE
:109F80004FF0FF3202212046FFF78DFF10BD10B5C4
:109F90000446012203212046FFF785FF10BD10B5BE
:109FA00004464FF0FF3203212046FFF77CFF10BD2F
:109FB00070B504460D462079F0B101283ED1042D3C
:109FC0000BDAA0680AF088F840004042C5EBC501F2
:109FD000744A02EB0111886309E0A0680AF07CF87A
:109FE0004000C5EBC5016F4A02EB0111886394F88C
:109FF0003800FFF7E3FE27E0042D10DAC5EBC500BB
:10A00000684901EB0010806B6FF0010190FBF1F6E5
:10A0100094F83800324664A107F05EFE0DE0C5EB0F
:10A02000C500604901EB0010866B06EBD6714A1043
:10A0300094F838005CA107F04FFE05E094F8380072
:10A04000042103F0CBFD00BF00BF70BD10B5044676
:10A0500001212046FFF7ACFF10BD10B504460221D8
:10A060002046FFF7A5FF10BD10B50446032120468A
:10A07000FFF79EFF10BD2DE9F04104460F46207901
:10A0800070B3012817D002284BD1E0680AF024F8F9
:10A0900005462FB14348C0F8B850C0F8285104E035
:10A0A0004048C0F8BC50C0F82C51A06800783F2848
:10A0B00000D13CE000BFA0680AF00EF8C6B22FB194
:10A0C000384880F8B36080F8236104E0354880F8B0
:10A0D000B46080F8246194F83800FFF76FFE26E042
:10A0E0002FB1304890F8B360D0F8B85004E02D4854
:10A0F00090F8B460D0F8BC5094F8380003F062FDDA
:10A10000012806D194F83800324628A107F0E4FD72
:10A1100006E094F838002B46324626A107F0DCFD15
:10A1200005E094F83800042103F058FD00BF00BF9B
:10A13000BDE8F08110B5044601212046FFF79BFFE2
:10A1400010BD10B5044600212046FFF794FF10BD56
:10A150002DE9F04104460F46207978B301280ED04E
:10A1600002284FD1E06809F0B7FF05461FB10D483E
:10A17000C0F8985102E00B48C0F89C5100BFA0689D
:10A1800009F0AAFFC6B21FB1064880F8936102E049
:10A19000044880F8946194F83800FFF70FFE37E028
:10A1A000300D0000A801002025640D0025640A0D73
:10A1B0000000000025642C25640D0000FFE72FB18E
:10A1C000FE4890F89361D0F8985104E0FB4890F86D
:10A1D0009461D0F89C5194F8380003F0F3FC012806
:10A1E00007D194F838003246AFF2400107F074FD11
:10A1F00007E094F838002B463246AFF2480107F0EA
:10A200006BFD05E094F83800042103F0E7FC00BF83
:10A2100000BFBDE8F08110B5044601212046FFF7DC
:10A2200097FF10BD10B5044600212046FFF790FFB0
:10A2300010BDFEB504460425207902282ED003283F
:10A2400031D1206909F048FF02902846FEF73BFE15
:10A25000D0B1284609F06DFB58B1032302AA0121B1
:10A26000002003F02DFF94F83800294609F025FB63
:10A2700013E000200090019094F83800092229464C
:10A28000029B06F0ADFE08E00320FEF7AFFC064699
:10A2900094F83800314603F0A1FC0AE094F8380045
:10A2A000FFF78CFD05E094F83800042103F096FCDC
:10A2B000FEBD00BF00BFFBE72DE9F0418AB00446B8
:10A2C0000E4600251C2103A809F04FFF2079022823
:10A2D00007D0032806D10425206909F0FDFE05906A
:10A2E00000BF07E094F83800042103F077FC0AB0BF
:10A2F000BDE8F08100BF2846FEF7E5FD0546FDB14B
:10A30000284609F016FB58B12B4603AA0121304616
:10A3100003F060FE94F83800294609F0CEFA18E000
:10A320000EB1052700E00727DDE90401CDE90001B2
:10A3300094F838003A462946039B06F051FE08E09F
:10A34000E8B2FEF753FC804694F83800414603F02B
:10A3500045FC00BFCBE710B5044601212046FFF7BE
:10A36000ABFF10BDFEB504460020009001900290A6
:10A3700000262079022808D003283CD146F00406A4
:10A38000206909F0A9FE029000BF46F00306E068CC
:10A3900009F0A2FE0190A06809F09EFE00903046F0
:10A3A000FEF791FD0646E6B1304609F0C2FA90B1DB
:10A3B000002508E06A4602EB85016A1CD0B2FEF770
:10A3C000E3FC681CC5B22079A842F3DC94F838009D
:10A3D000FFF7F4FC0EE094F83800022103F0FEFBD6
:10A3E00008E00120FEF702FC074694F838003946E1
:10A3F00003F0F4FB05E094F83800042103F0EEFBD1
:10A4000000BF00BFFEBD38B5044600252079E8B185
:10A4100001280ED0032825D16948007A532803D19A
:10A420002046FFF79FFF03E094F83800FFF7C6FCD3
:10A430001EE0A0680578452D07D0532D05D094F86F
:10A4400038000A2103F0CAFB12E000BF2A46694621
:10A450000320FEF705FD94F838005AA1009A07F092
:10A460003BFC05E094F83800042103F0B7FB00BF83
:10A4700000BF38BDF8B504460020009004255048C0
:10A48000007A532804D094F83800FFF797FCF8BD01
:10A49000207948BB2846FEF716FD0546474890F848
:10A4A000510100F0800008B145F0040595B128463F
:10A4B00009F03FFA40B169460320FEF765FC94F8C5
:10A4C0003800FFF77BFC0EE094F83800022103F01F
:10A4D00085FB08E00120FEF789FB064694F838006A
:10A4E000314603F07BFB05E094F83800042103F0CB
:10A4F00075FB00BF00BF00BFC9E7FEB504460425D9
:10A50000207950BB002002902846FEF7DCFCD0B139
:10A51000284609F00EFA58B1032302AA01210020AF
:10A5200003F0CEFD94F83800294609F0C6F913E08F
:10A5300000200090019094F8380009222946029BDF
:10A5400006F04EFD08E00320FEF750FB064694F8A7
:10A550003800314603F042FB05E094F8380004214E
:10A5600003F03CFBFEBD00BF00BFFBE71CB504468B
:10A5700094F8380015A107F0AFFB1FA021A1CDE989
:10A58000001094F838000C23012221A107F0A4FB4D
:10A590001CBD10B5044694F8380025A107F09CFBBB
:10A5A00094F8380016A107F097FB0020274908818E
:10A5B000801E0CF0C6FC00204AE00000A80100202C
:10A5C000600B0020302C302C25640D005072696F18
:10A5D0007220536369656E746966696320496E739E
:10A5E0007472756D656E7473204F70746953636116
:10A5F0006E204C460D00000031363A30353A343288
:10A60000000000004A616E203233203230323300C5
:10A6100056657273696F6E2025642E256420636F02
:10A620006D70696C65642025732025730D00000032
:10A63000456E746572696E672050726F6772616DE6
:10A640006D696E67206D6F64650D0000C08B002022
:10A650000CF089FCF948FA494860FA4848600CF067
:10A6600083FAF9480CF06CF9042813D10021400654
:10A670000CF0D8FA00200CF03DFD40200CF044FD19
:10A6800040200CF02FFD0121C8020CF0EBFA4F2006
:10A690000CF020FDED48006808B100BFFEE710BDDA
:10A6A0000446EBA1012007F017FB94F83800AFF245
:10A6B000105107F011FB0020E749888003F065FA8C
:10A6C0000020FEF765FF4FF47A70E449086001E06E
:10A6D0000CF04AFAE14800680028F9D100BFFEE713
:10A6E0000446DFA1012007F0F7FA94F83800AFF232
:10A6F000505107F0F1FA0020FEF74AFF4FF47A704C
:10A70000D649086001E00CF02FFAD4480068002810
:10A71000F9D100BFFEE710B5044694F838000C23C9
:10A720000122D2A107F0D8FA10BD38B504460020A6
:10A73000009094F838000C230122CEA107F0CCFA47
:10A7400038BD0146B1F5165F1BD00CDC392923D08A
:10A7500004DC132918D0262926D119E060290FD04E
:10A76000732921D11CE0B1F5964F0ED0B1F5164FEB
:10A770000FD0B1F5614F10D0B1F5E13F14D110E029
:10A7800000BF4FF41650704700BF4FF49640FAE7F1
:10A7900000BF4FF41640F6E700BF4FF46140F2E708
:10A7A00000BF4FF4E130EEE70020ECE770B504465F
:10A7B0002079002838D0022842D1A06809F08CFC0A
:10A7C0000546E06809F088FC064694F8380003F076
:10A7D000F9F901280ED115B1AA48C0F8985016B160
:10A7E000A848C0F8086194F83800AFF24C6107F04F
:10A7F00073FA18E02DB994F838000A2103F0EEF945
:10A8000011E02EB994F838000B2103F0E7F90AE0C3
:10A810009C48C0F89850C0F8086194F83800AFF22E
:10A82000806107F059FA11E09649D1F8083194F89F
:10A830003800D1F89820AFF2846107F04DFA05E0B6
:10A8400094F83800042103F0C9F900BF00BF70BDBF
:10A8500010B50446207960B1012814D1A06809F030
:10A860003BFC8849C1F8780194F83800FFF7A6FA54
:10A870000FE0844994F83800D1F87821AFF2B8217C
:10A8800007F02AFA05E094F83800042103F0A6F94D
:10A8900000BF00BF10BD2DE9F0410546002701268D
:10A8A00095F8380003F08EF9A0B1012825D1754C38
:10A8B00000BF7034A078012800DD3743760020788F
:10A8C0000428F6DB95F838003A46AFF2207107F01D
:10A8D00003FA12E06B4C00BF7034A078012800DD51
:10A8E0003743760020780428F6DB95F838003A469E
:10A8F000AFF22C3107F0F0F900BF00BFBDE8F081E6
:10A90000014611F8012B582A0AD004DC462A0DD042
:10A91000532A1ED11BE0592A04D05A2A19D103E028
:10A92000012070470220FCE70420FAE7087831286C
:10A9300004D0322804D0332806D103E01020F0E7F9
:10A940002020EEE70420ECE74FF4FC70E9E7032059
:10A95000E7E70020E5E72DE9F0410446002701255F
:10A96000207910B1012830D112E0464E00BF703678
:10A97000B078012800DD2F436D0030780328F6DB26
:10A9800094F838003A46AFF2C03107F0A5F923E059
:10A99000A068FFF7B5FF0546284608F0CAFF30B1AA
:10A9A00094F83800AFF6080107F096F90CE000E0E3
:10A9B0006D0805F001000028FAD094F838002A4606
:10A9C000AFF2FC3107F088F906E094F83800042172
:10A9D00003F004F9BDE8F08100BF00BFFAE7FEB55F
:10A9E00004460D46681E012101FA00F6207901286F
:10A9F00054D1A06809F070FB02903046FEF763FA6C
:10AA0000D0B1304608F095FF58B12B4602AA01217B
:10AA1000002003F055FB94F83800314608F04DFF54
:10AA20003BE000200090019094F838000922314664
:10AA3000029B06F0D5FA30E026E0000023016745CE
:10AA400000200240AB89EFCD0078000800780008B4
:10AA500052455345540D0000600B002004000020B7
:10AA6000524553544152540D0000000025642564A2
:10AA70000D0000004C462E25642E25642E25640D05
:10AA800000000000A80100202846FEF7AFF80746A6
:10AA900094F83800394603F0A1F805E094F838003E
:10AAA000042103F09BF8FEBD00BF00BFFBE710B51B
:10AAB000044601212046FFF792FF10BD10B5044661
:10AAC00002212046FFF78BFF10BD10B5044603217D
:10AAD0002046FFF784FF10BD10B50446FEF721F9AC
:10AAE00094F83800002108F0E8FE06F021FA10BDC5
:10AAF00010B50446FEF72FF994F83800002108F04D
:10AB0000DCFE06F015FA10BD2DE9F04107463C4683
:10AB100000252BE020782E2827D100202070641CEF
:10AB20002078302820DB207839281DDC14F8010B30
:10AB30003038642101FB005085B22078302813DBC7
:10AB40002078392810DC14F8010B30380A2101FB79
:10AB5000005085B22078302806DB2078392803DCC5
:10AB600020783038284485B203E0641C207800281F
:10AB7000D0D100BF384609F0AFFA4FF47A7100FB2C
:10AB800001F638782D2801D1761B00E02E4430469E
:10AB9000BDE8F081FEB507460D466C46002D03DA90
:10ABA0006D422D2004F8010BB5F57A7F03DA3020D1
:10ABB00004F8010B13E04FF47A7095FBF0F632467F
:10ABC000FEA1204609F05EF806EB4600C0EBC61079
:10ABD000A5EBC00500E0641C20780028FBD195B1EE
:10ABE0002E2004F8010B64260BE095FBF6F03030C4
:10ABF00004F8010B95FBF6F006FB10550A2096FBB6
:10AC0000F0F6002DF1D10D2004F8010B002020708A
:10AC10006946384607F060F8FEBD70B504462079F5
:10AC200002284ED1A0680078532823D1E068FFF7AE
:10AC30006BFF0546E2480068B0F9060045434FF453
:10AC4000FA7095FBF0F5022D04DA15F1020F01DD23
:10AC50006FF00105DB4800688563DA480068806BA7
:10AC6000D9490968886394F83800AFF6CC2107F019
:10AC700033F860E0A06800785A281CD1E068FFF73C
:10AC800043FF0646D1480068B0F9020046436420FD
:10AC900096FBF0F6022E03DA16F1020F00DD022613
:10ACA0007042CB490968886394F83800AFF61031D8
:10ACB00007F012F83FE094F838000A2102F08EFF06
:10ACC00039E02079012831D1A0680078532811D1CA
:10ACD000BC480068806B4FF4FA714843B849096872
:10ACE000B1F9061090FBF1F594F838002946FFF70A
:10ACF00051FF20E0A06800785A2811D1B4480068BC
:10AD0000806B404264214843B0490968B1F90210A0
:10AD100090FBF1F694F838003146FFF73BFF0AE06C
:10AD200094F838000A2102F059FF04E094F8380042
:10AD3000042102F053FF70BD1CB5044600200090B2
:10AD40000190207978B301281AD0022855D1A06843
:10AD500009F0C2F90090E06809F0BEF9019000988E
:10AD6000400041429B48C0F8A81001984000414271
:10AD70009848C0F8181194F83800FFF71FF842E01F
:10AD8000A06809F0A9F9009000984000414291485C
:10AD9000C0F8A810D0F8A810C0F8181194F838001E
:10ADA000FFF70CF82FE0FFE78A48D0F8A8004042F0
:10ADB00000908848D0F8180140420190009800EBBC
:10ADC000D07149100091019800EBD07149100191A8
:10ADD000DDE90001884208D094F83800AFF62C4134
:10ADE000DDE9002306F078FF06E094F83800AFF6BE
:10ADF0002801009A06F070FF05E094F8380004215D
:10AE000002F0ECFE00BF00BF1CBD70B50446714DE2
:10AE100070352079E8B994F8380032466EA106F012
:10AE20005BFF94F838006F490A886FA106F054FF61
:10AE30000BE02846FDF766FD95F842302A7894F835
:10AE400038006CA106F048FF703528780328F0DB45
:10AE500005E094F83800042102F0C0FE00BF00BFF6
:10AE600070BD2DE9F04106460024664D3079E0B909
:10AE70000DE0A006040E687800F00700072805D151
:10AE80002846FDF73FFD95F842000443703D2878C1
:10AE90000028EED1271104F00F0496F8380023465D
:10AEA0003A4659A106F018FF05E096F8380004214B
:10AEB00002F094FE00BF00BFBDE8F0812DE9F04F25
:10AEC00089B082460E4691469B4608F073FE0068A4
:10AED0009BF80010405C20286CD1584609F0FCF823
:10AEE000044600BF1298252865D0492804D0502870
:10AEF00003D0552860D111E000BF307B10B9C9F8EC
:10AF00002C400AE0307B012802D1C9F8304004E02F
:10AF1000307B022801D1C9F83440E5E0584609F0F9
:10AF2000DBF8C517044699F80000032818D1274814
:10AF30000068B0F90200C1172246A0FB023E01FBE7
:10AF400004E105FB00151C4605214FF0000C2246CC
:10AF5000A2FB010E05FB01E104FB0C15044610E009
:10AF600099F8000003280CDA15480068B0F90600CB
:10AF7000C1172346A0FB032E01FB04E105FB0015CE
:10AF8000144600210846611A75EB000003DA00221E
:10AF9000644262EB0505307B78B900217068001BC4
:10AFA000A94101DA002574683068201A75F10000A3
:10AFB0002FDA2DE0A0E04EE04CE02DE0256400000B
:10AFC0006C0100201800002014000020280100203F
:10AFD0001C000020A8010020414C4C203D20255899
:10AFE0000D00000022000020504F4C203D2025582D
:10AFF0000D00000041786973202564203D20256400
:10B000000D000000F8020020255825580D00000012
:10B010003468C9F82C401CE0307B01280FD1002196
:10B020007068001BA94101DA002574683068201A95
:10B0300075F1000000DA3468C9F8304009E0307B6F
:10B04000022806D1584609F047F8044649201290D4
:10B0500048E749E000BF584609F03EF8B168484368
:10B060006421B0FBF1F4002500217068001BA941A8
:10B0700000DA74683068201A75F1000000DA34686C
:10B08000307B10B9C9F82C4025E0307B012802D173
:10B09000C9F830401FE0307B02281CD1584609F027
:10B0A0001BF801900DF0F5FBCDE90401B0680DF03F
:10B0B00007FC0022FB4BCDE900010DF051FCCDE96E
:10B0C0000201DDE904230DF0F3F9CDE906010DF0ED
:10B0D000B3FBC9F834009AF83800AFF63C7106F0BB
:10B0E000FBFD09B0BDE8F08F00BF9AF83800AFF65D
:10B0F000507106F0F1FDE6E09BF8000025287DD0B8
:10B10000492805D0502802D055287CD114E000BF32
:10B11000307B18B90025D9F82C400CE0307B012891
:10B1200003D10025D9F8304005E0307B022802D158
:10B130000025D9F83440BDE0307B30B9D9F82C0077
:10B140000DF0BEFB0746884618E0307B012806D18B
:10B15000D9F830000DF0B4FB074688460EE0307B8E
:10B1600002280BD10025D9F834409AF8380022463D
:10B170002B46AFF6AC3106F0AFFDB2E799F8000010
:10B18000032818D10022C84B384641460DF090F9EB
:10B1900007468846C5490968B1F902000DF079FBF8
:10B1A00002460B46CDE90601384641460DF080F9CE
:10B1B0000746884613E099F8000003280FDABC49D7
:10B1C0000968B1F906000DF064FB02460B46CDE9B3
:10B1D0000601384641460DF06BF9074688460022C5
:10B1E0001346384641460DF07FFB01D288F00048F7
:10B1F0009AF838003A464346AEA101E004E002E086
:10B2000006F06AFD6DE700BF307BB8B90025D9F8BC
:10B210002C40B0684FF0640C002122460790A2FB3E
:10B220000C0E05FB0CE304FB0131CDE90401002306
:10B23000079A08F0DAFC04460D463AE0307B012814
:10B2400019D10025D9F83040B068079064204FF03C
:10B25000000C2246A2FB001E05FB00E004FB0C00D4
:10B26000CDE9041063460846079A059908F0BDFC2D
:10B2700004460D461DE0307B02281AD1D9F834006F
:10B280000DF01EFBCDE90401B0680DF019FB0022A2
:10B29000844BCDE900010DF063FBCDE90201DDE94E
:10B2A00004230DF005F9CDE906010EF0BFF80446C0
:10B2B0000D4600BF00BF9AF8380022462B46AFF675
:10B2C000F84106F009FD00BF0BE7F8B504460D464E
:10B2D0001646207920B101280BD002281CD111E09C
:10B2E000002076A33246294600902046FFF7E6FD6F
:10B2F00018E000200090324629462046A368FFF758
:10B30000DDFD0FE0E06800780090324629462046D7
:10B31000A368FFF7D3FD05E094F83800042102F09C
:10B320005DFC00BF00BFF8BD70B50446644800680E
:10B33000C56A6348634902682046FFF7C6FF604854
:10B340000068C06AA84205D05D480068C06A5E49CE
:10B350000968C86270BD10B504465B485949103190
:10B3600002682046FFF7B1FF10BD10B504465748EC
:10B370005449203102682046FFF7A7FF10BD10B5E1
:10B38000044694F83800FEF719FD10BD70B5044668
:10B390004B480068008E85B249484D4902682046F6
:10B3A000FFF793FF46480068006BA84205D0444869
:10B3B0000068006B44490968086370BD10B5044615
:10B3C00041484349103102682046FFF77EFF10BD17
:10B3D00010B504463D483E49203102682046FFF73B
:10B3E00074FF10BD10B5044694F83800FEF7E6FC73
:10B3F00010BD70B5044632480068456B3048354989
:10B4000002682046FFF761FF2D480068406BA842A4
:10B4100005D02B480068406B2B490968486370BD14
:10B4200010B5044628482B49103102682046FFF722
:10B430004CFF10BD10B5044624482649203102684F
:10B440002046FFF742FF10BD10B5044694F83800BF
:10B45000FEF7B4FC10BD70B505460C46287900B364
:10B4600001284AD1A86808F037FE00280ADAFF2030
:10B47000194981F8AA07A06B00280DDAA06B404299
:10B48000A06309E00120144981F8AA07A06B0028F5
:10B4900002DDA06B4042A06395F83800FEF78EFCF9
:10B4A00031E01BE00000594000001440280100205A
:10B4B0006C010020252E32660D00000025000000E2
:10B4C0001400002018040020180000201C00002098
:10B4D0005804002098040020600B0020A06B002876
:10B4E00005DA95F83800FEA106F0F6FB04E095F8C1
:10B4F0003800FCA106F0F0FB05E095F838000421C7
:10B5000002F06CFB00BF00BF70BD10B50446F648EA
:10B5100001682046FFF79FFF10BD10B50446F348B1
:10B5200001682046FFF797FF10BD10B50446F048AC
:10B5300001682046FFF78FFFEE48007A502801D1BE
:10B5400003F0C2FE10BD2DE9F04104460E46174639
:10B550000025207910B1012822D10DE0307800FBC0
:10B5600007F5642095FBF0F894F838004246AFF6F2
:10B57000A87106F0B1FB19E0A06808F0ADFD054622
:10B58000002D07DDFA2D05DC357094F83800FEF744
:10B5900015FC04E094F838000A2102F01FFB05E0D6
:10B5A00094F83800042102F019FB00BF00BFBDE889
:10B5B000F0812DE9F04104460E461746002520791A
:10B5C00010B1012822D10CE0308800FB07F564207F
:10B5D00095FBF0F894F838004246C74906F07CFB2A
:10B5E0001AE0A06808F078FD0546002D08DDB5F5E5
:10B5F0007A7F05DC358094F83800FEF7DFFB04E045
:10B6000094F838000A2102F0E9FA05E094F83800CD
:10B61000042102F0E3FA00BF00BFBDE8F0817047EB
:10B6200001460020704710B50446B4A1204606F03C
:10B6300053FB10BD2DE9F04180460D4616461F46CE
:10B64000404608F049FD04B2B44201DBBC4202DDD1
:10B650000A20BDE8F08160B228700020F9E72DE9EA
:10B66000FF5F04462079012802DB2079022801DDF2
:10B67000BDE8FF9FA0680BF057FE07460CF02AFEBE
:10B6800006469B480068806B002801DA86F0004679
:10B690009B490968B1F902000DF09CFD83460DF04D
:10B6A0006FFC07463A460B46002096490CF000FF17
:10B6B000CDE9020130460DF063FC07460022924BB3
:10B6C0000DF04EF9CDE90001DDE902230CF0F0FEAA
:10B6D00081460DF081F8054685480068407800F005
:10B6E000070007280ED1042008F023F918B9042018
:10B6F00008F007F930B129460320FDF7C0FA04200D
:10B7000008F0F9F800BFB3E72DE9F047044679489F
:10B71000007A532806D094F8380078A106F0DCFAB5
:10B72000BDE8F0872079012802DB2079022805DDB9
:10B7300094F83800042102F051FAF1E72079022848
:10B7400002D1E068067800E05526A0680BF0ECFD19
:10B7500007460CF0BFFD814665480068806B0028F5
:10B7600001DA89F0004948460DF0F8FC0546252E1F
:10B7700004D0502E18D0552E31D116E0B5F57A7F71
:10B7800002DC15F57A7F05DA94F838000A2102F018
:10B7900025FAC5E75A480068B0F902004543284633
:10B7A00005EBD0714D1000BF1FE055480068B0F99F
:10B7B000020042F2107191FBF0F840460DF00AFDD4
:10B7C0000746524948460DF061FD824639460DF064
:10B7D00003FC814648460DF0C1FC054605E094F89F
:10B7E00038000B2102F0FAF99AE700BF0420FDF7B8
:10B7F0006AFB70B3042008F09CF818B9042008F024
:10B800008FF800B3042008F08BF830B92DB994F804
:10B8100038003AA106F060FA82E729460320FDF7D6
:10B820002EFA042008F07CF838B994F83800042186
:10B8300008F02FF8042008F06DF894F838002FA1D4
:10B8400006F04AFA0FE094F838002CA106F044FA0A
:10B8500009E0FFE70320FDF7C9F9074694F838002F
:10B86000394602F0BBF900BF5AE7F8B50446207824
:10B8700045226946FEF70CF8606900990E1A002E01
:10B8800000DA7642B4F86210B4F9502001FB02F0FD
:10B89000C11700EB91718D10002D00DA6D4200266A
:10B8A000AE4201DD00986061F8BD7CB504462079A8
:10B8B00010B1012848D12DE0012607E094F83800A6
:10B8C0002A4613A106F008FA701CC6B2072EF5DB53
:10B8D00094F83800AFF2204106F0FEF93AE000009B
:10B8E000310D00002D310D00140000201800002043
:10B8F0001C000020600B0020C8A50008520D0000AD
:10B90000280100200088C340006AE84000504347F7
:10B9100025642000A06808F0DFFB0546002D0DDB44
:10B92000B5F5803F0ADA00200090019094F83800C5
:10B930002B460222D64905F053FB04E094F8380068
:10B940000A2102F04BF905E094F83800042102F0D6
:10B9500045F900BF00BF7CBD10B50446207938B959
:10B96000CC4994F838000A68CB4906F0B5F907E0ED
:10B970002079012804D1A06808F0AEFBC549086011
:10B9800010BD70B50446207858280CD006DC41283C
:10B9900010D0462810D0532829D105E0592805D0C9
:10B9A0005A2824D104E000BF012070BD0220FCE72A
:10B9B0000320FAE70420F8E7641C204608F08CFB1B
:10B9C0000546072D11D2DFE805F0100406080A0C21
:10B9D0000E000520E9E70620E7E70420E5E7072059
:10B9E000E3E70820E1E70920DFE70020DDE7204664
:10B9F00008F072FBC0B2D8E77CB506460BF0B4F88D
:10BA0000A448D0F860070078421CA4A1022006F0E8
:10BA100063F9A048D0F86007D0E914432246A1A1F9
:10BA2000022006F059F99B48D0F86007D0E9184386
:10BA300022469FA1022006F04FF99648D0F86017E1
:10BA4000D1E9164322469DA1022006F045F991480E
:10BA5000D0F860079CA1D0F8C820022006F03CF97D
:10BA60008C48D0F86007D0E90A43224699A1022009
:10BA700006F032F98748D0F860079AA1D0F8A420E0
:10BA8000022006F029F98348D0F8600798A1D0F881
:10BA9000A820022006F020F97E48D0F8600750F870
:10BAA000B04F224695A14368022006F015F9794867
:10BAB000D0F8600795A1D0F8BC20022006F00CF960
:10BAC0007448D0F8600795A1D0F8B820022006F09D
:10BAD00003F97048D0F86007D0F8C4306D48D0F84A
:10BAE000600792A1D0F8C020022006F0F5F869485E
:10BAF000D0F8600750F8901F4068CDE90010654805
:10BB0000D0F8601751F8884F22464B688CA102206C
:10BB100006F0E2F85F48D0F860078EA1D0F89820D0
:10BB2000022006F0D9F85B48D0F860078CA1D0F865
:10BB30009C20022006F0D0F85648D0F86007D0F8D4
:10BB4000D8005449D1F86017D1F8D410CDE90010CD
:10BB50005048D0F86007D0F8D0304E48D0F8600791
:10BB600082A1D0F8CC20022006F0B6F84948D0F8DF
:10BB7000600784A1D0F8A020022006F0ADF8454867
:10BB8000D0F8600790F8E12082A1022006F0A4F826
:10BB90004048D0F86007D0F818113E48D0F8600748
:10BBA000D0F80801081A431C3A48D0F86007D0F8CA
:10BBB0001001421C7AA1022006F08EF83548D0F818
:10BBC0006007D0F824313348D0F8600778A1D0F866
:10BBD0001421022006F080F82E48D0F86007D0F833
:10BBE00004112C48D0F86007D0F80001CDE900011D
:10BBF0002848D0F86007D0F8FC302648D0F8600715
:10BC00006FA1D0F8F820022006F066F82148D0F89D
:10BC1000600771A14268022006F05EF81D48D0F866
:10BC2000600771A18268022006F056F81948D0F822
:10BC3000600771A1C268022006F04EF81548D0F8DE
:10BC4000600771A10269022006F046F81148D0F899
:10BC5000600771A14269022006F03EF80D48D0F855
:10BC60006007D0F8300100900A48D0F86007D0F89B
:10BC70002C310848D0F8600790F828216AA10220EA
:10BC800006F02AF86EA1022006F026F87CBD00001E
:10BC9000FF010080600B0020C8A500084F424A2C1D
:10BCA00025640D004B502C252E326C660D000000D3
:10BCB0004B442C252E326C660D0000004B492C2580
:10BCC0002E326C660D0000004C415345522C256409
:10BCD0000D0000005441524745542C25322E6C660D
:10BCE0000D000000464F4355534C2C25640D0000B9
:10BCF000464F435553482C25640D0000464F43558D
:10BD000053522C252E326C660D000000494E5445CE
:10BD10005246414345482C25640D0000494E544588
:10BD200052464143454C2C25640D0000494E544574
:10BD30005246414345432C25642C25640D000000E8
:10BD40004F55544C494D2C25322E6C662C25322EE5
:10BD50006C660D0053414D504C454C2C25640D0034
:10BD600053414D504C45482C25640D0041425345EC
:10BD700054504F494E542C25642C25642C25642C9A
:10BD800025640D004558504F535552454F2C25649E
:10BD90000D00000041424F4E2C25640D00000000B4
:10BDA00050494E484F4C452C25642C25640D00000D
:10BDB000524547494F4E2C442C25642C25640D00D8
:10BDC0004241434B47524F554E442C25642C256429
:10BDD0002C25642C25640D004C454E53534F2C31BB
:10BDE0002C25640D000000004C454E53534F2C325F
:10BDF0002C25640D000000004C454E53534F2C334E
:10BE00002C25640D000000004C454E53534F2C343C
:10BE10002C25640D000000004C454E53534F2C352B
:10BE20002C25640D00000000534552564F4C494DDF
:10BE300049542C25642C25642C25640D0000000039
:10BE4000454E440D0000000010B504462246F6A100
:10BE5000F74807F017FF10BD102801DAF44A115413
:10BE60007047F449086000BFF24909680029FBD116
:10BE7000704710B501229102EF480AF068FE0220D7
:10BE8000FFF7EFFF00224FF48061EB480AF05FFEFE
:10BE900010BD10B5044604F00F01E8480AF055FE45
:10BEA000E043C4B204F00F01E4480AF04CFE10BDB8
:10BEB00010B504462009FFF7ECFFFFF7DAFF04F0A6
:10BEC0000F00FFF7E6FFFFF7D4FF022C03DC03208F
:10BED000FFF7C7FF02E00220FFF7C3FF10BD10B558
:10BEE00004462009FFF7D5FFFFF7C3FF022C03DC50
:10BEF0000320FFF7B6FF02E00220FFF7B2FF10BDFC
:10BF000010B504462009FFF7C4FFFFF7B2FF032076
:10BF1000FFF7A7FF04F00F00FFF7BBFFFFF7A9FF34
:10BF20000320FFF79EFF10BD38B50F20ADF80000CD
:10BF300010208DF8030003208DF802006946BF48E9
:10BF40000AF0AAFD4FF44060ADF8000010208DF813
:10BF5000030003208DF802006946B7480AF09CFDF3
:10BF6000002407E05820B64908552020B04908555C
:10BF7000601CC4B2142CF5DB00BFB2480068322844
:10BF8000FBD300224FF40061AB480AF0E0FD302003
:10BF9000FFF7A5FF0320FFF764FF3020FFF79FFFA7
:10BFA0000320FFF75EFF2020FFF799FF0320FFF734
:10BFB00058FF2820FFF77CFF0320FFF752FF0C20DB
:10BFC000FFF776FF0320FFF74CFF0120FFF770FF1C
:10BFD0000320FFF746FF0620FFF76AFF0320FFF765
:10BFE00040FF4020FFF764FF0122D10292480AF08F
:10BFF000AEFD0020FFF784FF0020FFF781FF042043
:10C00000FFF77EFF0E20FFF77BFF1F20FFF778FF73
:10C010001F20FFF775FF0020FFF772FF0020FFF7DA
:10C020006FFF0020FFF76CFF0020FFF769FF14206F
:10C03000FFF766FF1420FFF763FF1420FFF760FF90
:10C040001420FFF75DFF0020FFF75AFF0020FFF7E5
:10C0500057FF0020FFF754FF0020FFF751FF10208B
:10C06000FFF74EFF1020FFF74BFF1020FFF748FFB0
:10C070001020FFF745FF0020FFF742FF0020FFF7E9
:10C080003FFF0220FFF73CFF0220FFF739FF0220AD
:10C09000FFF736FF0220FFF733FF0220FFF730FFE4
:10C0A0000220FFF72DFF0220FFF72AFF0220FFF7F3
:10C0B00027FF0120FFF724FF0120FFF721FF0120C8
:10C0C000FFF71EFF0120FFF71BFF0120FFF718FFFE
:10C0D0000120FFF715FF0120FFF712FF0120FFF7F6
:10C0E0000FFF0020FFF70CFF0420FFF709FF0A20D5
:10C0F000FFF706FF1120FFF703FF0A20FFF700FFFD
:10C100000420FFF7FDFE0020FFF7FAFE0020FFF7F6
:10C11000F7FE0020FFF7F4FE0420FFF7F1FE0E20EB
:10C12000FFF7EEFE1F20FFF7EBFE0E20FFF7E8FE05
:10C130000420FFF7E5FE0020FFF7E2FE0020FFF7F6
:10C14000DFFE0420FFF7DCFE0420FFF7D9FE042009
:10C15000FFF7D6FE0420FFF7D3FE0420FFF7D0FE42
:10C160000420FFF7CDFE0420FFF7CAFE0420FFF7EE
:10C17000C7FE0C23012234A1384807F083FD374A5B
:10C1800037A12B4807F07EFD01203749087038BDE4
:10C1900010B52848006820B126480068401E25498F
:10C1A000086031480078082805D2DFE800F004056F
:10C1B00065717F8893A8A6E02C480068401C2B4935
:10C1C00008600846007800F00F0008601848096809
:10C1D000405C1B49254A1268895C884222D023486A
:10C1E0000068082805D2214800788030204908706E
:10C1F00004E01E480078B8301D49087000224FF452
:10C2000000610D480AF0A3FC094818490968415C1F
:10C210000B48164A12688154022013490870062000
:10C22000144908706FE000002531367300000000EB
:10C23000C804002054000020000C01400010014000
:10C24000DC04002008000020205052494F52204CAE
:10C2500046207625642E253032640000F00400204C
:10C26000252D3136730000004C00002050000020C6
:10C270004F0000204D000020244909780809FFF7ED
:10C2800008FE0420224908700320224908703AE081
:10C290001E49097801F00F00FFF7FBFD04201C493F
:10C2A00008701D4800781B4908702CE0012291029B
:10C2B0001A480AF04CFC05201549087023E00022BA
:10C2C0004FF4806115480AF042FC1248007810498A
:10C2D000087018E01248006880B90122D1020F48A6
:10C2E0000AF035FC0F4810490968405C074908709E
:10C2F00002200749087007200749087003E0012061
:10C300000349087000BF00BF10BD00004F000020AF
:10C310004C0000204E0000204D000020000C014089
:10C3200054000020DC0400205000002001B502E091
:10C330000098401E009000980028F9D108BD2DE912
:10C34000F04104460D4616468021F7480AF0FBFBF3
:10C35000002711E02178F5480AF0D5FD00BF8021C3
:10C36000F2480AF0C7FD0028F9D1F0480AF0C9FDEB
:10C370002870641C6D1C7F1CB742EBD38021EA48F7
:10C380000AF0E3FBBDE8F0812DE9F04107460D46D8
:10C3900016464FF0000800243CE0287800F0FA0030
:10C3A00068280FD006DC40280AD0502807D0602823
:10C3B0001FD106E0822806D08A281AD104E000BFE7
:10C3C00000BF00BF00BF00BF2878D94908553068BA
:10C3D000C0F30741D648401C01553088C0F30721FF
:10C3E000D348801C01553178401C01554FF003089B
:10C3F0000CE00020CE4908550021CD48401C0155D5
:10C40000401C01552978401C015500BF00BF6D1C20
:10C41000361D641CBC42C0D3C8F1030407E0C54A02
:10C420001119C34A10193A46FFF789FF641C042CFE
:10C43000F5D3BDE8F08110B5A820BF4908700022EF
:10C44000BE480078FFF7A0FF10BD10B54FF40061A3
:10C45000BB480AF078FB42F21070FFF767FF4FF419
:10C460000061B7480AF071FB10BD10B54FF40060D1
:10C47000B4490880022088701020C870B0480AF0C3
:10C480000BFB4FF40050AF49088003208870182040
:10C49000C870A5480AF000FB4FF40040A949088085
:10C4A000032088701820C8709F480AF0F5FA802091
:10C4B000A4490880032088701020C8709A480AF0A8
:10C4C000EBFA4FF480409F49088003208870482091
:10C4D000C87095480AF0E0FA4FF4805099490880F6
:10C4E000032088704820C87095480AF0D5FA4FF4A8
:10C4F000805094490880032088704820C870924872
:10C500000AF0CAFA4FF400608E4908800220887051
:10C510001020C8708A480AF0BFFA84480AF0C4FCA8
:10C5200000208A4908804FF482704880002088806B
:10C530000220C880012008814002488110208881A3
:10C540000020C8810720088278480AF0DEFC01211B
:10C5500076480AF09FFC10BD2DE9F04107460D46D4
:10C5600016464FF0000800245FE0287807282CD0FA
:10C5700007DC072841D2DFE800F04011251213261E
:10C580002700152823D004DC08281FD00D2834D11B
:10C590001EE018281DD019282FD11BE000BF00BFB6
:10C5A0002878634908553068C0F307416048401C4B
:10C5B00001553088C0F307215D48801C01554FF0BC
:10C5C00003082AE000BF00BF00BF00BF00BF00BFDC
:10C5D00000BF00BF00205649085529785448401C28
:10C5E00001553088C0F307215148801C0155B8F12E
:10C5F000020F01DA4FF002080FE000204C49085505
:10C6000000214B48401C01552978401C0155B8F1C8
:10C61000010F01DA4FF0010800BF00BF3178444834
:10C62000C01C01556D1C361D641CBC429DD3C8F155
:10C63000030407E03F4A11193D4A10193A46FFF733
:10C640007EFE641C042CF5D3BDE8F08170B5054670
:10C650000E4600240BE001203D49085504EB440040
:10C6600006EB001000683B4941F82400641CAC4212
:10C67000F1D3384A36492846FFF76EFF00240BE015
:10C6800002203349085504EB440006EB0010808873
:10C69000304941F82400641CAC42F1D32D4A2C49A6
:10C6A0002846FFF759FF00240BE0032028490855CE
:10C6B00004EB440006EB00108068264941F8240092
:10C6C000641CAC42F1D3234A21492846FFF744FFBA
:10C6D00000240BE005201E49085504EB440006EB3E
:10C6E0000010008A1B4941F82400641CAC42F1D3BD
:10C6F000184A17492846FFF72FFF00240BE00620B1
:10C700001349085504EB440006EB0010408A114918
:10C7100041F82400641CAC42F1D30E4A0C4928466F
:10C72000FFF71AFF002423E0000C0140003800400E
:10C7300064000020680000208800002081000020A4
:10C7400000080140600000200010014004050020A6
:10C750006C000020700000200720FE49085504EB03
:10C76000440006EB0010808AFB4941F82400641C59
:10C77000AC42F1D3F84AF7492846FFF7EDFE002412
:10C780000BE00820F349085504EB440006EB0010C9
:10C79000C08AF14941F82400641CAC42F1D3EE4A4E
:10C7A000EC492846FFF7D8FE00240BE01520E949A4
:10C7B000085504EB440006EB0010008BE64941F8F5
:10C7C0002400641CAC42F1D3E34AE2492846FFF757
:10C7D000C3FE00240BE00920DE49085504EB4400A9
:10C7E00006EB0010807EDC4941F82400641CAC425A
:10C7F000F1D3D94AD7492846FFF7AEFE00240BE013
:10C800000A20D449085504EB440006EB0010C07E12
:10C81000D14941F82400641CAC42F1D3CE4ACD4941
:10C820002846FFF799FE00240BE00B20C949085564
:10C8300004EB440006EB0010007FC74941F82400D8
:10C84000641CAC42F1D3C44AC2492846FFF784FEB7
:10C8500000240BE00C20BF49085504EB440006EB14
:10C860000010407FBC4941F82400641CAC42F1D365
:10C87000B94AB8492846FFF76FFE00240BE00D20A7
:10C88000B449085504EB440006EB0010C08BB249D4
:10C8900041F82400641CAC42F1D3AF4AAD492846AC
:10C8A000FFF75AFE00240CE00E20AA49085504EBBD
:10C8B000440006EB001090F82000A74941F824003E
:10C8C000641CAC42F0D3A44AA2492846FFF744FEB8
:10C8D00000240CE00F209F49085504EB440006EBB0
:10C8E000001090F821009C4941F82400641CAC42DF
:10C8F000F0D3994A97492846FFF72EFE00240CE012
:10C9000010209449085504EB440006EB001090F801
:10C910002200914941F82400641CAC42F0D38E4AB5
:10C920008C492846FFF718FE00240CE011208949A5
:10C93000085504EB440006EB001090F823008649EC
:10C9400041F82400641CAC42F0D3834A8149284654
:10C95000FFF702FE00240CE014207E49085504EB8A
:10C96000440006EB001090F826007B4941F82400B3
:10C97000641CAC42F0D3784A76492846FFF7ECFDB8
:10C9800000240CE013207349085504EB440006EB27
:10C99000001090F82500704941F82400641CAC4256
:10C9A000F0D36D4A6B492846FFF7D6FD00240CE012
:10C9B00016206849085504EB440006EB001090F877
:10C9C0002700654941F82400641CAC42F0D3624A58
:10C9D00060492846FFF7C0FD00240CE017205D49A0
:10C9E000085504EB440006EB001090F828005A4963
:10C9F00041F82400641CAC42F0D3574A55492846FC
:10CA0000FFF7AAFD00240BE018205249085504EB5B
:10CA1000440006EB0010408D4F4941F82400641C8F
:10CA2000AC42F1D34C4A4B492846FFF795FD70BD07
:10CA30000021083040F8081C20F8041C01608A21FD
:10CA400001814181412181810021C1812721018210
:10CA500029218174C174017541754FF48161C182CE
:10CA6000192101762921417681760021C176402164
:10CA70008177082141770721C177FF2180F82010B5
:10CA800042F688614184083870472DE9F05FFFF76E
:10CA9000D2FCFFF7DAFC00203049086012E00020E9
:10CAA0002F492E4A126888542C49096801EB41012C
:10CAB0002C4A02EB0110FFF7BBFF28480068401C1E
:10CAC0002649086025480068274909788842E6D346
:10CAD0000020224908602DE224482049096800EB23
:10CAE000C100234A234BD0E9006130460BF038FFE8
:10CAF00004460022204B0BF01FFC80460BF09CFEEE
:10CB00001649096801EB4101164A02EB011108823E
:10CB10001A481249096800EBC100154A154BD0E9C3
:10CB2000006130460BF01CFF80460022124B0BF0D8
:10CB300003FC04460BF080FE0849096801EB410143
:10CB4000084A02EB011148820D480449096800EBCC
:10CB5000C10117E06C00002070000020840000205C
:10CB60008800002018050020810000209800002087
:10CB700011EA2D819997B13F0000E03FA00000200D
:10CB800078000020D1E90061FD4AFE4B30460BF0F1
:10CB9000E7FE80460022FC4B0BF0CEFB04460BF078
:10CBA0004BFEFA49096801EB4101F94A02EB011118
:10CBB0008882F848F549096800EBC100F04AF14B5A
:10CBC000D0E9006130460BF0CBFE04460BF034FE9A
:10CBD000EE49096801EB4101ED4A02EB01110883BE
:10CBE000ED48EA49096800EBC100E54AEB4BD0E9A2
:10CBF000006130460BF0B4FE80460022E24B0BF0A1
:10CC00009BFB04460BF018FE80B2E549DF4A126830
:10CC100031F812100843DD49096801EB4101DC4A93
:10CC200002EB0111C882DF48D849096800EBC10056
:10CC30000022DD4BD0E9006130460BF039FC804624
:10CC40000022D14B0BF078FB04460BF0F5FDCF49E9
:10CC5000096801EB4101CE4A02EB01110877D34884
:10CC6000CA49096800EBC101D1E900610022CE4B3D
:10CC700030460BF01DFC80460022C34B0BF05CFBE2
:10CC800004460BF0D9FDC149096801EB4101C04AD6
:10CC900002EB01114877C648BC49096800EBC101A5
:10CCA000D1E900610022C04B30460BF001FC804608
:10CCB0000022B54B0BF040FB04460BF0BDFDB34921
:10CCC000096801EB4101B24A02EB0111C876B9488B
:10CCD000AE49096800EBC101D1E900610022B24B05
:10CCE00030460BF0E5FB80460022A74B0BF024FBFF
:10CCF00004460BF0A1FDA549096801EB4101A44AD6
:10CD000002EB01118876AC48A049096800EBC1002C
:10CD10000022AA4BD0E9006130460CF047F80446E7
:10CD20000022A74B0BF0C4FB82460022964B0BF06F
:10CD300003FB80460BF080FD9449096801EB41013B
:10CD4000934A02EB011181F823009E488F4909683C
:10CD500000EBC101D1E90061894A904B30460BF0EC
:10CD6000FFFD80460022884B0BF0E6FA04460BF0EC
:10CD700063FD8649096801EB4101854A02EB011117
:10CD8000C88391488149096800EBC101D1E900617C
:10CD90008E4A8F4B30460BF08BFB044600227A4BB9
:10CDA0000BF0CAFA80460BF047FD7849096801EBA1
:10CDB0004101774A02EB011181F82000854873494F
:10CDC000096800EBC101D1E90061804A804B30461F
:10CDD0000BF06EFB044600226B4B0BF0ADFA804665
:10CDE0000BF02AFD6949096801EB4101684A02EB31
:10CDF000011181F8210078486449096800EBC101FC
:10CE0000D1E90061714A724B30460BF051FB044688
:10CE100000225D4B0BF090FA80460BF00DFD5B4954
:10CE2000096801EB41015A4A02EB011181F8220025
:10CE30006A485649096800EBC1000022684BD0E9F6
:10CE4000006130460BF0B2FF04460022644B0BF049
:10CE50002FFB804600224C4B0BF06EFA82460BF003
:10CE6000EBFC4A49096801EB4101494A02EB011117
:10CE700081F826005B484549096830F811005A4995
:10CE8000424A126831F81210084358493F4A126862
:10CE900031F81210084356493C4A126831F8121012
:10CEA00008435449394A126831F81210084352496C
:10CEB000364A126831F8121008435049334A126852
:10CEC00031F8121008433149096801EB4101304A39
:10CED00002EB011148854A482C490968405C2B49FE
:10CEE000096801EB410102EB011181F82500454879
:10CEF00026490968405C2549096801EB410102EBBC
:10CF0000011181F82800404820490968405C3F49E8
:10CF10001E4A1268895C08431C49096801EB4101FB
:10CF20001B4A02EB011181F8270018480068401CD9
:10CF30001649086015480068354909788842FFF4A9
:10CF4000CBAD134932480078FFF780FBBDE8F09F76
:10CF500010B5044680212F4809F0F5FD21462E48E2
:10CF600009F0D1FF00BF80212B4809F0C3FF002842
:10CF7000F9D18021274809F0E8FD27484EE000005C
:10CF80008DEDB5A0F7C6B03F0000E03F8400002063
:10CF900018050020A800002008010020F7C6104056
:10CFA00010010020C00000200000D93FC800002070
:10CFB000B8000020B0000020F00000200000F03F8A
:10CFC0000000A03FD0000020D8000020A31280E67F
:10CFD0004CB3593FE0000020E8000020F80000209A
:10CFE00000403F4014010020160100201C010020D9
:10CFF000180100201A0100201E010020200100203D
:10D000000001002001010020130100201201002076
:10D0100081000020000C01400038004009F071FF41
:10D02000C0B210BD70B504460D462046FFF790FF14
:10D03000072C1ED007DC072C25D2DFE804F02411D2
:10D04000171224181900152C15D004DC082C11D047
:10D050000D2C18D110E0182C0FD0192C13D10DE085
:10D0600000BFC5F30740FFF773FF00BF00BF00BF5D
:10D0700000BF00BF00BF00BF00BF00BFC5F3072057
:10D08000FFF766FF00BFE8B2FFF762FF00BF00BF17
:10D0900070BD10B50446083454F8081C0120FFF791
:10D0A000C1FF34F8041C0220FFF7BCFF03202168F5
:10D0B000FFF7B8FF21890520FFF7B4FF618906203B
:10D0C000FFF7B0FFA1890720FFF7ACFFE189082037
:10D0D000FFF7A8FF218A1520FFF7A4FFA17C0920F4
:10D0E000FFF7A0FFE17C0A20FFF79CFF217D0B20CA
:10D0F000FFF798FF617D0C20FFF794FFE18A0D2078
:10D10000FFF790FF217E0E20FFF78CFF617E0F203E
:10D11000FFF788FFA17E1020FFF784FFE17E11203A
:10D12000FFF780FFA17F1420FFF77CFF617F1320B2
:10D13000FFF778FFE17F1620FFF774FF94F82010C7
:10D140001720FFF76FFF618C083C1820FFF76AFF7C
:10D1500010BD10B50020FFF7FBFE10BD70B50646F0
:10D160000024002546F02000FFF7F2FE04462406C6
:10D170002543072E21D007DC072E2AD2DFE806F050
:10D1800029111A12131B1C00152E18D004DC082EAE
:10D1900014D00D2E1DD113E0182E12D0192E18D137
:10D1A00010E000BF00BF0020FFF7D2FE04462404B9
:10D1B000254300BF00BF00BF00BF00BF00BF00BFCE
:10D1C00000BF00BF0020FFF7C3FE04462402254332
:10D1D00000BF0020FFF7BCFE0446254300BF00BF90
:10D1E000284670BD70B505460C4645F05000FFF767
:10D1F000AFFEC4F30740FFF7ABFEC4F30720FFF711
:10D20000A7FEE0B2FFF7A4FE70BD10B5044644F0DF
:10D210005800FFF79DFE10BD70B505460C4645F061
:10D220004000FFF795FEC4F30740FFF791FEC4F3FB
:10D230000720FFF78DFEE0B2FFF78AFE70BD10B544
:10D2400004466020FFF784FEC4F30740FFF780FE2A
:10D25000C4F30720FFF77CFEE0B2FFF779FE10BDB4
:10D2600010B504466020FFF773FEC4F30740FFF7D4
:10D270006FFEC4F30720FFF76BFEE0B2FFF768FE16
:10D2800010BD70B505460C4645F06800FFF760FE1E
:10D29000C4F30740FFF75CFEC4F30720FFF758FE16
:10D2A000E0B2FFF755FE70BD70B505460E46144658
:10D2B00045F0820141EA0600FFF74AFEC4F3074049
:10D2C000FFF746FEC4F30720FFF742FEE0B2FFF788
:10D2D0003FFE70BD70B504460D4644F0920141EA30
:10D2E0000500FFF735FE70BD10B57020FFF730FE6A
:10D2F00010BD10B57820FFF72BFE10BD10B5D8205B
:10D30000FFF726FE10BD10B5C020FFF721FE10BDAF
:10D3100010B5B020FFF71CFE10BD10B5B820FFF708
:10D3200017FE10BD10B5A020FFF712FE10BD10B5FE
:10D33000A820FFF70DFE10BD70B500240025D020F9
:10D34000FFF706FE0020FFF703FE04464FF6FF70CE
:10D3500000EA042425430020FFF7FAFD0446254394
:10D36000284670BD10B5FFF7E7FF00F0020008B9CE
:10D37000012010BD0020FCE72DE9F0470746884654
:10D3800016461D464FF00009002465E00020C949FB
:10D3900008550021C748401C0155401C0155401C40
:10D3A0000155072E2BD007DC072E40D2DFE806F010
:10D3B0003F11241213252600152E22D004DC082E3E
:10D3C0001ED00D2E33D11DE0182E1CD0192E2ED1BB
:10D3D0001AE000BF00BFBC420BD1B6480655C5F3EA
:10D3E0000741401C0155C5F30721401C0155401C55
:10D3F00005554FF003092DE000BF00BF00BF00BF7F
:10D4000000BF00BF00BF00BFBC420AD10020A94935
:10D410000855481C0655C5F30721401C0155401C02
:10D420000555B9F1020F01DA4FF0020912E0BC42D2
:10D430000AD100209F49085500219E48401C0155F3
:10D44000401C0655401C0555B9F1010F01DA4FF09B
:10D45000010900BF00BF641C444597D3C9F1030410
:10D4600007E0954A1119934A10194246FEF767FFE3
:10D47000641C042CF5D3BDE8F0872DE9F041064685
:10D480000D4617464FF00008002463E0287807286F
:10D4900028D007DC07283CD2DFE800F03B1121123E
:10D4A0001322230015281FD004DC08281BD00D28C8
:10D4B0002FD11AE0182819D019282AD117E000BF57
:10D4C00000BF287840F020007A49085500217948AB
:10D4D000401C0155401C01554FF003082CE000BFD3
:10D4E00000BF00BF00BF00BF00BF00BF00BF0020E3
:10D4F00070490855287840F020016E48401C0155BD
:10D500000021401C0155B8F1020F01DA4FF002086A
:10D5100012E000206749085500216648401C01556B
:10D52000287840F020016348801C0155B8F1010FB4
:10D5300001DA4FF0010800BF00BF00215D48C01CA8
:10D5400001555D48401C0155401C0155401C0155CA
:10D550006D1C641CB44299D3C8F1030407E0564A19
:10D560001119544A10193246FEF7E9FE641C042CC6
:10D57000F5D300240FE05048401C005D01044E48E4
:10D58000801C005D41EA00204B49C91C095D08432D
:10D5900038603F1D641CB442EDD3BDE8F0812DE935
:10D5A000F04107460E4690461D4600241BE0BC4253
:10D5B0000DD1404800F80480C5F30741401C0155D7
:10D5C000C5F30721401C0155401C05550AE0002009
:10D5D0003849085500213748401C0155401C015569
:10D5E000401C0155641CB442E1D3002407E0324AD8
:10D5F0001119304A10193246FEF7A1FE641C042CA2
:10D60000F5D3BDE8F08170B505460E4600240EE066
:10D61000D0202849085500212648401C0155401CAF
:10D6200001552548401C0155401C0155641CAC4265
:10D63000EED3002407E0204A11191E4A10192A4689
:10D64000FEF77DFE641C032CF5D3002409E01A4884
:10D65000801C015D401E005D41EA00203060361DE7
:10D66000641CAC42F3D370BD70B50546134928461F
:10D67000FFF7C9FF002405E0104830F824003043CC
:10D6800086B2641CAC42F7D306F0020008B9012050
:10D6900070BD0020FCE72DE9F04105460E4614461A
:10D6A0001F4644F050023B4631462846FFF777FFBD
:10D6B000BDE8F081640000206800002070000020B8
:10D6C00008B54FF48050ADF8000003208DF802003B
:10D6D00010208DF803006946FE4809F0DDF94FF48B
:10D6E0008051FC4809F031FA08BD2DE9F0410446AB
:10D6F0000D4616464FF48051F64809F024FA00BF53
:10D700000221F54809F0F6FB0028F9D00321F24880
:10D7100009F0F9FB00BF0121EF4809F0EBFB0028FD
:10D72000F9D0ED4809F0EDFBC7B200BF0221EA488D
:10D7300009F0E0FB0028F9D0C4F30741E64809F0FE
:10D74000E2FB00BF0121E44809F0D4FB0028F9D036
:10D75000E14809F0D6FBC7B200BF0221DE4809F05C
:10D76000C9FB0028F9D0C4F30721DB4809F0CBFB43
:10D7700000BF0121D84809F0BDFB0028F9D0D648E8
:10D7800009F0BFFBC7B200BF0221D34809F0B2FBCA
:10D790000028F9D0E1B2D04809F0B5FB00BF012163
:10D7A000CD4809F0A7FB0028F9D0CB4809F0A9FB28
:10D7B000C7B218E000BF0221C74809F09BFB002850
:10D7C000F9D00021C44809F09EFB00BF0121C248E6
:10D7D00009F090FB0028F9D0BF4809F092FBC7B2CE
:10D7E00005F8017B761E002EE4D100BF8021BA48E7
:10D7F00009F080FB0028F9D14FF48051B54809F0B9
:10D80000A4F9BDE8F0812DE9F04104460F46154624
:10D81000A1E0E0B2C0F58076AE4200D92E46AD1B45
:10D820004FF48051AB4809F08EF900BF0221AA489D
:10D8300009F060FB0028F9D00621A74809F063FB36
:10D8400000BF8021A44809F055FB0028F9D14FF40E
:10D850008051A04809F079F90320A049086000BF71
:10D860009E4800680028FBD14FF48051994809F088
:10D870006AF900BF0221984809F03CFB0028F9D062
:10D880000221954809F03FFB00BF0221924809F0B0
:10D8900031FB0028F9D0C4F307418F4809F033FB6E
:10D8A00000BF02218C4809F025FB0028F9D0C4F301
:10D8B0000721894809F027FB00BF0221864809F0AB
:10D8C00019FB0028F9D0E1B2834809F01CFB34446D
:10D8D00000BF00BF0221804809F00CFB0028F9D0EE
:10D8E00017F8011B7C4809F00EFB701E061EF0D1D4
:10D8F00000BF8021784809F0FDFA0028F9D14FF4E3
:10D900008051744809F021F90C207449086000BF67
:10D91000724800680028FBD14FF480516D4809F02F
:10D9200012F900BF02216C4809F0E4FA0028F9D08E
:10D930000421694809F0E7FA00BF8021664809F030
:10D94000D9FA0028F9D14FF48051624809F0FDF866
:10D9500009F00AF900BF002D7FF45BAFBDE8F0814C
:10D9600070B504460D464FF480515A4809F0EBF863
:10D9700000BF0221584809F0BDFA0028F9D006215D
:10D98000554809F0C0FA00BF8021534809F0B2FAA7
:10D990000028F9D14FF480514E4809F0D6F84FF4E1
:10D9A00080514C4809F0CFF800BF02214A4809F0E5
:10D9B000A1FA0028F9D00221474809F0A4FA00BFD3
:10D9C0000221454809F096FA0028F9D0C4F307412E
:10D9D000414809F098FA00BF02213F4809F08AFA4D
:10D9E0000028F9D0C4F307213B4809F08CFA00BFA6
:10D9F0000221394809F07EFA0028F9D0E1B2364810
:10DA000009F081FA00BF0221334809F073FA0028B7
:10DA1000F9D02946304809F076FA00BF80212E4817
:10DA200009F068FA0028F9D14FF48051294809F02B
:10DA30008CF80C202949086000BF2848006800289D
:10DA4000FBD14FF48051234809F07DF800BF02213B
:10DA5000214809F04FFA0028F9D004211E4809F0A6
:10DA600052FA00BF80211C4809F044FA0028F9D17D
:10DA70004FF48051174809F068F809F075F870BD47
:10DA800070B504464FF48051124809F05CF800BFAD
:10DA90000221114809F02EFA0028F9D003210E487E
:10DAA00009F031FA00BF01210B4809F023FA0028E0
:10DAB000F9D0094809F025FAC5B200BF022106488D
