:020000040800F2
:10780000785634120C01000001000000AAAAAAAAAE
:020000040800F2
:10800000B0200020B9820008F5840008FD84000833
:10801000058500080D850008158500080000000092
:10802000000000000000000000000000258500089E
:108030001D850008000000002D8500082787000826
:10804000358500083D850008458500084D850008F8
:10805000558500085D850008658500086D85000868
:10806000758500087D850008858500088D850008D8
:10807000958500089D850008A5850008AD85000848
:10808000B5850008BD850008C5850008CD850008B8
:10809000D5850008DD850008E5850008AD8B000862
:1080A000ED850008F5850008FD85000805860008B7
:1080B000078600080F860008178600081F8600083C
:1080C000278600082F860008378600083F860008AC
:1080D00047860008678600086F86000877860008D4
:1080E0005F8600084F8600085786000887860008CC
:1080F0008F860008978600089F860008A7860008DC
:10810000AF860008B7860008BF860008C78600084B
:10811000CF860008D7860008DF860008E7860008BB
:10812000EF860008F7860008FF860008078700082A
:1081300000F002F800F0B0F80AA090E8000C8244C9
:108140008344AAF10107DA4501D100F0A5F8AFF2A6
:10815000090EBAE80F0013F0010F18BFFB1A43F025
:1081600001031847FC7400001C7500000A444FF01E
:10817000000C10F8013B13F0070408BF10F8014B86
:108180001D1108BF10F8015B641E05D010F8016BCB
:10819000641E01F8016BF9D113F0080F1EBF10F82F
:1081A000014BAD1C0C1B09D16D1E58BF01F801CB52
:1081B000FAD505E014F8016B01F8016B6D1EF9D5D5
:1081C0009142D6D3704700000023002400250026EA
:1081D000103A28BF78C1FBD8520728BF30C148BF2A
:1081E0000B6070476E2904F0E983702904F09D81CB
:1081F000662907F00E80652907F00B80672907F0D4
:1082000008806129AFF3008003681B0A28BF41F092
:108210008001692904F00E81642904F00B8175291D
:1082200004F008816F2904F0C084782904F0698182
:10823000E92904F05B84E42904F05884F52904F06A
:108240005584EF2904F0BD84F82904F0688103689F
:10825000DB0928BF41F08001632904F0738773298B
:1082600004F07887E32904F08387F32904F08887F2
:10827000002070471FB504F003FD0400002000211A
:1082800006F034FA401C60600020002106F044FA39
:10829000E0601FBD10B510BD04F0A4FF1146FFF74C
:1082A000E9FF00F037FA05F075F803B4FFF7F2FFC5
:1082B00003BC05F079F8000003480047034804496F
:1082C000024A044B7047000031810008B0100020C2
:1082D000B0200020B010002008B54FF40041080382
:1082E00005F06AFF4FF4407005F05CFF25208DF823
:1082F000000000208DF8010001208DF80300684681
:1083000005F016FF17208DF8000002208DF80100FF
:1083100001208DF80300684605F00AFF08BD10B57E
:1083200005F0A2FF4FF4803006F030F800BF312096
:1083300006F002F80028FAD0002006F01DF8002010
:1083400006F04EF84FF4806006F040F84FF480409D
:1083500005F03CFF0120604908604FF4E011000483
:1083600006F04EF8012006F045F800BF392005F070
:10837000E3FF0028FAD0022006F04CF800BF05F019
:10838000F3FF0828FBD10121C00205F04DFF0121B8
:10839000480705F031FF0121880305F02DFF012179
:1083A00040F21D2005F040FF0121084605F018FFAE
:1083B00042F2283006F0ADF8012006F09EF80121C7
:1083C0004FF0C05005F018FF10BD08B50020009018
:1083D000424805F0CBFD424805F0C8FD414805F094
:1083E000C5FD414805F0C2FD4020ADF80000022067
:1083F0008DF8020010208DF803006946394805F019
:1084000019FE4021374805F06CFE1020ADF8000041
:108410008DF8030003208DF8020069462F4805F00F
:1084200009FE4FF40070ADF8000048208DF80300FD
:1084300069462C4805F0FEFD4FF48070ADF8000051
:1084400048208DF803006946244805F0F3FD08BD77
:108450001CB50921022005F0D9FD4FF400700090F1
:1084600000208DF8040010208DF8050001208DF803
:108470000600684605F0ECFC0821002005F0C6FD6A
:108480004FF48070009000208DF8040010208DF8CB
:10849000050001208DF80600684605F0D9FC1CBDDA
:1084A00010B500214FF4006005F0A6FE06F0D0F8EC
:1084B000FFF735FFFFF789FFFFF7CAFFFFF70CFF54
:1084C00000F06EFB0121022005F00CFC01210802E6
:1084D00005F008FC10BD000000200240000801402B
:1084E000000C0140001001400014014001208849A7
:1084F0000860704710B5FFF7F9FF10BD10B5FFF722
:10850000F5FF10BD10B5FFF7F1FF10BD10B5FFF777
:10851000EDFF10BD10B5FFF7E9FF10BD10B5FFF777
:10852000E5FF10BD10B5FFF7E1FF10BD10B5FFF777
:10853000DDFF10BD10B5FFF7D9FF10BD10B5FFF777
:10854000D5FF10BD10B5FFF7D1FF10BD10B5FFF777
:10855000CDFF10BD10B5FFF7C9FF10BD10B5FFF777
:10856000C5FF10BD10B5FFF7C1FF10BD10B5FFF777
:10857000BDFF10BD10B5FFF7B9FF10BD10B5FFF777
:10858000B5FF10BD10B5FFF7B1FF10BD10B5FFF777
:10859000ADFF10BD10B5FFF7A9FF10BD10B5FFF777
:1085A000A5FF10BD10B5FFF7A1FF10BD10B5FFF777
:1085B0009DFF10BD10B5FFF799FF10BD10B5FFF777
:1085C00095FF10BD10B5FFF791FF10BD10B5FFF777
:1085D0008DFF10BD10B5FFF789FF10BD10B5FFF777
:1085E00085FF10BD10B5FFF781FF10BD10B5FFF777
:1085F0007DFF10BD10B5FFF779FF10BD10B5FFF777
:1086000075FF10BD704710B5FFF770FF10BD10B5B6
:10861000FFF76CFF10BD10B5FFF768FF10BD10B578
:10862000FFF764FF10BD10B5FFF760FF10BD10B578
:10863000FFF75CFF10BD10B5FFF758FF10BD10B578
:10864000FFF754FF10BD10B5FFF750FF10BD10B578
:10865000FFF74CFF10BD10B5FFF748FF10BD10B578
:10866000FFF744FF10BD10B5FFF740FF10BD10B578
:10867000FFF73CFF10BD10B5FFF738FF10BD10B578
:10868000FFF734FF10BD10B5FFF730FF10BD10B578
:10869000FFF72CFF10BD10B5FFF728FF10BD10B578
:1086A000FFF724FF10BD10B5FFF720FF10BD10B578
:1086B000FFF71CFF10BD10B5FFF718FF10BD10B578
:1086C000FFF714FF10BD10B5FFF710FF10BD10B578
:1086D000FFF70CFF10BD10B5FFF708FF10BD10B578
:1086E000FFF704FF10BD10B5FFF700FF10BD10B578
:1086F000FFF7FCFE10BD10B5FFF7F8FE10BD10B57A
:10870000FFF7F4FE10BD10B5FFF7F0FE10BD00003E
:1087100000000020FFF7C4FE012005F0DCFE03F09E
:108720005CFC00BFFEE71048006820B10E480068FE
:10873000401E0D49086001200C4908600C48006883
:10874000401C0B4908600B48D0F87C0550B1094823
:10875000D0F8780530B10748D0F87805401E0549B3
:10876000C1F87805704700001000002004000020C8
:108770000C0000201806002010B504464021D64801
:1087800005F0AFFC2146D54805F087FE00BF8021EB
:10879000D24805F079FE0028F9D14021CE4805F0F5
:1087A000A2FC10BD2DE9F04105460E4690461F463D
:1087B0000024CB4805804680A0F80480C78000BF15
:1087C0000088204484B2C6484088204484B2C4480B
:1087D0008088204484B2C248C088204484B2E043E8
:1087E000BF4908810A22102002F09EFABDE8F081FC
:1087F00010B586B00024002000904FF40050ADF872
:10880000000003208DF8020018208DF8030069464F
:10881000B14805F00FFC4FF40040ADF80000032014
:108820008DF8020018208DF803006946AA4805F06B
:1088300001FC8020ADF8000003208DF8020010201C
:108840008DF803006946A44805F0F4FB8021A24896
:1088500005F049FC4FF48040ADF8000003208DF88E
:10886000020048208DF8030069469B4805F0E2FBB2
:108870009A4805F0E3FD0020ADF804004FF4827043
:10888000ADF806000020ADF808000220ADF80A009F
:108890000120ADF80C004002ADF80E001020ADF83C
:1088A00010000020ADF812000720ADF8140001A957
:1088B0008A4805F0F4FD0121884805F0B5FD02F075
:1088C0006FF90A228649102002F07FF900BF844820
:1088D0000088204484B282484088204484B2804882
:1088E0008088204484B27E48C088204484B2E0431B
:1088F00084B27B480089A04207D0032340F60202DD
:10890000C1214FF49060FFF74DFF00200090402000
:10891000ADF8000002208DF8020010208DF8030051
:1089200069466D4805F086FB40216B4805F0DBFB8E
:108930004FF42040ADF8000003208DF8020018200D
:108940008DF803006946644805F074FB4FF48040DD
:10895000ADF8000003208DF8020048208DF80300D8
:1089600069465D4805F066FB5C4805F067FD002040
:10897000ADF804004FF48270ADF806004FF40060CB
:10898000ADF808000020ADF80A00ADF80C004FF477
:108990000070ADF80E001820ADF810008020ADF882
:1089A00012000720ADF8140001A94C4805F077FD2E
:1089B00001214A4805F038FD49490888FFF7DCFEE7
:1089C00047494888FFF7D8FE45498888FFF7D4FE15
:1089D0004349C888FFF7D0FE06B010BD7CB50446F9
:1089E000207948B93E498988C1F3071294F83800C4
:1089F0003CA102F08CFF6DE02079012839D1A068FC
:108A000000783F280ED13648C08835498988CDE99D
:108A1000001033494B880A8894F8380034A102F0DA
:108A200076FF57E0A06803F04FFE0546002D01DBFE
:108A3000FF2D05DD94F8380034A102F068FF17E03F
:108A40004FF4906026490880C1204880022000EB46
:108A5000051088800320C8800E46F388B28871888C
:108A60003088FFF79FFE94F838002CA102F04FFFEA
:108A700030E02079042828D110220021A06803F0DA
:108A800030FE1749088010220021E06803F029FE1B
:108A90001349488010220021206903F022FE10496A
:108AA000888010220021606903F01BFE0C49C880F9
:108AB0000D46EB88AA8869882888FFF773FE94F82A
:108AC000380016A102F023FF04E094F8380016A144
:108AD00002F01DFF7CBD0000000C0140003800408A
:108AE000380100204144393934342C25640D00000C
:108AF0004144393934342C253034582C25303458FD
:108B00002C253034582C253034580D004144393947
:108B100034342C452C31300D0000000041443939EB
:108B200034342C300D0000004144393934342C45A4
:108B30002C340D0010B54FF40071F74805F0CAFA57
:108B400030B1F648407820F00100F449487005E063
:108B5000F248407840F00100F0494870EF48407812
:108B600000F00300EE49487010BD10B54FF480715D
:108B7000EC4805F0AFFA30B1E848407820F0020048
:108B8000E649487005E0E548407840F00200E349D6
:108B90004870E248407800F00300E149487010BD99
:108BA00010B5FFF7C7FFFFF7E0FF10BD10B54FF49A
:108BB000007005F043F9012805D1FFF7BBFF4FF422
:108BC000007005F035F94FF4807005F037F9012891
:108BD00005D1FFF7CAFF4FF4807005F029F910BDE9
:108BE0000146012070470246CF4800680860012016
:108BF0007047002006E00021CC4A1154CC4A42F8CC
:108C00002010401C0128F6DB704770B505460C4665
:108C1000002020602846FFF7E3FF08B9002070BD60
:108C20000120C2490870C34A01F096FEC14800689D
:108C30002060206800F4001018B1BF492068084384
:108C400020600120EBE738B505460C46BB4840F8EC
:108C5000254014F5001F00DAB94CB4F5001F01DB04
:108C6000B74CE44369462846FFF7CFFF009884429B
:108C700003DD0120B349485502E00020B1494855C1
:108C8000B14840F825402846FFF7AAFF08B9002060
:108C900038BD0120FCE770B504460D46FFF7A9FF7B
:108CA000012411E0A748005D40F06800A749095D74
:108CB0009E4A5054A44850F82400A449095D9C4A97
:108CC00042F82100601CC4B2022CEBDB984A9749A1
:108CD000012000F0ADFD012070BD2DE9FE4F824660
:108CE0000C46002C0BDD4FF400718B4805F0F2F9B7
:108CF00010B90020BDE8FE8F4FF001090AE04FF4E3
:108D00008071884805F0E6F908B90020F2E74FF0D5
:108D100000096442204606F019FA02904FF086419D
:108D2000029806F051F90290029806F021F9884A5B
:108D3000884BCDE9000105F033FF07460022864B42
:108D400005F000FD054605F0FDFE83467F4911F85C
:108D50000A005B464A46012101F00CFF0120C9E7E9
:108D60002DE9FC5F82468B46584606F0EFF90190EC
:108D70004FF08641019806F027F90190019806F01E
:108D8000F7F80646724A754B05F00AFF04460022C2
:108D9000714B05F0D7FC804605F0D4FE80B26B49DC
:108DA000009011F80A0007220121009B01F04CFD00
:108DB0000120BDE8FC9F2DE9FC5F0446894648463A
:108DC00006F0C4F901904FF08641019806F0FCF8D6
:108DD0000190019806F0CCF80746614A614B05F016
:108DE000DFFE824600225C4B05F0ACFC054605F038
:108DF000A9FE80B255490090085D05220121009B23
:108E000001F022FD019806F0B3F80746544A554B8D
:108E100005F0C6FE054600224F4B05F093FC824646
:108E200005F090FE80B249490090085D06220121BC
:108E3000009B01F009FD0120BDE8FC9F10B5044630
:108E40004249085D0023C022012101F017FE0120E4
:108E500010BD10B504463D49085D0023B022012134
:108E600001F00CFE012010BD10B504463749085D25
:108E70000023B822012101F001FE012010BD70B5D0
:108E800005460C46002020702846FFF7A9FE08B9C9
:108E9000002070BD002020704FF400711E4805F0C6
:108EA00019F918B9207840F0010020704FF4807152
:108EB0001C4805F00FF918B9207840F00200207026
:108EC0000120E6E72DE9F04104460F4600203880F6
:108ED0002046FFF785FE10B90020BDE8F0810F485D
:108EE000055D2149012001F0FDFD1848005D1F4985
:108EF00051F820801548005D1B4951F8206088EA30
:108F0000060000F0600098B306F0600088BB25F012
:108F1000040545F040052FE0001001401600002038
:108F200018000020000801400C000020680000200C
:108F30006C000020700000200000C0FF1C0000201A
:108F40000000E0FF2C0000202400002018F20008A0
:108F50008DEDB5A0F7C650400000E03FF7C6B03F2A
:108F600011EA2D819997B13F3C0000203800002084
:108F700002E0FFE745F004050448005D044941F8BC
:108F8000206004490D553D800120A6E718F2000835
:108F9000380000201600002070B504462079012812
:108FA00007D1A06803F090FB0546284601F0ACFF0E
:108FB00000BF70BD2DE9F0410446207903280FD190
:108FC000E06803F081FB0546206903F07DFB06465F
:108FD000A0680778B2B2A9B2384601F0C9FF00BF55
:108FE000BDE8F08110B502F000F80320CB4908601D
:108FF00000BFCA4800680028FBD101F0FEFF10BD89
:1090000010B50446FFF7EEFF94F83800C4A102F053
:109010007EFC10BD1CB5C548C068C4498968CDE94F
:109020000010C2484368C2A10268012002F06FFC30
:109030001CBD1CB5BD48C068BC498968CDE900109D
:10904000BA484368BFA10268012002F060FC1CBD61
:1090500010B50446FFF7DEFF10BD10B50446B34956
:109060004B6894F838000A68BAA102F050FC10BDB1
:1090700010B5044694F83800B9A102F048FC10BDC0
:1090800002F083FA00BFFEE702F07FFA00BFFEE7BE
:1090900010B5044694F838000C230122B4A102F064
:1090A00036FC10BD70B50446207902281DD1A06899
:1090B00003F00AFB0646E06803F006FB0546002EB7
:1090C00006DB002D04DB701940F2DC51884205DD1F
:1090D00094F83800A8A102F01AFC0BE0AAB2B1B2D1
:1090E00094F8380002F043F804E094F83800A4A1A2
:1090F00002F00DFC70BD10B5044614F8380FA2A1A3
:1091000002F005FC2078ABA102F001FC2078AFA1B1
:1091100002F0FDFB2078AEA102F0F9FB2078B7A1A8
:1091200002F0F5FB2078BD4902F0F1FB2078BCA1EC
:1091300002F0EDFB2078BFA102F0E9FB2078C2A18C
:1091400002F0E5FB2078C4A102F0E1FB2078C6A183
:1091500002F0DDFB2078CAA102F0D9FB2078D3A170
:1091600002F0D5FB2078D7A102F0D1FB2078D7A15F
:1091700002F0CDFB2078E5A102F0C9FB2078E6A142
:1091800002F0C5FB2078F1A102F0C1FB2078F1A12B
:1091900002F0BDFB2078FC4902F0B9FB2078FB49C6
:1091A00002F0B5FB2078FAA102F0B1FB14F83809FF
:1091B000FC4902F0ACFB10BD10B50446A06803F0FA
:1091C00083FAF94908600846006808B1FFF70AFF0A
:1091D00010BD70B50446A06803F076FA054629462E
:1091E000412001F0A8FEE06803F06EFA054629462A
:1091F000422001F0A0FE206903F066FA05462946E8
:10920000432001F098FE606903F05EFA05462946A6
:10921000442001F090FE70BD10B5044604F06EFFCE
:1092200094F83800E1A102F072FB32203B4908605B
:1092300000BF3A4800680028FBD1801E05F04BF9BA
:10924000002005F05AF9E048E0494860E0484860ED
:1092500004F054FFDF4804F041FE042813D100213C
:10926000400604F0A9FF002005F00EFA402005F0AA
:1092700015FA402005F000FA0121C80204F0BCFFF5
:109280004F2005F0F1F9D448006808B100BFFEE7AF
:1092900010BD70B504462079012806D1A06803F0FE
:1092A00013FA85B2284602F048F970BD10B504469D
:1092B000CA48D0F874150120FFF7C5FC042101202D
:1092C000FFF7E9FC10BD70B50446A06803F0FCF997
:1092D000054629460120FFF700FD70BD38B504465C
:1092E00069460120FFF791FCBC48D0F8740500994D
:1092F000081A009094F83800B9A1009A02F007FB10
:1093000038BD70B5044602F04BFF054694F83800AE
:109310002A46B6A102F0FBFA70BD00001000002042
:10932000524546524553482C300D00004401002060
:10933000414243442C25642C25642C25642C25644F
:109340000D0000002B2C25642C25642C25642C2575
:10935000640D000041422C25642C25640D000000A2
:109360004C4642494F4556414C424F4152440D00F4
:10937000256425640D000000402C45340D000000DC
:10938000402C45330D0000002D2D2D2D2D2D2D2D84
:109390002D2D2D2D2D2D2D2D2D2D2D2D2D2D2D2DFD
:1093A0002D2D2D2D2D2D2D2D2D2D2D2D2D2D2D2DED
:1093B0002D0D0000706978656C7320696E207261F4
:1093C0006E676520302D313439390D00200D0000D5
:1093D0006C696E6520636F6D6D616E642C206D69C4
:1093E0006E696D616C20726573706F6E7365206657
:1093F0006F722073706565640D000000402C7374FB
:1094000061727420706978656C2C6E756D6265721E
:10941000206F6620706978656C730D0084F4000815
:109420002020202020696520402C31313233340D3A
:10943000000000002020202020696520402C3334CB
:109440003536370D0000000020202020202E2E2E43
:109450002E2E2E0D000000002020202020696520E7
:10946000402C333333330D00524547494F4E2C7255
:1094700065672C73746172742C656E640D00000056
:10948000202020202072656720697320412C422C07
:1094900043206F7220442E2073746172742F656EA6
:1094A00064203D20302D313439390D00202020201A
:1094B00020696520524547494F4E2C422C302C37AD
:1094C00034390D00414243440D000000202020208B
:1094D0002072657475726E732027414243442C419B
:1094E0002C422C432C44272073756D6D6174696F79
:1094F0006E73202D20726567696F6E206261636BE9
:1095000067726F756E64730D00000000524546521D
:109510004553480D00000000202020202072656681
:1095200072657368206C696E652073656E736F7207
:109530002072656164696E677320696E63204142C1
:1095400043442073756D730D000000004155544F66
:109550002C6E0D002020202020736574206E3D307D
:1095600020796F752063616C6C20524546524553DB
:1095700048206265666F7265204C494E45206F72C7
:1095800020414243440D0000CCF4000834F40008AC
:109590004241434B47524F554E442C612C622C6341
:1095A0002C640D0010F5000808000020456E74655D
:1095B00072696E672050726F6772616D6D696E6758
:1095C000206D6F64650D0000230167450020024097
:1095D000AB89EFCD0078000800780008180600205D
:1095E0004C454E53502C25640D0000004C454E5305
:1095F0003F2C25640D00000038B504466946012063
:10960000FFF760FCBDF8000000F0040028B194F8FA
:10961000380062A102F07BF904E094F8380062A1FE
:1096200002F075F938BD70B50446A06803F04CF837
:10963000054629460120FFF7BEFB70BD70B5044604
:10964000A06803F041F8054629460120FFF788FB92
:1096500070BD38B50446A06803F036F80546694683
:109660000120FFF7D2FA5348D0F874050099081A80
:1096700000900098854206DD4FF400714E4804F0DA
:1096800029FD38B938BD4FF480714C4804F022FDF3
:1096900000B9F7E74748D0F8740541190120FFF7F2
:1096A000D2FA04210120FFF7F6FA00BFEAE770B50D
:1096B0000546A86803F008F804463E48C0F8784517
:1096C000C0F87C4534B9B0F87005C0F30B01002038
:1096D00004F0FAFA70BD70B505460C4609E0296839
:1096E000206803F087F818B928466168884770BD7C
:1096F0000834206800780028F1D100BFF7E730B5C2
:109700008FB005460C463C21684603F04BF800E05C
:10971000641C21782AA003F01CF80028F8D10094DA
:109720008DF838508DF8040022E0217825A003F050
:1097300010F8C0B10020207000E0641C217821A046
:1097400003F007F80028F8D120780D2810D09DF8F4
:10975000041002A840F821409DF80400401CC0B24B
:109760008DF8040004E0207802F0FCFD2070641CF9
:1097700020780D28D9D10020207014496846FFF7C1
:10978000AAFF0FB030BD10B51149012001F0C0FF94
:1097900018B10F490120FFF7B2FF10BD4C454E53E1
:1097A000242C310D000000004C454E53242C300D6C
:1097B00000000000180600200010014000080140D1
:1097C0000A2009002C20090A0000000030F20008DD
:1097D0008401002001B502E00098401E009000982E
:1097E0000028F9D108BD2DE9F04104460D46164682
:1097F0008021FB4804F075FC002711E02178F9482E
:1098000004F04BFE00BF8021F64804F03DFE002826
:10981000F9D1F44804F03FFE2870641C6D1C7F1CD5
:10982000B742EBD38021EE4804F05DFCBDE8F08147
:109830002DE9F04107460D4616464FF0000800247A
:109840003CE0287800F0FA0068280FD006DC4028B9
:109850000AD0502807D060281FD106E0822806D001
:109860008A281AD104E000BF00BF00BF00BF00BFBC
:109870002878DD4908553068C0F30741DA48401CB4
:1098800001553088C0F30721D748801C0155317835
:10989000401C01554FF003080CE00020D249085548
:1098A0000021D148401C0155401C01552978401C1D
:1098B000015500BF00BF6D1C361D641CBC42C0D3E7
:1098C000C8F1030407E0C94A1119C74A10193A46FA
:1098D000FFF789FF641C042CF5D3BDE8F08110B5B7
:1098E000A020C34908700022C2480078FFF7A0FFFB
:1098F00010BD10B54FF40061BF4804F0F2FB42F216
:109900001070FFF767FF4FF40061BB4804F0EBFBFA
:1099100010BD2DE9F04107460D4616464FF00008F0
:1099200000245FE0287807282CD007DC072841D2E4
:10993000DFE800F04011251213262700152823D058
:1099400004DC08281FD00D2834D11EE018281DD0B3
:1099500019282FD11BE000BF00BF2878A249085565
:109960003068C0F30741A048401C01553088C0F35F
:1099700007219D48801C01554FF003082AE000BFD5
:1099800000BF00BF00BF00BF00BF00BF00BF00207E
:109990009549085529789448401C01553088C0F3F2
:1099A00007219148801C0155B8F1020F01DA4FF0F0
:1099B00002080FE000208C49085500218A48401C0D
:1099C00001552978401C0155B8F1010F01DA4FF01B
:1099D000010800BF00BF31788348C01C01556D1CD1
:1099E000361D641CBC429DD3C8F1030407E07F4AC6
:1099F00011197D4A10193A46FFF7F5FE641C042C34
:109A0000F5D3BDE8F08170B505460E4600240BE0A5
:109A100001207A49085504EB440006EB0010006869
:109A2000774941F82400641CAC42F1D3744A73496D
:109A30002846FFF76EFF00240BE002206F4908550F
:109A400004EB440006EB001080886D4941F82400C7
:109A5000641CAC42F1D36A4A68492846FFF759FFB3
:109A600000240BE003206549085504EB440006EB95
:109A700000108068624941F82400641CAC42F1D3B4
:109A80005F4A5E492846FFF744FF00240BE00520AB
:109A90005A49085504EB440006EB0010008A584967
:109AA00041F82400641CAC42F1D3554A534928467E
:109AB000FFF72FFF00240BE006205049085504EB68
:109AC000440006EB0010408A4D4941F82400641C14
:109AD000AC42F1D34A4A49492846FFF71AFF00240D
:109AE0000BE007204549085504EB440006EB001045
:109AF000808A434941F82400641CAC42F1D3404AB7
:109B00003E492846FFF705FF00240BE008203B49AB
:109B1000085504EB440006EB0010C08A384941F8B0
:109B20002400641CAC42F1D3354A34492846FFF77F
:109B3000F0FE00240BE015203049085504EB4400EA
:109B400006EB0010008B2E4941F82400641CAC4247
:109B5000F1D32B4A29492846FFF7DBFE00240BE00E
:109B600009202649085504EB440006EB0010807ECE
:109B7000234941F82400641CAC42F1D3204A1F4918
:109B80002846FFF7C6FE00240BE00A201B490855B3
:109B900004EB440006EB0010C07E194941F8240094
:109BA000641CAC42F1D3164A14492846FFF7B1FEB3
:109BB00000240BE00B201149085504EB440006EB90
:109BC0000010007F0E4941F82400641CAC42F1D320
:109BD0000B4A0A492846FFF79CFE00241EE00000BD
:109BE000000C0140003800404400002048000020E4
:109BF0006800002061000020000801404C000020A7
:109C0000500000200C20FE49085504EB440006EBF0
:109C10000010407FFB4941F82400641CAC42F1D3A2
:109C2000F84AF7492846FFF774FE00240BE00D20A0
:109C3000F349085504EB440006EB0010C08BF149D2
:109C400041F82400641CAC42F1D3EE4AEC492846AA
:109C5000FFF75FFE00240CE00E20E949085504EBF5
:109C6000440006EB001090F82000E64941F824007B
:109C7000641CAC42F0D3E34AE1492846FFF749FEB1
:109C800000240CE00F20DE49085504EB440006EBED
:109C9000001090F82100DB4941F82400641CAC421C
:109CA000F0D3D84AD6492846FFF733FE00240CE00B
:109CB0001020D349085504EB440006EB001090F83F
:109CC0002200D04941F82400641CAC42F0D3CD4AB4
:109CD000CB492846FFF71DFE00240CE01120C8499F
:109CE000085504EB440006EB001090F82300C5492A
:109CF00041F82400641CAC42F0D3C24AC049284653
:109D0000FFF707FE00240CE01420BD49085504EBC2
:109D1000440006EB001090F82600BA4941F82400F0
:109D2000641CAC42F0D3B74AB5492846FFF7F1FDB1
:109D300000240CE01320B249085504EB440006EB64
:109D4000001090F82500AF4941F82400641CAC4293
:109D5000F0D3AC4AAA492846FFF7DBFD00240CE00B
:109D60001620A749085504EB440006EB001090F8B4
:109D70002700A44941F82400641CAC42F0D3A14A56
:109D80009F492846FFF7C5FD00240CE017209C4999
:109D9000085504EB440006EB001090F828009949A0
:109DA00041F82400641CAC42F0D3964A94492846FA
:109DB000FFF7AFFD00240BE018209149085504EB94
:109DC000440006EB0010408D8E4941F82400641CCD
:109DD000AC42F1D38B4A8A492846FFF79AFD70BD01
:109DE0000021083040F8081C20F8041C01608A217A
:109DF00001814181412181810021C181272101828D
:109E000029218174C174017541754FF48161C1824A
:109E1000192101762921417681760021C1764021E0
:109E20008177082141770721C177FF2180F8201031
:109E300042F688614184083870472DE9F05F4FF49D
:109E4000006071490880022088701020C8706F4837
:109E500004F0F0F84FF400506B490880032088703C
:109E60001820C8706A4804F0E5F84FF400406649CD
:109E70000880032088701820C870654804F0DAF85C
:109E8000802061490880032088701020C8706048D5
:109E900004F0D0F880215E4804F025F94FF48040AA
:109EA00059490880032088704820C870584804F039
:109EB000C1F84FF48050544908800320887048202E
:109EC000C870524804F0B6F84FF480504E490880EC
:109ED000032088704820C8704E4804F0ABF84FF457
:109EE000006049490880022088701020C8704748E7
:109EF00004F0A0F8484804F0A1FA0020474908807F
:109F00004FF482704880002088800220C8800120A1
:109F1000088140024881102088810020C8810720E4
:109F200008823D4804F0BBFA01213B4804F07CFA6A
:109F300000BF3B480068B0F57A6FFAD301F081FFAB
:109F400000F02EFE01F08EFB01F0DEF9FFF7C7FCFA
:109F5000FFF7CFFC00203349086012E000203249AF
:109F6000304A126888542F49096801EB41012F4A91
:109F700002EB0110FFF734FF2A480068401C294912
:109F80000860284800682A4909788842E6D30020FA
:109F90002449086039E227482249096800EBC100DA
:109FA000254A264BD0E90061304604F0F9FD04460D
:109FB0000022234B04F0C6FB804604F0C3FD194980
:109FC000096801EB4101194A02EB011108821D48A1
:109FD0001449096800EBC101D1E90061164A174B29
:109FE000304604F0DDFD80460022154B04F0AAFB4C
:109FF000044604F0A7FD0B49096801EB410123E089
:10A000004C000020500000204000002000080140CB
:10A01000000C014000100140003800408403002083
:10A020000C0000206400002068000020980300203D
:10A03000610000207800002011EA2D819997B13F3E
:10A040000000E03F80000020F74A02EB0111488247
:10A05000F648F749096800EBC100F64AF64BD0E92B
:10A060000061304604F09CFD80460022F34B04F072
:10A0700069FB044604F066FDED49096801EB410106
:10A08000E94A02EB01118882ED48E949096800EBD1
:10A09000C101D1E90061E74AE74B304604F080FD99
:10A0A000044604F04FFDE249096801EB4101DE4A34
:10A0B00002EB01110883E348DD49096800EBC100A8
:10A0C000DC4AE14BD0E90061304604F069FD80468E
:10A0D0000022DA4B04F036FB044604F033FD80B274
:10A0E000DA49D34A126831F812100843D049096896
:10A0F00001EB4101CC4A02EB0111C882D448CC49A2
:10A10000096800EBC101D1E900610022D14B304662
:10A1100004F0C0FB80460022C84B04F013FB044649
:10A1200004F010FDC249096801EB4101BE4A02EB8F
:10A1300001110877C848BE49096800EBC101D1E99F
:10A1400000610022C34B304604F0A4FB804600228D
:10A15000BA4B04F0F7FA044604F0F4FCB449096879
:10A1600001EB4101B04A02EB01114877BB48B0490D
:10A17000096800EBC101D1E900610022B54B30460E
:10A1800004F088FB80460022AC4B04F0DBFA044666
:10A1900004F0D8FCA649096801EB4101A24A02EB90
:10A1A0000111C876AE48A249096800EBC101D1E9A6
:10A1B00000610022A74B304604F06CFB8046002271
:10A1C0009E4B04F0BFFA044604F0BCFC98490968B1
:10A1D00001EB4101944A02EB01118876A1489449B0
:10A1E000096800EBC10000229F4BD0E900613046B6
:10A1F00004F0D4FD044600229C4B04F04BFB824645
:10A2000000228E4B04F09EFA804604F09BFC8849A5
:10A21000096801EB4101844A02EB011181F8230036
:10A2200093488349096800EBC100824A864BD0E914
:10A230000061304604F0B4FC804600227F4B04F0FD
:10A2400081FA044604F07EFC7949096801EB41017A
:10A25000754A02EB0111C88386487549096800EB0D
:10A26000C100854A854BD0E90061304604F012FBFD
:10A2700004460022714B04F065FA804604F062FC4B
:10A280006B49096801EB4101674A02EB011181F852
:10A2900020007B486649096800EBC100764A774B8D
:10A2A000D0E90061304604F0F5FA04460022634B21
:10A2B00004F048FA804604F045FC5D49096801EB6A
:10A2C0004101594A02EB011181F821006D485849BA
:10A2D000096800EBC100684A684BD0E9006130466C
:10A2E00004F0D8FA04460022544B04F02BFA8046BE
:10A2F00004F028FC4E49096801EB41014A4A02EB8F
:10A30000011181F8220060484949096800EBC10148
:10A31000D1E9006100225D4B304604F03FFD044668
:10A3200000225A4B04F0B6FA80460022434B04F058
:10A3300009FA824604F006FC3D49096801EB410137
:10A34000394A02EB011181F8260051483849096861
:10A3500030F811004F49364A126831F8121008439C
:10A360004D49334A126831F8121008434B49304ABC
:10A37000126831F81210084349492D4A126831F821
:10A380001210084347492A4A126831F8121008434C
:10A390004549274A126831F81210084324490968D0
:10A3A00001EB4101204A02EB011148853F48204959
:10A3B0000968405C1E49096801EB410102EB01118B
:10A3C00081F825003A481A490968405C184909682B
:10A3D00001EB410102EB011181F8280035481449D5
:10A3E0000968405C3449124A1268895C0843104984
:10A3F000096801EB41010C4A02EB011181F82700C9
:10A400000B480068401C0A490860094800682B494D
:10A4100009788842FFF4BFAD034928480078FFF768
:10A42000F2FABDE8F09F00009803002058000020D9
:10A43000640000208DEDB5A0F7C6B03F0000E03FFE
:10A4400088000020E8000020F7C61040F00000203F
:10A45000A00000200000D93FA800002098000020A4
:10A4600090000020D00000200000F03F0000A03F3E
:10A47000B0000020B8000020A31280E64CB3593F82
:10A48000C0000020C8000020D800002000403F404D
:10A49000F4000020F6000020FC000020F80000205E
:10A4A000FA000020FE00002000010020E000002053
:10A4B000E1000020F3000020F200002061000020F5
:10A4C00010B504468021F74803F00BFE2146F648FC
:10A4D00003F0E3FF00BF8021F34803F0D5FF00281D
:10A4E000F9D18021EF4803F0FEFDEF4803F0D3FFE0
:10A4F000C0B210BD70B504460D462046FFF7E0FF20
:10A50000072C1ED007DC072C25D2DFE804F024112D
:10A51000171224181900152C15D004DC082C11D0A2
:10A520000D2C18D110E0182C0FD0192C13D10DE0E0
:10A5300000BFC5F30740FFF7C3FF00BF00BF00BF68
:10A5400000BF00BF00BF00BF00BF00BFC5F30720B2
:10A55000FFF7B6FF00BFE8B2FFF7B2FF00BF00BFD2
:10A5600070BD10B50446083454F8081C0120FFF7EC
:10A57000C1FF34F8041C0220FFF7BCFF0320216850
:10A58000FFF7B8FF21890520FFF7B4FF6189062096
:10A59000FFF7B0FFA1890720FFF7ACFFE189082092
:10A5A000FFF7A8FF218A1520FFF7A4FFA17C09204F
:10A5B000FFF7A0FFE17C0A20FFF79CFF217D0B2025
:10A5C000FFF798FF617D0C20FFF794FFE18A0D20D3
:10A5D000FFF790FF217E0E20FFF78CFF617E0F209A
:10A5E000FFF788FFA17E1020FFF784FFE17E112096
:10A5F000FFF780FFA17F1420FFF77CFF617F13200E
:10A60000FFF778FFE17F1620FFF774FF94F8201022
:10A610001720FFF76FFF618C083C1820FFF76AFFD7
:10A6200010BD10B50020FFF74BFF10BD70B50646FA
:10A630000024002546F02000FFF742FF04462406D0
:10A640002543072E21D007DC072E2AD2DFE806F0AB
:10A6500029111A12131B1C00152E18D004DC082E09
:10A6600014D00D2E1DD113E0182E12D0192E18D192
:10A6700010E000BF00BF0020FFF722FF04462404C3
:10A68000254300BF00BF00BF00BF00BF00BF00BF29
:10A6900000BF00BF0020FFF713FF0446240225433C
:10A6A00000BF0020FFF70CFF0446254300BF00BF9A
:10A6B000284670BD70B505460C4645F05000FFF7C2
:10A6C000FFFEC4F30740FFF7FBFEC4F30720FFF7CC
:10A6D000F7FEE0B2FFF7F4FE70BD10B5044644F09B
:10A6E0005800FFF7EDFE10BD70B505460C4645F06D
:10A6F0004000FFF7E5FEC4F30740FFF7E1FEC4F3B7
:10A700000720FFF7DDFEE0B2FFF7DAFE70BD10B5FF
:10A7100004466020FFF7D4FEC4F30740FFF7D0FEE5
:10A72000C4F30720FFF7CCFEE0B2FFF7C9FE10BD6F
:10A7300010B504466020FFF7C3FEC4F30740FFF7DF
:10A74000BFFEC4F30720FFF7BBFEE0B2FFF7B8FE81
:10A7500010BD70B505460C4645F06800FFF7B0FE29
:10A76000C4F30740FFF7ACFEC4F30720FFF7A8FED1
:10A77000E0B2FFF7A5FE70BD70B505460E46144663
:10A7800045F0820141EA0600FFF79AFEC4F3074054
:10A79000FFF796FEC4F30720FFF792FEE0B2FFF743
:10A7A0008FFE70BD70B504460D4644F0920141EA3B
:10A7B0000500FFF785FE70BD10B57020FFF780FE25
:10A7C00010BD10B57820FFF77BFE10BD10B5D82066
:10A7D000FFF776FE10BD10B5C020FFF771FE10BD6B
:10A7E00010B5B020FFF76CFE10BD10B5B820FFF714
:10A7F00067FE10BD10B5A020FFF762FE10BD10B5BA
:10A80000A820FFF75DFE10BD70B500240025D02004
:10A81000FFF756FE0020FFF753FE04464FF6FF7089
:10A8200000EA042425430020FFF74AFE044625439E
:10A83000284670BD10B5FFF7E7FF00F0020008B929
:10A84000012010BD0020FCE72DE9F04707468846AF
:10A8500016461D464FF0000900246CE00020134905
:10A86000085500211148401C0155401C0155401C51
:10A870000155072E32D007DC072E47D2DFE806F05D
:10A8800046182B191A2C2D00152E29D004DC082E61
:10A8900025D00D2E3AD124E0182E23D0192E35D1F3
:10A8A00021E00000000C014000380040440000207E
:10A8B00000BF00BFBC420BD1B6480655C5F30741E7
:10A8C000401C0155C5F30721401C0155401C05558E
:10A8D0004FF003092DE000BF00BF00BF00BF00BF65
:10A8E00000BF00BF00BFBC420AD10020A9490855E3
:10A8F000481C0655C5F30721401C0155401C055551
:10A90000B9F1020F01DA4FF0020912E0BC420AD19C
:10A910000020A049085500219E48401C0155401CBC
:10A920000655401C0555B9F1010F01DA4FF0010938
:10A9300000BF00BF641C444590D3C9F1030407E085
:10A94000954A1119934A10194246FEF74CFF641CB0
:10A95000042CF5D3BDE8F0872DE9F04106460D46FD
:10A9600017464FF00008002463E02878072828D015
:10A9700007DC07283CD2DFE800F03B11211213224C
:10A98000230015281FD004DC08281BD00D282FD148
:10A990001AE0182819D019282AD117E000BF00BFE3
:10A9A000287840F020007B49085500217948401C58
:10A9B0000155401C01554FF003082CE000BF00BFBB
:10A9C00000BF00BF00BF00BF00BF00BF0020714933
:10A9D0000855287840F020016E48401C01550021A0
:10A9E000401C0155B8F1020F01DA4FF0020812E0E5
:10A9F00000206849085500216648401C0155287808
:10AA000040F020016348801C0155B8F1010F01DAC4
:10AA10004FF0010800BF00BF00215E48C01C015577
:10AA20005D48401C0155401C0155401C01556D1CE2
:10AA3000641CB44299D3C8F1030407E0564A1119C3
:10AA4000544A10193246FEF7CEFE641C042CF5D38E
:10AA500000240FE05048401C005D01044E48801C5B
:10AA6000005D41EA00204C49C91C095D084338607B
:10AA70003F1D641CB442EDD3BDE8F0812DE9F041E7
:10AA800007460E4690461D4600241BE0BC420DD1F1
:10AA9000404800F80480C5F30741401C0155C5F348
:10AAA0000721401C0155401C05550AE0002039498A
:10AAB000085500213748401C0155401C0155401CD9
:10AAC0000155641CB442E1D3002407E0324A111955
:10AAD000304A10193246FEF786FE641C042CF5D36A
:10AAE000BDE8F08170B505460E4600240EE0D0208A
:10AAF0002849085500212748401C0155401C015594
:10AB00002548401C0155401C0155641CAC42EED345
:10AB1000002407E0204A11191E4A10192A46FEF7A0
:10AB200062FE641C032CF5D3002409E01A48801C43
:10AB3000015D401E005D41EA00203060361D641C4E
:10AB4000AC42F3D370BD70B5054614492846FFF7F3
:10AB5000C9FF002405E0114830F82400304386B2D4
:10AB6000641CAC42F7D306F0020008B9012070BDA6
:10AB70000020FCE72DE9F04105460E4614461F462D
:10AB800044F050023B4631462846FFF777FFBDE8C8
:10AB9000F081000044000020480000205000002008
:10ABA00008B54FF48050ADF8000002208DF8020087
:10ABB00010208DF803006946B24803F03BFA4FF4C9
:10ABC0008051B04803F08FFA08BD2DE9F0410446EA
:10ABD0000D4616464FF48051AA4803F082FA00BF92
:10ABE0000221A94803F050FC0028F9D00321A6480F
:10ABF00003F053FC00BF0121A34803F045FC0028EB
:10AC0000F9D0A14803F047FCC7B200BF02219E481B
:10AC100003F03AFC0028F9D0C4F307419A4803F046
:10AC20003CFC00BF0121984803F02EFC0028F9D01D
:10AC3000954803F030FCC7B200BF0221924803F0F0
:10AC400023FC0028F9D0C4F307218F4803F025FC2A
:10AC500000BF01218C4803F017FC0028F9D08A4876
:10AC600003F019FCC7B200BF0221874803F00CFCB7
:10AC70000028F9D0E1B2844803F00FFC00BF0121A5
:10AC8000814803F001FC0028F9D07F4803F003FC61
:10AC9000C7B218E000BF02217B4803F0F5FB002893
:10ACA000F9D00021784803F0F8FB00BF0121764875
:10ACB00003F0EAFB0028F9D0734803F0ECFBC7B2BD
:10ACC00005F8017B761E002EE4D100BF80216E487E
:10ACD00003F0DAFB0028F9D14FF48051694803F002
:10ACE00002FABDE8F08110B5002400BF4FF4805196
:10ACF000644803F0F6F90521634803F0CEFB00BF7A
:10AD00008021614803F0C0FB0028F9D15E4803F0C0
:10AD1000C2FBC4B24FF480515A4803F0E4F904F086
:10AD200001000028E2D110BD2DE9F04104460F4694
:10AD30001546A1E0E0B2C0F58076AE4200D92E46BD
:10AD4000AD1B4FF480514F4803F0CBF900BF0221F7
:10AD50004D4803F099FB0028F9D006214A4803F03A
:10AD60009CFB00BF8021484803F08EFB0028F9D1EE
:10AD70004FF48051434803F0B6F90320434908607B
:10AD800000BF424800680028FBD14FF480513D4885
:10AD900003F0A7F900BF02213B4803F075FB002830
:10ADA000F9D00221384803F078FB00BF0221364871
:10ADB00003F06AFB0028F9D0C4F30741324803F0DE
:10ADC0006CFB00BF0221304803F05EFB0028F9D085
:10ADD000C4F307212C4803F060FB00BF02212A487E
:10ADE00003F052FB0028F9D0E1B2274803F055FBED
:10ADF000344400BF00BF0221234803F045FB002874
:10AE0000F9D017F8011B204803F047FB701E061EFF
:10AE1000F0D100BF80211C4803F036FB0028F9D197
:10AE20004FF48051174803F05EF90C201749086071
:10AE300000BF164800680028FBD14FF4805111482C
:10AE400003F04FF900BF02210F4803F01DFB00285B
:10AE5000F9D004210C4803F020FB00BF80210A48F0
:10AE600003F012FB0028F9D14FF48051054803F09C
:10AE70003AF903F043F900BF002D7FF45BAFBDE862
:10AE8000F0810000000C014000380040100000205C
:10AE900070B50446FD4DFE4E0821FE4803F01AF938
:10AEA000012800D170BD8021FB4803F01AF94FF44E
:10AEB0008071F94803F015F9F84803F0ECFA17E04F
:10AEC00000BF8021F54803F0DFFA0028F9D116F819
:10AED000011BF24803F0E1FA00BF0121EF4803F043
:10AEE000D3FA0028F9D0ED4803F0D5FA05F8010BA4
:10AEF000201EA4F101018CB2E2D14FF48071E6482A
:10AF000003F0F1F800BFCDE710B504460220E04998
:10AF10000870002048703020887004EB8400C40062
:10AF2000200EC870200C0871200A48718C7107200F
:10AF3000FFF7AEFF10BD7CB505460C46D84903C9E6
:10AF4000CDE900010220D249087000204870A5F127
:10AF50004100C5B21DF815008870200EC870200C85
:10AF60000871200A48718C710720FFF791FF7CBDA2
:10AF70007FB504460D461646C948083003C8CDE9DA
:10AF80000201C749103103C9CDE900010220C049BF
:10AF9000087000204870A4F14100C4B2C14840F8D4
:10AFA0002450103040F8246005F1290085B206F1E4
:10AFB000290086B202A810F8140088700020C8701A
:10AFC0000871280A48718D710720FFF761FF1DF88D
:10AFD0001400AF4988700020C8700871300A4871A9
:10AFE0008E710720FFF754FF7FBD10B50D20A849D3
:10AFF00008700120FFF74CFF10BD10B50B20A449CD
:10B00000087007204870D02088701520FFF740FF97
:10B010009E48401D01F0B1F8A24920390860084659
:10B020000068012806DA012008609F480068401C7B
:10B030009D4908609548093001F09FF899492039E9
:10B04000486008464068012801DA012048608F48BE
:10B050000D3001F092F893492039886008468068E5
:10B06000012801DA012088608848113001F085F854
:10B070008C492039C8600846C068012801DA0120DF
:10B08000C86010BD2DE9F74F834616460024A04640
:10B090000027BDF80400293080B201900B207C49C4
:10B0A00008704FF6FF7000EA46065CE001A801F068
:10B0B00058F87749A1F80100802E01DB802000E0DC
:10B0C0003046054600BF7948806C0028FBD1A94670
:10B0D00005EBD970421076A1774801F06DF9691D32
:10B0E00088B2FFF7D5FE701B86B2BDF8040000EBF6
:10B0F000650080B20190002416E0052101EB4401B7
:10B10000624A881801F02DF8824604EB4401891D3B
:10B11000694A88183A4669A101F04EF97F1C6948CE
:10B12000076008F10108641C05EBD571B4EB610FF1
:10B13000E3DB0D2104EB4400801D5F4A1154002124
:10B1400004EB4400C01D11545848443002F0D6FDB1
:10B15000594801F008FB554988640121534844309F
:10B1600002F0CCFD00BF002EA0DCBDE8FE8F2DE973
:10B17000F74F834616460024A146A046BDF80400BA
:10B18000293080B201900B20414908704FF6FF70C2
:10B1900000EA460662E001A800F0E3FF3C49A1F89E
:10B1A0000100802E01DB802000E03046054600BF14
:10B1B0003E48806C0028FBD1AA4605EBDA704210AD
:10B1C0003BA13D4801F0F8F8691D88B2FFF760FE29
:10B1D000701B86B2BDF8040000EB650080B20190E0
:10B1E00000241CE0052101EB4401284A881800F0E6
:10B1F000B8FF0746B846B8F1010F01DA4FF0010871
:10B2000004EB4401891D2C4A881842462BA101F009
:10B21000D3F82C48C0F8008009F10109641C05EB43
:10B22000D571B4EB610FDDDB0D2104EB4400801D13
:10B23000214A1154002104EB4400C01D11541B4845
:10B24000443002F05BFD1C4801F08DFA1749886418
:10B2500001211648443002F051FD00BF002E9ADC57
:10B26000BDE8FE8F70B50446002508E004F1080132
:10B2700051F8250000F008FF054948556D1C20795C
:10B28000A842F3DC2079FFF703FE1DE0070500204C
:10B29000F803002000080140001001400038004081
:10B2A00030F3000864010020080100200000024083
:10B2B000402C253033642C00A00D0020253033585D
:10B2C000000000000C01002094F8380052A100F0AA
:10B2D0001EFB002507E052494A5D94F8380051A151
:10B2E00000F015FB6D1C2079A842F4DC94F83800BE
:10B2F0004EA100F00CFB70BD10B504464C48047024
:10B300000120FFF7C5FD10BD08B5002000904FF4E7
:10B310008070ADF8000002208DF8020010208DF83A
:10B3200003006946434802F085FE4FF480714148AE
:10B3300002F0D9FE0821404802F0CCFE002869D175
:10B340004FF480613D4802F0CCFE03203C49086088
:10B3500000BF3B4800680028FBD100BF38480068A8
:10B360000028FBD14FF48061344802F0BCFE03207A
:10B370003349086000BF324800680028FBD1032031
:10B38000FFF7BAFF03202E49086000BF2C48006871
:10B390000028FBD10A20FFF7AFFF032028490860EF
:10B3A00000BF274800680028FBD10820FFF7A4FF52
:10B3B00003202349086000BF214800680028FBD112
:10B3C00040F2ED2200214120FFF7D2FD40F2DB5296
:10B3D00040F2EE214220FFF7CBFD40F2EE22114673
:10B3E0004320FFF7C5FD4FF461724FF448714420CC
:10B3F000FFF7BEFD00214120FFF79DFD0021422007
:10B40000FFF799FD00214320FFF795FD002144201F
:10B41000FFF791FD08BD00004650474120000000A5
:10B420000705002025303278200000000D000000C4
:10B43000F80300200010014000080140000C01400A
:10B44000100000201FB502F015FC684602F044FC15
:10B450000020009001900390694602F021FC012138
:10B46000002002F0F9FB0021084602F02DFC1FBD70
:10B4700000B591B00121954802F065FB0320ADF8BD
:10B48000400000208DF8430010A9914802F0D2FD41
:10B490008E4802F0DBFB00BF8C4802F068FB0128FD
:10B4A000FAD08C4802F034FC88484C3000908A482E
:10B4B0000190002002900120039000200490802041
:10B4C0000590400006908000079020200890000220
:10B4D000099000200A9069467E4802F08CFC012108
:10B4E0007C4802F00BFC00200B9001208DF830000E
:10B4F0008DF831004FF460200D9000200E90012057
:10B500008DF83C000BA9714802F038FB052301229D
:10B5100008216E4802F056FB01216C4802F01DFB29
:10B5200001216A4802F00FFB0121684802F084FB08
:10B5300011B000BD68480088704710B5044674B962
:10B54000C4F30B01002002F0BFFB0920FFF7D4FE7B
:10B550000720FFF7D1FE0C20FFF7CEFE11E05F4879
:10B56000D0F8700540B90820FFF7C6FE0A20FFF7A3
:10B57000C3FE0E20FFF7C0FEC4F30B01002002F053
:10B58000A3FB5648C0F8704510BD10B50020FFF76A
:10B59000D4FF0120FFF7B0FE03205149086000BF2F
:10B5A0004F4800680028FBD110BD10B5044620218B
:10B5B0004C4802F096FD00214B4802F06EFF00BFA0
:10B5C0008021494802F060FF0028F9D1A1104648C7
:10B5D00002F063FF00BF8021434802F055FF0028BE
:10B5E000F9D1A007010E404802F057FF00BF8021AB
:10B5F0003D4802F049FF0028F9D12021394802F0E6
:10B6000072FD10BD70B50446A06801F05DF885B20A
:10B61000207938B935490A8894F8380034A100F007
:10B6200076F91EE0002D02DBB5F5806F05DB94F89E
:10B63000380031A100F06BF913E0C5F30906354677
:10B640003046FFF7B2FF29480680F043274948807B
:10B6500004220020FFF768FB94F8380029A100F0CD
:10B6600056F970BD38B52020ADF8000002208DF8E5
:10B67000020010208DF8030069461A4802F0DAFC37
:10B680002021184802F02FFD042218490020FFF75E
:10B690009CFA16484088C04385B214480088A842E6
:10B6A00007D040F2FF301149088008460088C043A7
:10B6B000488016480478FF2C03D00C490888FFF70F
:10B6C00074FFFFF7BFFEFFF7D3FE38BD0024014033
:10B6D0000008014008000240100100201806002068
:10B6E00010000020000C0140003800401201002032
:10B6F00056522C25640D000056522C452C31300D2D
:10B700000000000056522C300D000000E06F0008D1
:10B710002DE9F04105460E460027012D04D1904841
:10B7200002F066FB044602E00020BDE8F08144E040
:10B730008C480068C0F500708B49085C8B498C4AC6
:10B740001278885487480068401E86490860084679
:10B75000006810B94FF40070086084488449097883
:10B76000405C0D2824D1824B1B785B1CDFF800C2A3
:10B770008CF800300023DFF8F4C1DFF8F48198F88A
:10B7800000800CF8083030466246002104E012F8D0
:10B79000013B00F8013B491C754B1B785B1C99422F
:10B7A000F5DB01270023DFF8C8C18CF8003004E086
:10B7B0006F480078401C6E4908701FB969480068DE
:10B7C000A042B5D13846B0E700B593B00020129042
:10B7D0002C2107A800F0E6FF0020039004900590BC
:10B7E000069001900290634802F0B8FE4FF480602A
:10B7F000ADF8480004208DF84B0012A95E4802F015
:10B8000019FC4FF40070ADF8480003208DF84A0091
:10B8100018208DF84B0012A9574802F00BFC4FF48A
:10B82000E12003900020ADF81000ADF81200ADF853
:10B830001400ADF818000C20ADF816000020ADF88B
:10B840000400ADF806004FF40070ADF808000020C9
:10B85000ADF80A0001A9474802F05FFE03A9454878
:10B8600002F0B2FE3E4802F053FA4248001D079033
:10B870003D480890002009904FF400700A90002085
:10B880000B9080200C9000200D900E9020200F90A7
:10B890004FF4405010900020119007A9304802F05A
:10B8A000AAFA4FF400702F49086001224021314864
:10B8B00002F04CFE01212A4802F020FA28481438F0
:10B8C00002F026FA2B48001D07902C480890102003
:10B8D000099000200A900B9080200C9000200D9081
:10B8E0000E900F904FF4405010900020119007A937
:10B8F0001B48143802F07FFA012280211D4802F013
:10B9000025FE01211B4802F017FE13B000BD0FB445
:10B910001CB5044600BF12485838806C0028FAD184
:10B9200006A801904FF400711448019B059A00F09D
:10B9300029FD00900020019014B91CBC5DF814FB97
:10B9400000210748143802F0D9F905495839009800
:10B95000886401210248143802F0D0F900BFECE7F6
:10B960005800024018010020A00B0020A00F00206A
:10B970001C0100200038014000080140A00D0020FB
:10B9800070B50446F64DF74E8021F74802F0ABFB48
:10B990004FF48071F44802F0A4FBF44802F07BFD00
:10B9A00017E016F8011BF14802F077FD00BF802177
:10B9B000EE4802F069FD0028F9D100BF0121EB48F3
:10B9C00002F062FD0028F9D0E84802F064FD05F8B5
:10B9D000010B201EA4F101018CB2E2D14FF4807161
:10B9E000E14802F080FB70BD10B500BF0520DD49C5
:10B9F00008700220FFF7C4FFD948407800F001002A
:10BA00000028F3D110BD70B50546A86800F05CFEB3
:10BA10000646002403E00020D1490855641C202C70
:10BA2000F9D30320CF490870300C4870300A887071
:10BA3000CE700020087148711420FFF7A1FFFFF7B6
:10BA4000D3FF95F83800CAA1FFF761FF042407E08F
:10BA5000C3490A5D95F83800C8A1FFF758FF641C78
:10BA6000142CF5D395F83800C6A1FFF750FF70BD30
:10BA70002DE9F04180460D4614461E465020B94936
:10BA800008700120FFF77CFF0620B64908700120EE
:10BA9000FFF776FFBC4800682844BC490860AD2029
:10BAA000B0490870B9480068000C4870B748008871
:10BAB000000A8870B5480078C87014F8010B087146
:10BAC00014F8010B48710620FFF75AFFFFF78CFFAF
:10BAD00000270FE0AD20A349087014F8010B48704F
:10BAE00014F8010B8870B81CC7B20320FFF748FF99
:10BAF000FFF77AFFB01EB842ECDC042099490870C9
:10BB00000120FFF73DFFFFF76FFFBDE8F08110B5A3
:10BB10005020944908700120FFF732FF012091491D
:10BB20000870002048700220FFF72AFF50208D493E
:10BB300008700120FFF724FF06208A4908700120C1
:10BB4000FFF71EFFFFF750FF6020864908700120B5
:10BB5000FFF716FFFFF748FF10BD10B50446FFF7CB
:10BB6000D6FF94F838008AA1FFF7D1FE002086495D
:10BB7000086010BD70B50546002402E087490C55E9
:10BB8000641C102CFADBFFF7C2FF95F83800102375
:10BB9000824A0021FFF76CFF70BD2DE9F041054698
:10BBA0000E4614462078412802DB207846280BDD1B
:10BBB0002078612802DB2078662805DD207830288F
:10BBC00018DB2078392815DC2078302805DB207830
:10BBD000392802DC207830380AE02078412805DB5B
:10BBE0002078462802DC2078373801E02078573862
:10BBF000C7B206E06AA13046FFF789FE0020BDE823
:10BC0000F081641C2078412802DB207846280BDD77
:10BC10002078612802DB2078662805DD207830282E
:10BC20001ADB2078392817DC2078302805DB2078CB
:10BC3000392802DC207830380AE02078412805DBFA
:10BC40002078462802DC2078373801E02078573801
:10BC500040EA0710287005E051A13046FFF757FE73
:10BC60000020CCE7641C2046C9E7FEB50446A56861
:10BC70006D1C00E06D1C28782C28FBD094F838103F
:10BC80002A4602A8FFF789FF054605B9FEBD9DF8C3
:10BC9000087000261DE094F838102A466846FFF721
:10BCA0007CFF054605B9F1E79DF800003844C7B2AE
:10BCB0003D4800884FF6FF7101EA00203A490880AC
:10BCC000084600889DF80010084437490880701C19
:10BCD000C6B2022EDFDB94F838102A4601A8FFF71F
:10BCE0005CFF05462DB994F8380030A1FFF70FFE30
:10BCF000CCE79DF804003844C7B2002612E094F85F
:10BD000038102A466846FFF748FF054605B9BDE7E3
:10BD10009DF800003844C7B29DF800001F498855BF
:10BD2000701CC6B29DF808008642E8DB94F8381013
:10BD30002A466846FFF731FF05462DB994F83800CA
:10BD40001AA1FFF7E4FDA1E79DF800003844C7B24F
:10BD50002FB194F8380015A1FFF7D9FD96E72DE033
:10BD600016100020F00F00200010014000380040A5
:10BD700053465F524541442C0000000025303258A4
:10BD8000000000000D00000020010020280100201C
:10BD900053465F45524153452C300D003C10002066
:10BDA000452C39390D0000002401002053465F570F
:10BDB000524954452C452C39380D00009DF804009B
:10BDC00006283BD2DFE800F00312182E193494F84D
:10BDD00038009DF80830694A69490988FFF748FE2C
:10BDE00094F8380067A1FFF792FD27E094F8380037
:10BDF00064A1FFF78CFD21E000BF604800780002DD
:10BE0000634908605D4840780968084460490860F3
:10BE1000084600880004086094F8380059A1FFF72C
:10BE200076FD0BE094F8380056A1FFF770FD05E0B1
:10BE300094F8380053A1FFF76AFD00BF00BF00BFB0
:10BE400024E708B5002000904FF48070ADF80000A2
:10BE500002208DF8020010208DF8030069464D483D
:10BE600002F0E8F84FF480714A4802F03CF90120F2
:10BE7000ADF8000048208DF803006946464802F0FE
:10BE8000D9F84020ADF8000002208DF80200102003
:10BE90008DF8030069463F4802F0CCF840213D4848
:10BEA00002F01FF98020ADF8000002208DF802009A
:10BEB00010208DF803006946364802F0BBF8802157
:10BEC000344802F00EF90220ADF8000048208DF849
:10BED00003006946304802F0ADF80820ADF80000D4
:10BEE00048208DF8030069462B4802F0A3F804208F
:10BEF000ADF8000048208DF803006946264802F09E
:10BF000099F84FF40040ADF8000002208DF80200CF
:10BF100010208DF8030069461E4802F08BF84FF49C
:10BF200000411C4802F0DFF80220ADF800008DF857
:10BF3000020048208DF803006946184802F07AF89C
:10BF40004FF48060ADF8000002208DF80200102050
:10BF50008DF803006946114802F06CF84FF4006058
:10BF6000ADF8000002208DF8020048208DF8030093
:10BF700069460A4802F05EF808BD00003C10002047
:10BF80002401002053465F57524954452C300D0080
:10BF9000200100200010014000080140000C014079
:10BFA00010B5012002F00CFA7D2002F0C5F910B1A5
:10BFB00002F052F901E002F04FF945F2555002F05B
:10BFC000B1F8012002F0A2F840F6FF7002F0A4F8E8
:10BFD00002F094F802F08AF810BDFFF7F5FBFCF7C9
:10BFE00007FCFDF72AFF012000F0EDF8FFF7D8FF6E
:10BFF00000202249C1F8780500212048C0F87C15AE
:10C000003AE002F07BF8002000F0DDF81C48006800
:10C0100078B11C48006860B100201A490860FEF73A
:10C02000ECFFFEF7E2FF16480068022801D1FDF799
:10C0300000F81248D0F87C05E0B11048D0F8780537
:10C04000C0B9012001F022FE04460C48D0F87C055E
:10C050000A49C1F8780544B90846B0F87005C0F33C
:10C060000B01002001F030FE03E00021084601F042
:10C070002BFE00BFFDF787FBC3E70000180600207A
:10C08000080000200400002001460878412802DB57
:10C09000087846280BDD0878612802DB08786628D6
:10C0A00005DD0878302818DB0878392815DC087891
:10C0B000302805DB0878392802DC087830380AE0B7
:10C0C0000878412805DB0878462802DC08783738EC
:10C0D00001E008785738C2B201E000207047491CDF
:10C0E0000878412802DB087846280BDD08786128AB
:10C0F00002DB0878662805DD087830281ADB087826
:10C10000392817DC0878302805DB0878392802DC64
:10C11000087830380AE00878412805DB0878462896
:10C1200002DC0878373801E00878573840EA021016
:10C13000C2B201E00020D1E71046CFE70146080671
:10C14000000C40EA112070470146080601F47F42C6
:10C1500040EA022001F47F0240EA122040EA116026
:10C1600070470CB5014611F8010B8DF801000878F5
:10C170008DF80000BDF900000CBD08B5014611F8AE
:10C18000010B8DF8030011F8010B8DF8020011F876
:10C19000010B8DF8010008788DF80000009808BDAB
:10C1A0006748007808B1012070470020FCE708B517
:10C1B0000020009069460120FCF784FEBDF80000D5
:10C1C00000F0040008BD10B504465E48006844F65F
:10C1D0002061884205D95A48007810B1002058499A
:10C1E00008705748007806281CD2DFE800F0031CCE
:10C1F0003B4C6B81B4B154490120FCF706FD524819
:10C200000068524908604FF48071514801F062FFA4
:10C2100028B94D48006800F5C8404C490860012025
:10C220004749087089E0FFF7C2FFD0B946490120AD
:10C23000FCF7EBFC4548006843490968884209D08F
:10C24000424801680120FCF7FEFC04210120FCF7B4
:10C2500022FD06E03F490120FCF73FFD022038495E
:10C2600008706AE0FFF7A3FF60B937490120FCF7C7
:10C27000CCFC3548006800F5C8403449086003200C
:10C280002F49087059E0FFF792FFD0B92E490120DD
:10C29000FCF7BBFC2D4800682B490968884209D08F
:10C2A0002A4801680120FCF7CEFC04210120FCF79C
:10C2B000F2FC06E028490120FCF70FFD042020498C
:10C2C00008703AE0FFF773FF88B91F490120FCF7B7
:10C2D0009CFC1D48006800F5C8404FF6E851084432
:10C2E0001E49401A1949086005201549087024E0C4
:10C2F000FFF75DFF00BB14490120FCF786FC1348E3
:10C30000006811490968884209D010480168012075
:10C31000FCF799FC04210120FCF7BDFC0CE0094866
:10C320000068B0F57A6F07D9074800680C49C1F872
:10C33000740500200249087000BF00BF10BD000056
:10C340002C0100200C0000203401002030010020CE
:10C35000000801400070FEFF009CFFFFC82C010098
:10C360001806002010B5044600F088FA0068005D49
:10C37000000704D5DF2C02D0A4F1200010BD204618
:10C3800010BD00007CB51D4616460C00009001D083
:10C390002044401E074B7B442A46694601903046A4
:10C3A00000F025FB05461CB10020694600F032FB79
:10C3B00028467CBD850600000FB41CB5084B06AAB4
:10C3C0007B4469460090059800F011FB044600206C
:10C3D000694600F01FFB20461CBC5DF814FB000002
:10C3E0005106000070B5044685690068C10601D594
:10C3F000302600E02026C00707D070BDD4E9012117
:10C4000030469047206A401C20626D1EF6D570BDF4
:10C4100070B5044685690078C00707D170BDD4E9BE
:10C42000012120209047206A401C20626D1EF6D515
:10C4300070BD00002DE9F041064600241068752902
:10C44000314616A510D000F025FA002802DA404245
:10C4500013A507E031688A0701D512A502E0490754
:10C4600004D511A5012401E000F01DFA00210A22E3
:10C4700006F1240709E0B0FBF2FCB0FBF2F302FB8B
:10C480001C00303078541846491C0028F3D123464C
:10C490002A463046BDE8F04100F037BA00000000FF
:10C4A0002D0000002B00000020000000F0B40D461D
:10C4B0000188090502D5214C7C4402E01F4C7C44D4
:10C4C0000E34002100F1240608E002F00F071209E3
:10C4D000E75D42EA03721B097754491C52EA0307DD
:10C4E000F3D102780023120704D5702D06D009B1CC
:10C4F000022311342246F0BC00F007BA01231034A5
:10C50000F8E770B504460D462146106800F0CBF9F7
:10C51000024629462046BDE870400023C6E7D21DEA
:10C5200022F00703D3E90023C0E70368126843F051
:10C53000200303600823C3610023B7E7A02E000097
:10C540002DE9F05F894604464FF0000ADFF874B128
:10C55000FB44C0F820A02046E1688847002874D03A
:10C56000252806D0D4E901219047206A401C20628A
:10C57000F1E700265F462046E16888472028054607
:10C5800007DB312D05D2781910F8200C08B10643CD
:10C59000F1E7B00701D526F00406C4F81CA0002777
:10C5A000C4F818A02A2D09D0284602F097F838B30D
:10C5B00004EB8708303DC8F8185019E059F8041BFF
:10C5C000204604EB87029161E1688847012F054608
:10C5D00018D1E069002820DA26F020061DE0D8F8FE
:10C5E000180000EB800005EB40003038C8F8180058
:10C5F0002046E1688847054602F070F80028EED131
:10C60000012F0AD02E2D08D12046E16888477F1CD3
:10C610000546022F46F02006C4DBA069002803DA95
:10C62000404246F00106A061F00701D026F0100656
:10C630006C2D0BD0682D09D04C2D39D06A2D35D0FA
:10C64000742D35D07A2D33D016E038E0E1682F46CE
:10C6500020468847B842054609D16C2F26D04FF4B2
:10C660008060E168064320468847054604E06C2F59
:10C670001AD04FF4807006430DB3A5F1410019287C
:10C6800002D8203546F400664A46294620462660F0
:10C690004E46FBF7A7FD80B101280BD0F61D26F012
:10C6A000070000F1080956E74020E4E78020D8E7BA
:10C6B0000020D6E706F104094DE7284652E7206A34
:10C6C000BDE8F09F302E000070B5064600F0DEF8A1
:10C6D0000468054630460A22002100F002F82C606A
:10C6E00070BD2DE9F04791460F468046044600266E
:10C6F00014F8015B2DB100F0C1F80068405DC0077F
:10C70000F6D12B2D02D02D2D18D0641E4A46394665
:10C71000204600F061FA27B13968A14201D1C7F87B
:10C7200000804FF0020471050BD54042002803DD64
:10C7300000F0ACF80460A007BDE8F08746F480661E
:10C74000E4E70028F8DA00F0A1F804606FF0004098
:10C75000F2E7401ECAB210F8011F8A4202D0002937
:10C76000F9D10020704710B5431C02E010F8011BFE
:10C7700071B18107FAD14FF0013202C88C1A8C4393
:10C7800014EAC211F9D0C01A0A0603D0C01E10BDA7
:10C79000C01A10BD0A0401D0801E10BD0902FCD0D1
:10C7A000401E10BD4FF0000200B513469446964659
:10C7B000203922BFA0E80C50A0E80C50B1F12001B4
:10C7C000BFF4F7AF090728BFA0E80C5048BF0CC062
:10C7D0005DF804EB890028BF40F8042B08BF7047C0
:10C7E00048BF20F8022B11F0804F18BF00F8012B32
:10C7F000704700004FF0013C50F8042B51F8043B07
:10C800009A4221D1A2EB0C03934313EACC1317D124
:10C8100050F8042B51F8043B9A4215D1A2EB0C03BB
:10C82000934313EACC130BD150F8042B51F8043B7B
:10C830009A4209D1A2EB0C03934313EACC13DBD049
:10C840004FF00000704700BFD01A01BAB1FA81F171
:10C8500001F0180122FA01F0CB40C1F12001DBB256
:10C86000C0B2C01A2CFA01F3D11A914311EAC311D4
:10C87000E6D17047704770477047000010B500F070
:10C88000FFF9001D10BD00BF651E00000048704785
:10C890004C10002009684A0501D540B27047C9050F
:10C8A000FCD500B2704709684A0501D5C0B270478F
:10C8B000C905FCD580B2704770B50C460546012A03
:10C8C00005D02878800600D5EA69002302E001231C
:10C8D00005E05B1C934202D2E05C0028F9D1A86914
:10C8E000E618C01AA861286A184428622846FFF78B
:10C8F00079FD04E0D5E9012114F8010B9047B44219
:10C90000F8D32846FFF784FD70BD2DE9F0470D46AA
:10C9100099469246044600F124080168880604D529
:10C92000E06921F01001216000E00120A84201DD52
:10C93000471B00E00027A1697A1902EB0900081AD9
:10C94000A0612078C00602D42046FFF74BFD0026E8
:10C9500008E0D4E901211AF806009047206A401C3B
:10C96000761C20624E45F4DB2078C0060AD52046AE
:10C97000FFF738FD06E0D4E9012130209047206A16
:10C98000401C2062381EA7F10107F4DC07E0D4E95F
:10C99000012118F805009047206A401C2062281EDB
:10C9A000A5F10105F3DC2046FFF732FD20780006F3
:10C9B00002D50220BDE8F0870120FBE7116802687C
:10C9C000006A530501D508700AE0D30501D5088037
:10C9D00006E0130603D5C217C1E9000200E00860B3
:10C9E0000120704701694A1C02610878704700B550
:10C9F0008FB0CDE901310021059105497944CDE998
:10CA0000031011466846FFF79BFD0FB000BD000004
:10CA1000E5FFFFFF0A6802F8010B0A607047D1E9E1
:10CA200000239A4202D2531C0B6010707047000022
:10CA30002DE9FF5F15468A460446DFF8AC80F844CE
:10CA40000027D8E900103E46CDE9001010E03AF882
:10CA500016106A4602A800F0A5FB411C07D02178F9
:10CA6000890603D5E269391891420DD80744761C2E
:10CA70002078800602D5E069B84205DDAE42E6DBEB
:10CA80003AF816000028E2D1A069C01BA061204638
:10CA9000FFF7A8FCD8E90010CDE90010002017E04E
:10CAA0003AF818106A4602A800F07CFBB0F1FF3F8C
:10CAB00081460BD000250DF1080B05E0D4E90121DA
:10CAC0001BF8050090476D1C4D45F7D308F1010098
:10CAD000B0428046E4DB206A384420622046FFF7FB
:10CAE00097FCBDE8FF9F0000562900002DE9F041AA
:10CAF0008046D21D22F007020025D2E90002F52966
:10CB000015A614D0011E72F1000106DA0023D0EB45
:10CB1000030063EB020211A608E0D8F800108B07AF
:10CB200001D50FA602E0490701D50EA60125114641
:10CB3000002408F1240704E000F0A6F830323A554A
:10CB4000641C50EA0102F7D12B463246214640468A
:10CB5000BDE8F041FFF7D9BE000000002D00000045
:10CB60002B0000002000000030B4002100F124045C
:10CB700008E002F00705D208303542EA4372DB08CC
:10CB80006554491C52EA0305F3D10468002310A23E
:10CB9000250707D5A40600D421B1C46901230DA23D
:10CBA000641EC46130BCFFF7B0BE10B50446214618
:10CBB0001068FFF778FE02462046BDE810400023CB
:10CBC000D2E7D21D22F00701D1E90023CCE7000013
:10CBD00000000000300000002DE9F05F824615469D
:10CBE0008B4600270AF10104B9460078302801D0AD
:10CBF0009DB113E014F8010B0127782803D05828C1
:10CC000001D045B10AE00DB1102D07D1002714F86D
:10CC1000010B102502E0082500E00A250026B04699
:10CC20000EE005FB080005FB06F101271FFA80F85E
:10CC300001EB1046B6F5803F00D3B94614F8010B5E
:10CC4000294600F0A1FA0028EBDABBF1000F05D06D
:10CC50000FB1641E00E05446CBF80040B9F1000F5C
:10CC600006D0FFF713FE02210160C81EBDE8F09F49
:10CC700048EA0640FAE70000004870474C100020E0
:10CC8000004870476C10002030B5B0F10A024FEA3E
:10CC9000900E71F100034EEA817EB0EB0E0061EB65
:10CCA00091014FEA101E4EEA017E10EB0E0041EB9F
:10CCB00011114FEA102E4EEA016E10EB0E0041EBFF
:10CCC00011214FEA104E4EEA014E10EB0E0041EBDF
:10CCD0001141401841F100014FEAD00040EA417093
:10CCE0004FEAD10110EB80054FEA810444EA9074C9
:10CCF00044EB01046D1944EB0404521BA3414FF0B3
:10CD0000000348BF0A3200D530BD401C41F100018C
:10CD100030BD70472DE9FF4F0C461E464FF0FF37E0
:10CD20008BB0D2E90001DDF860800A908A46C1F339
:10CD30000A5505B93D46002108464FF00000BAF1FA
:10CD4000000F00F4400005DA00EB80004FF44001D2
:10CD500001EA50004FEA9059B9F1010F00DDB946E0
:10CD60000A9850EA4A000ED044F61050A5F2FF355A
:10CD700045432F14B8F1000F1ED07542291E1EDD49
:10CD8000C9F100021CE0B8F1010F4FF0000001D022
:10CD9000302103E0F24305E02154401CB042FBDBAC
:10CDA00030460022002121540B99C1F80880C1E9C6
:10CDB00000200FB0BDE8F08FBD1B6D1CDEE74A46BA
:10CDC00000DA694206A800F073FA06AB93E80700A0
:10CDD00003AB83E8070050460A9900F0ECFA8DE8AF
:10CDE0000700A0F500501F3800900398002D0ADDC1
:10CDF00042F21F014A460844002303A903906846F3
:10CE000000F055FD09E0A0F500504A461F38002308
:10CE100003A90390684600F05FFD8DE80700000459
:10CE2000000C03D04FF0FF30410800E01046B8F18D
:10CE3000000F03D00022009215461EE0751E05D497
:10CE4000FFF722FF303262556D1EF9D5B34601223D
:10CE5000084302D000227F1C04E02078302801D152
:10CE600000227F1E002A099784D01DE0112D07DAC9
:10CE7000FFF70AFF303262556D1C50EA0102F5D10E
:10CE8000084302D00098C8B10EE00021681E05E0FA
:10CE9000235C625C63542254401E491C8142F7DBD0
:10CEA000AB46A81B401E0990002004F80B000B980D
:10CEB000099AC0F80880C0E9002B7AE711264FF0E4
:10CEC000000857E72DE9F04F88460446D21D22F0AE
:10CED000070191B0D1E90001CDE90A0101F0EAFBB7
:10CEE00002460B98C00F01D02D2007E02068810773
:10CEF00001D52B2002E0202101EAC000032A09907D
:10CF000001D0072A05DB03464146204600F090F990
:10CF10000BE12078800601D5E06900E00620B8F139
:10CF2000650F814606D0B8F1660F18D0B8F1670FCB
:10CF300070D131E00020B9F1110F009001DB112315
:10CF400001E009F101030AAA01A90CA8FFF7E2FE1A
:10CF5000DDE90C70002609F10105834647E0012058
:10CF60004B4600904FF000470AAA01A90CA8FFF712
:10CF7000D1FEDDE90DB00C995D46002610B909F12E
:10CF800001000D18B9EB050003D4C0F1FF3609F11B
:10CF90000105A5EB09002BE0B9F1010F01DA4FF013
:10CFA00001090020B9F1110F0090484601DD11235D
:10CFB00000E003460AAA01A90CA8FFF7ABFEDDE9D1
:10CFC0000C704D4600268346207800070AD4AB45F6
:10CFD00000DA5D4601A8012D04DD411911F8011C9C
:10CFE000302907D04F4502DA17F1040F04DA012087
:10CFF00082460FE06D1EEEE7002F02DCED1B3E4483
:10D0000003E0781CA84200DD7D1CB81B00F1010A7A
:10D010004FF000472078000703D4AA4501DB4FF00A
:10D02000FF3A0021B7F1004F0DF143088DF843108E
:10D0300024D002202B23002F01DA7F422D230A2146
:10D04000021EA0F1010000DC5FB197FBF1FC97FB31
:10D05000F1F201FB1C7C17460CF1300C08F801CDF5
:10D06000EEE7A8F1010003702188090501D54521EB
:10D0700000E06521A0F1010800F8011C09980FA942
:10D08000A1EB0807FF1D00B10120411901EBEA7077
:10D09000A1693844081A401EA0612078C00602D455
:10D0A0002046FFF79FF9099828B1D4E9012190475C
:10D0B000206A401C20622078C00622D52046FFF757
:10D0C00091F91EE0002E04DBB34502DD01A8805D6E
:10D0D00000E03020D4E901219047206A401C206202
:10D0E000761CAAF101005FEA000A0AD1FFF7C8FD29
:10D0F000C0680168405CD4E901219047206A401C67
:10D100002062281EA5F10105DCDC07E0D4E901213D
:10D1100018F8010B9047206A401C2062381EA7F1C6
:10D120000107F3DC2046FFF773F9032011B041E655
:10D1300010B5436913B1AFF3008001E0FFF7BCFB0A
:10D14000012010BD127800F124010A7000224A70FB
:10D150000122EDE711684FF0FF32E9E710B54369AE
:10D1600013B1AFF3008001E0FFF762FC012010BDB6
:10D17000128800F1240182840022C2840122EDE79A
:10D1800011684FF0FF32E9E73A2800D2303820F03A
:10D190002002412A01D3A2F13700884201D34FF087
:10D1A000FF30704770B516460C460546FFF766FB24
:10D1B000036893F80101012806D0FF2C0FD8185DF1
:10D1C00068B101202C7070BDD3F8070132462146AA
:10D1D00003F2071303442846BDE8704018474FF098
:10D1E000FF3070BD7546FFF747FDAE460500694646
:10D1F000534620F00700854618B020B5FBF75EF8CF
:10D20000BDE820404FF000064FF000074FF0000847
:10D210004FF0000B21F00701AC46ACE8C009ACE8C8
:10D22000C009ACE8C009ACE8C0098D4670470000F1
:10D230002DE9F0411F46044603260168072A01F440
:10D24000006004DB08B116A505E016A503E008B1EF
:10D2500015A500E015A521F010002060A069C01EF2
:10D26000A0610FB1401EA0612046FFF7BBF84FB18F
:10D27000D4E9012138469047206A401C2062C01C36
:10D28000206206E0206AFAE7D4E9012115F8010BD3
:10D290009047761EF8D22046FFF7BAF8BDE8F08135
:10D2A0004E414E006E616E00494E4600696E66004A
:10D2B0002DE9F047814616468AB0354878440DC8B6
:10D2C0008DE80D0032487844801C03AC0DC884E81A
:10D2D0000D0041F69B300844372190FBF1F290FBA2
:10D2E000F1F5A5F1800501FB12041B3C02D5644257
:10D2F000012000E00020DFF898A080460027FA44D3
:10D30000AAF1BE0A0EE0E0070AD03246684607EBF3
:10D31000470101230AEB810100F0DEFA8DE80700E6
:10D3200064107F1C002CEED1194F7F44AE3F19E0F2
:10D33000E80715D007EB04100DF1180A90E80E006D
:10D340008AE80E00C068F04201D198190890324670
:10D35000012306A903A800F0BFFA03AB83E8070086
:10D360006D10641C002DE3D14FF001033246694675
:10D37000B8F1000F03A802D000F099FA01E000F024
:10D38000ABFAC9E90001C9F808200AB0BDE8F08786
:10D390005C21000010B50446AFF300802046BDE8D4
:10D3A0001040FAF782BF000001491820ABBEFEE72B
:10D3B0002600020070475FEA400C08BF91F0000FA2
:10D3C0004FEA8C234FEAC12243EA51514FEA1C50E5
:10D3D00018BF00F5F0404FEA300018BF41F000419F
:10D3E0005FEA6C5C00F02980BCF1FF3F08BF40F0B1
:10D3F00080407047130C06BF12044FF0100C4FF022
:10D40000000C130E04BF12020CF1080C130F04BF22
:10D4100012010CF1040C930F04BF92000CF1020CEA
:10D42000D30F04BF52000CF1010C11464FF0000263
:10D43000A0F11F00A0EB0C00704711F0004F08BFD7
:10D44000704731F000413FF4D5AF0B0C06BF090423
:10D450004FF0100C4FF0000C0B0E04BF09020CF142
:10D46000080C0B0F04BF09010CF1040C8B0F04BF57
:10D4700089000CF1020CCB0F04BF49000CF1010C28
:10D48000CCF12003A0EB0C0022FA03F302FA0CF219
:10D4900041EA030100F10100704720F07F4C80EA6F
:10D4A000030023F07F47ACEB070303F57C5300F048
:10D4B000004003F1FF032DE980494FEA154B09B401
:10D4C0004FEA144325EA0B4E24EA03480FF20426E0
:10D4D00006EB132749083E785FEA320203FB066732
:10D4E000C7F5000707FB06F64FEA54374FEAD64662
:10D4F00006F1020607FB066CCCF1005C4FEA1C4704
:10D500002CEA074C07FB06F40CFB06F504EB15466A
:10D510004FEA961634BF00204FF000404FEAD13753
:10D5200006FB07FC4FEA1C4C0CFB0BF7D21B03FB62
:10D530000CF761EB07010CFB0EF7B0EB074072EB49
:10D5400017420CFB08F734BFA2EB0742B2EB0742CD
:10D5500061EB17414FEA0C444FEA910706FB07FCC9
:10D560004FEA1C4C0CFB0BF7B0EBC74072EB573289
:10D5700003FB0CF734BFA2EBC742B2EBC74261EB2F
:10D5800057310CFB0EF7B0EBC70072EB57720CFB78
:10D5900008F734BFA2EBC702B2EBC70261EB5771C9
:10D5A000039F4FEA816141EA921104EBCC044FEAF8
:10D5B000D1374FEA826206FB07FC42EA90124FEA3B
:10D5C00080604FEA1C4C0CFB0BF7D21B03FB0CF7E3
:10D5D00061EB07010CFB0EF7B0EB074072EB174253
:10D5E0000CFB08F734BFA2EB0742B2EB074261EB3A
:10D5F00017414FEA8C554FEA910704EB9C2406FB38
:10D6000007FC4FEA1C4C0CFB0BF7B0EBC74072EB6E
:10D61000573203FB0CF734BFA2EBC742B2EBC74251
:10D6200061EB57310CFB0EF7B0EBC70072EB577292
:10D630000CFB08F734BFA2EBC702B2EBC70261EBE9
:10D64000577115EB4C254FEA816141EA92114FEA7F
:10D6500082624FEAD13742EA901206FB07FC44F19E
:10D6600000044FEA80604FEA1C4C0CFB0BF7D21B06
:10D6700003FB0CF761EB07010CFB0EF7B0EB074067
:10D6800072EB17420CFB08F734BFA2EB0742B2EB78
:10D69000074261EB174115EB1C154FEA813141EA56
:10D6A00092414FEA823242EA90424FEA80304FEA9A
:10D6B0000C7644F1000448EA03434EEA0B484FF06D
:10D6C000000EB2EB080C71EB030724BF624639462B
:10D6D0004EEB0E0E4FF0000B0018524149414BEB40
:10D6E0000B0BB2EB080C71EB03077BF1000B24BFB3
:10D6F000624639464EEB0E0E4FF0000B00185241B9
:10D7000049414BEB0B0BB2EB080C71EB03077BF1C0
:10D71000000B24BF624639464EEB0E0E51EA02075B
:10D7200018BF46F0010616EB0E7655F1000254F1D3
:10D73000000103D5BDE88901BDE80088BDE8890185
:10D74000BDE80048B619524141EB0101A3F10103C4
:10D75000704780807F7E7D7C7B7A7978777676755E
:10D760007473727171706F6E6E6D6C6C6B6A6A69D6
:10D770006868676666656464636362616160605F70
:10D780005F5E5E5D5D5C5C5B5B5A5A5959585857E9
:10D790005756565555555454535352525251515051
:10D7A00050504F4F4F4E4E4D4D4D4C4C4C4B4B4BA4
:10D7B0004A4A4A49494948484847474747464646EA
:10D7C0004545454444444443434343424242424125
:10D7D0004141002B9C4630D477002BD01CB54FEA3A
:10D7E000370703B44FF010004FF01001BAF1000FEB
:10D7F00006D0BCF1000FDCBF40F0080040F008018B
:10D800004FF000000FBCBDE810400BF1010BBBF165
:10D81000010F08BF5FEA170722BF12F1010211F1E1
:10D8200001014FF0004143F1000300F0004043EAE2
:10D8300000007047F9D35708D0E746EA064613F1CF
:10D84000400F4FEA16461FDD13F1200FDFBF1643CE
:10D850000A46002120335B42BED0C3F1200746EACE
:10D86000064602FA07F74FEA164646EA0706C3F1EC
:10D87000200722FA03F201FA07F721FA03F14FF029
:10D88000000342EA0702A7E746EA020646EA06461E
:10D890004FEA164646EA0106BCBF46EA0646360C83
:10D8A0004FF000034FF000024FF0000194E72DE924
:10D8B000804C9A46934670B491E8380007C831EA24
:10D8C000400C48BF34EA430C03D5FFF7E6FDFFF7F1
:10D8D00080FFF0BCBDE8008C2DE9804C9A46934651
:10D8E00070B491E8380007C810F0804F08BF13F0FB
:10D8F000804F03D100F005F8FFF76BFFF0BCBDE8E7
:10D90000008C20F07F4780EA030023F07F4C07EB78
:10D910000C03A3F57C5300F00040A3F1FE0392F04A
:10D92000000F00F0B38095F0000F00F077802DE934
:10D9300001494FEA11404FEA144621EA004800FB32
:10D9400006FC24EA064708FB06F607FB08F800FB7E
:10D9500007F718EB06484CEB164C4FEA124B18EB46
:10D9600007484FEA15464CEB174022EA0B4E0BFBDB
:10D9700006FC25EA06470EFB06F607FB0EFE0BFB30
:10D9800007F71EEB064E4CEB164C4FF000061EEB55
:10D99000074E4CEB174B18EB0B0840F1000018EB4F
:10D9A0000E0B58EB000840F100008F1A4FF00001F9
:10D9B0003CBFC943661B14BFB5EB040C00213CBF40
:10D9C000C943F61B4FEA17444EEA8E0E27EA044578
:10D9D0004FEA1C4704FB07622CEA074C05FB07F7DC
:10D9E0000CFB05F604FB0CFC16EB074642EB17425A
:10D9F00016EB0C4642EB1C421BEB060658EB0202F0
:10DA0000414146EA9E0601D5BDE80189B619524159
:10DA100041EB0101A3F10103BDE801894FEA14457F
:10DA20004FEA114724EA054621EA074C05FB07F4B3
:10DA300006FB07F70CFB06F105FB0CFC11EB07419D
:10DA400044EB17444FEA124711EB0C4144EB1C44E2
:10DA500022EA074C05FB07F206FB07F70CFB06F66C
:10DA600005FB0CFC16EB074642EB174216EB0C4687
:10DA700042EB1C456A1854F1000148BF7047B619C3
:10DA8000524141EB0101A3F10103704795F0000FF2
:10DA900037D04FEA11424FEA144721EA024624EAFE
:10DAA000074C02FB07F106FB07F70CFB06F402FB31
:10DAB0000CFC14EB074441EB17414FEA154714EBFC
