:020000040800F2
:100000007012002079020008030400080B040008A5
:10001000130400081B04000823040008000000006B
:100020000000000000000000000000003304000891
:100030002B040008000000003B0400080D0F00081E
:10004000430400084B040008530400085B04000844
:10005000630400086B040008730400087B040008B4
:10006000830400088B040008930400089B04000824
:10007000A3040008AB040008B3040008BB04000894
:10008000C3040008CB040008D3040008DB04000804
:10009000E3040008EB040008F304000889050008E5
:1000A000FB040008030500080B0500081305000801
:1000B0001B050008230500082B0500083305000870
:1000C0003B050008430500084B05000853050008E0
:1000D0005B050008D9050008E1050008E9050008EE
:1000E00073050008630500086B050008910500080A
:1000F00099050008A1050008A9050008B105000838
:10010000B9050008C1050008C9050008D1050008A7
:10011000F1050008F90500080106000809060008B5
:100120001106000819060008210600082906000823
:1001300000F002F800F090F80AA090E8000C824469
:100140008344AAF10107DA4501D100F085F8AFF246
:10015000090EBAE80F0013F0010F18BFFB1A43F0A5
:1001600001031847702D0000902D0000103A24BFA5
:1001700078C878C1FAD8520724BF30C830C144BF0C
:1001800004680C607047000000230024002500264E
:10019000103A28BF78C1FBD8520728BF30C148BFEA
:1001A0000B6070476E2900F0E787702901F03181FC
:1001B000662902F01786652902F01486672902F085
:1001C00011866129AFF3008003681B0A28BF41F044
:1001D0008001692900F09487642900F091877529CE
:1001E00000F08E876F2901F0BF80782901F0FD8033
:1001F000E92901F05980E42901F05680F52901F040
:100200005380EF2901F0BC80F82901F0FC800368DD
:10021000DB0928BF41F08001632901F07E84732946
:1002200001F08384E32901F08E84F32901F09384A3
:10023000002070471FB501F0DFFC04000020002102
:1002400002F0BAFD401C60600020002102F09EFD1B
:10025000E0601FBD10B510BD01F0A1FC1146FFF715
:10026000E9FF00F044FE01F079FD03B4FFF7F2FF6F
:1002700003BC01F0BDFD00000348004703480449EA
:10028000024A044B70470000310100087002002050
:10029000701200207002002010B500214FF00060A5
:1002A00002F064FB4FF4407002F056FB17204A49FD
:1002B000087001204870C870084602F013FB10BD9A
:1002C00010B502F0A3FB4FF4803002F031FC00BF08
:1002D000312002F003FC0028FAD0002002F01EFCBE
:1002E000002002F049FC4FF4806002F03BFC4FF428
:1002F000804002F045FB0120384908604FF4E011CE
:10030000000402F049FC012002F040FC00BF39204B
:1003100002F0E4FB0028FAD0022002F047FC00BF04
:1003200002F0F4FB0828FBD10121084602F03EFB55
:100330000121880302F052FB0121C80402F036FBC0
:100340000121480202F04AFB01213D2002F046FB58
:100350000121880302F02AFB0121084602F01AFB62
:100360000121022002F016FB0121402002F012FBC5
:100370000121480702F01AFB42F2283002F03EFC4D
:10038000012002F02FFC01214FF0C05002F00EFBC3
:1003900010BD10B5124802F005FA124802F002FA38
:1003A000114802F0FFF9114802F0FCF910BD08B540
:1003B0000F480078009000214FF4006002F0F6FA38
:1003C00002F0BCFCFFF77CFFFFF766FFFFF7E1FFE1
:1003D00000F02CFA08BD00000000002000200240C0
:1003E00000080140000C01400010014000140140D1
:1003F000E06F000808B5012000900098401C0090B4
:1004000008BD10B5FFF7F6FF10BD10B5FFF7F2FFFE
:1004100010BD10B5FFF7EEFF10BD10B5FFF7EAFFF6
:1004200010BD10B5FFF7E6FF10BD10B5FFF7E2FFF6
:1004300010BD10B5FFF7DEFF10BD10B5FFF7DAFFF6
:1004400010BD10B5FFF7D6FF10BD10B5FFF7D2FFF6
:1004500010BD10B5FFF7CEFF10BD10B5FFF7CAFFF6
:1004600010BD10B5FFF7C6FF10BD10B5FFF7C2FFF6
:1004700010BD10B5FFF7BEFF10BD10B5FFF7BAFFF6
:1004800010BD10B5FFF7B6FF10BD10B5FFF7B2FFF6
:1004900010BD10B5FFF7AEFF10BD10B5FFF7AAFFF6
:1004A00010BD10B5FFF7A6FF10BD10B5FFF7A2FFF6
:1004B00010BD10B5FFF79EFF10BD10B5FFF79AFFF6
:1004C00010BD10B5FFF796FF10BD10B5FFF792FFF6
:1004D00010BD10B5FFF78EFF10BD10B5FFF78AFFF6
:1004E00010BD10B5FFF786FF10BD10B5FFF782FFF6
:1004F00010BD10B5FFF77EFF10BD10B5FFF77AFFF6
:1005000010BD10B5FFF776FF10BD10B5FFF772FFF5
:1005100010BD10B5FFF76EFF10BD10B5FFF76AFFF5
:1005200010BD10B5FFF766FF10BD10B5FFF762FFF5
:1005300010BD10B5FFF75EFF10BD10B5FFF75AFFF5
:1005400010BD10B5FFF756FF10BD10B5FFF752FFF5
:1005500010BD10B5FFF74EFF10BD10B5FFF74AFFF5
:1005600010BD10B5FFF746FF10BD10B5FFF742FFF5
:1005700010BD10B54FF4804002F09CF818B14FF454
:10058000804002F091F810BD10B5FFF733FF10BDA9
:1005900010B5FFF72FFF10BD10B5FFF72BFF10BDF3
:1005A00010B5FFF727FF10BD10B5FFF723FF10BDF3
:1005B00010B5FFF71FFF10BD10B5FFF71BFF10BDF3
:1005C00010B5FFF717FF10BD10B5FFF713FF10BDF3
:1005D00010B5FFF70FFF10BD10B5FFF70BFF10BDF3
:1005E00010B5FFF707FF10BD10B5FFF703FF10BDF3
:1005F00010B5FFF7FFFE10BD10B5FFF7FBFE10BDF5
:1006000010B5FFF7F7FE10BD10B5FFF7F3FE10BDF4
:1006100010B5FFF7EFFE10BD10B5FFF7EBFE10BDF4
:1006200010B5FFF7E7FE10BD10B5FFF7E3FE10BDF4
:100630002DE9F04107460C460025E34802F014F886
:10064000064644E0E1480068C0F58070E049095C76
:10065000E048E14A12788154DC480068401EDB49DA
:1006600008600846006810B94FF480700860D948E7
:10067000D9490978405C0D2824D1D74B1B785B1CE5
:10068000DFF854C38CF800300023DFF848C3DFF8EC
:10069000488398F800800CF8083020466146002214
:1006A00004E011F8013B00F8013B521CCA4B1B78D7
:1006B0005B1C9A42F5DB01250023DFF81CC38CF894
:1006C000003004E0C4480078401CC34908701DB9DC
:1006D000BE480068B042B5D12846BDE8F08100B5FB
:1006E00093B0002012902C2107A800F07DFC002080
:1006F000039004900590069001900290B74908601D
:10070000B7490860B74802F09FFA4FF48060ADF82F
:10071000480004208DF84B0012A9B34802F092F86B
:100720004FF40070ADF8480003208DF84A001820FF
:100730008DF84B0012A9AC4802F084F84FF4E12088
:1007400003900020ADF81000ADF81200ADF81400D1
:10075000ADF818000C20ADF816000020ADF804002C
:10076000ADF806004FF40070ADF808000020ADF8B9
:100770000A0001A99B4802F045FA03A9994802F032
:1007800099FA9A4801F000FF9648001D079090489A
:100790000890002009904FF480700A9000200B9080
:1007A00080200C9000200D900E9020200F904FF490
:1007B000405010900020119007A98C4801F057FF7D
:1007C0004FF480708149086001224021854802F081
:1007D00032FA0121854801F0CDFE8448143801F039
:1007E000D3FE8048001D0790814808901020099092
:1007F00000200A900B9080200C9000200D900E900D
:100800000F904FF4405010900020119007A97748A6
:10081000143801F02CFF01228021724802F00BFAFB
:100820000121704802F0FDF913B000BD00B593B08E
:10083000002012902C2107A800F0D6FB0020039086
:100840000490059006900190029064490860644904
:100850000860684802F0F8F94FF40060ADF848000D
:1008600004208DF84B0012A9634801F0EBFF4FF410
:100870008060ADF8480003208DF84A0018208DF8FC
:100880004B0012A95C4801F0DDFF4FF4E12003901A
:100890000020ADF81000ADF81200ADF81400ADF86E
:1008A00018000C20ADF816000020ADF80400ADF8DB
:1008B00006004FF40070ADF808000020ADF80A0003
:1008C00001A94C4802F09EF903A94A4802F0F2F946
:1008D0003D4801F059FE4748001D07903C480890EC
:1008E000002009904FF480700A9000200B90802027
:1008F0000C9000200D900E9020200F904FF440504F
:1009000010900020119007A92F4801F0B0FE4FF47D
:1009100080702E49086001224021364802F08BF990
:100920000121294801F026FE2748283001F02CFE3D
:100930003048001D07902E48089010200990002094
:100940000A900B9080200C9000200D900E900F903C
:100950004FF4405010900020119007A91A482830F9
:1009600001F085FE01228021224802F064F9012174
:10097000204802F056F913B000BD0FB41CB5044670
:1009800000BF1A485838C06D0028FAD106A8019057
:100990004FF480711648019B059A00F00BFB009004
:1009A0000020019000210848283001F0E3FD0649AD
:1009B0002C310098086001210348283001F0DAFD4D
:1009C0001CBC5DF814FB0000300402400400002051
:1009D0003C000020BC010020100000200800002086
:1009E0000C0000200038014000080140580002407F
:1009F0003C010020004C00400010014010B50446AE
:100A0000FCA12046FFF7B9FF10BD10B50446FAA1BE
:100A10002046FFF7B2FF10BD2DE9F041074688469A
:100A20000425F6480068401C08B1F44E00E0F44E7E
:100A3000344622E0204601F051FE0546012D05D145
:100A4000F0A13846FFF799FFBDE8F081022D04D1EF
:100A5000EDA13846FFF791FFF6E7032D04D1EBA196
:100A60003846FFF78AFFEFE7052D04D1E8A13846A5
:100A7000FFF783FFE8E704F50064E6488442D9D332
:100A80003846FFF7BBFF00BFDEE72DE9F0478146A0
:100A90000C4617469846002532E037F81510DE4A16
:100AA0001268101901F04EFE0646012E05D1D5A19F
:100AB0004846FFF762FFBDE8F087022E0ED1042002
:100AC00001F006FED4480068005B37F81510884234
:100AD00004D0CDA14846FFF750FFECE7032E04D128
:100AE000CAA14846FFF749FFE5E7052E04D1C8A192
:100AF0004846FFF742FFDEE7A01C84B2681CC5B27F
:100B00004545CADB4846FFF779FF00BFD3E72DE92B
:100B1000F04105460E4614462078412802DB207835
:100B200046280BDD2078612802DB2078662805DD69
:100B30002078302818DB2078392815DC20783028F8
:100B400005DB2078392802DC207830380AE020786C
:100B5000412805DB2078462802DC2078373801E080
:100B600020785738C7B205E03046FFF74EFF002027
:100B7000BDE8F081641C2078412802DB20784628FB
:100B80000BDD2078612802DB2078662805DD2078DF
:100B900030281ADB2078392817DC2078302805DB4C
:100BA0002078392802DC207830380AE02078412883
:100BB00005DB2078462802DC2078373801E02078F1
:100BC000573840EA0710287004E03046FFF71DFF51
:100BD0000020CDE7641C2046CAE72DE9F04387B02A
:100BE00080460D46002700E06D1C28782C28FBD09D
:100BF0002A46414606A8FFF78AFF054615B907B001
:100C0000BDE8F0839DF81860002415E02A464146AF
:100C100004A8FFF77CFF054605B9F0E79DF8100032
:100C20003044C6B24FF6FF7000EA07279DF8100067
:100C3000384487B2601CC4B2022CE7DB2A46414626
:100C400005A8FFF764FF054605B9D8E79DF814002D
:100C50003044C6B2002411E02A46414604A8FFF7FA
:100C600056FF054605B9CAE79DF810003044C6B2E4
:100C70009DF810000DF80400601CC4B29DF8180027
:100C80008442E9DB2A46414604A8FFF740FF0546B7
:100C900005B9B4E79DF810003044C6B21EB1404615
:100CA000FFF7B3FEABE79DF81400062854D2DFE847
:100CB00000F0032C374B384F5748006838445049F0
:100CC000884217D1002405E01DF804005349085557
:100CD000601CC4B2042CF7DB9DF8189009EBD970A6
:100CE0004010801EC3B2381D81B201AA4046FFF7F2
:100CF000CCFE09E09DF8189009EBD97043106A46C4
:100D000039464046FFF7C1FE26E04FF000604249F9
:100D100008600223414A01134046FFF7B6FE1BE07C
:100D200000BF9DF8000000023B4908609DF80100EB
:100D300009680844384908600846008800040860CB
:100D40004046FFF75BFE07E04046FFF757FE03E033
:100D50004046FFF753FE00BF00BF00BF4FE770B52E
:100D600005460C4614F8011B502920D006DC3A2910
:100D700062D0432930D0452963D11CE0522902D0EA
:100D800056295ED102E000F091F85EE014F8011BF4
:100D9000452908D114F8011B522904D120A1284665
:100DA000FFF7EBFD51E02846FFF72FFE4DE0284608
:100DB000FFF724FE49E014F8011B522908D114F86A
:100DC000011B412904D121462846FFF725FE3CE0BE
:100DD0002846FFF71AFE38E014F8011B4F2927D1E7
:100DE00014F8011B4E2923D10FA12846FFF7C5FD9A
:100DF0002BE00000300D0000450D000000780008D9
:100E00000080000845310D0045320D0045330D00CE
:100E100045350D00000008081400002018000020CF
:100E20004C30310D000000004C465F43550D000072
:100E30002846FFF7EAFD08E021462846FFF7CDFEE9
:100E400003E02846FFF7E1FD00BF00BF70BD0000D2
:100E500094B02F482F4948602F48486008E0694601
:100E60000020FFF7E5FB18B169460220FFF777FF86
:100E7000F5E7FFF79CFA012001F0A2FEFFF7E8FF7B
:100E8000002226480068B0F1AA3F01D10020704737
:100E900022490C3905E00868401C08B10868024482
:100EA000091D1F488142F6D31046F0E710B51B48D4
:100EB0000C3800681B49884218D11B4800681B4940
:100EC0000840B0F1005F11D1FFF7DAFF70B91648A2
:100ED00040681749086008460068164908601249CA
:100EE000086800F04BF813480068804710BD0021E7
:100EF0004FF4006001F05AFD01F020FF012118209D
:100F000001F06CFDFFF7D2FFFFF7B3FF7047000061
:100F10002301674500200240AB89EFCD0C78000823
:100F20000000070878563412008000080000FE2FE9
:100F3000380000203400002030BF704720BF7047C9
:100F400040BF7047BFF36F8F7047BFF34F8F70473D
:100F5000BFF35F8F704701DF7047EFF31480704776
:100F600080F31488BFF36F8F7047EFF309807047E9
:100F700080F309887047EFF30880704780F3088892
:100F8000704762B6704772B67047EFF310807047D3
:100F900071B6704761B67047EFF31380704780F306
:100FA00011887047EFF31280704740BA704700BA5B
:100FB000704700007CB51D4616460C00009001D01D
:100FC0002044401E074B7B442A4669460190304628
:100FD00000F0EBF805461CB10020694600F0F8F877
:100FE00028467CBD110200004FF0000200B51346F8
:100FF00094469646203922BFA0E80C50A0E80C5039
:10100000B1F12001BFF4F7AF090728BFA0E80C50E9
:1010100048BF0CC05DF804EB890028BF40F8042BE2
:1010200008BF704748BF20F8022B11F0804F18BF4F
:1010300000F8012B704770477047704770B5044641
:1010400085690068C10601D5302600E02026C0076A
:1010500007D070BDD4E9012130469047206A401C7A
:1010600020626D1EF6D570BD70B5044685690078A6
:10107000C00707D170BDD4E9012120209047206A24
:10108000401C20626D1EF6D570BD09684A0501D569
:1010900040B27047C905FCD500B2704709684A05DF
:1010A00001D5C0B27047C905FCD580B2704770B594
:1010B0000C460546012A05D02878800600D5EA6945
:1010C000002302E0012305E05B1C934202D2E05CB6
:1010D0000028F9D1A869E618C01AA861286A18443E
:1010E00028622846FFF7AAFF04E0D5E9012114F899
:1010F000010B9047B442F8D32846FFF7B5FF70BD07
:101100002DE9F0410646002410687529314616A5E0
:1011100010D0FFF7BAFF002802DA404213A507E01B
:1011200031688A0701D512A502E0490704D511A547
:10113000012401E0FFF7B2FF00210A2206F1240793
:1011400009E0B0FBF2FCB0FBF2F302FB1C00303014
:1011500078541846491C0028F3D123462A463046C5
:10116000BDE8F04100F069BA000000002D00000069
:101170002B0000002000000011680268006A53057F
:1011800001D508700AE0D30501D5088006E01306F2
:1011900003D5C217C1E9000200E0086001207047D2
:1011A00001694A1C02610878704700B58FB0CDE92B
:1011B00001310021059105497944CDE9031011461B
:1011C000684600F031F90FB000BD0000E5FFFFFFF9
:1011D0000A6802F8010B0A607047D1E900239A42BD
:1011E00002D2531C0B601070704700002DE9FF5FA6
:1011F00015468A460446DFF8AC80F8440027D8E953
:1012000000103E46CDE9001010E03AF816106A468C
:1012100002A800F0A4FC411C07D02178890603D560
:10122000E269391891420DD80744761C207880066F
:1012300002D5E069B84205DDAE42E6DB3AF81600B9
:101240000028E2D1A069C01BA0612046FFF7F6FE8E
:10125000D8E90010CDE90010002017E03AF8181086
:101260006A4602A800F07BFCB0F1FF3F81460BD03C
:1012700000250DF1080B05E0D4E901211BF805005C
:1012800090476D1C4D45F7D308F10100B0428046F0
:10129000E4DB206A384420622046FFF7E5FEBDE823
:1012A000FF9F0000FE1B00002DE9F0418046D21D8B
:1012B00022F007020025D2E90002F52915A614D074
:1012C000011E72F1000106DA0023D0EB030063EB8C
:1012D000020211A608E0D8F800108B0701D50FA66E
:1012E00002E0490701D50EA601251146002408F1A8
:1012F000240704E000F05CF930323A55641C50EAEF
:101300000102F7D12B46324621464046BDE8F04166
:1013100000F093B9000000002D0000002B00000039
:101320002000000030B4002100F1240408E002F0A5
:101330000705D208303542EA4372DB086554491C80
:1013400052EA0305F3D10468002310A2250708D54B
:1013500004F020040C4304D0C46901230CA2641ED1
:10136000C46130BC00F069B910B50446214610686C
:10137000FFF794FE02462046BDE810400023D1E767
:10138000D21D22F00701D1E90023CBE700000000C5
:1013900030000000F0B40D460188090502D5214C4B
:1013A0007C4402E01F4C7C440E34002100F12406F2
:1013B00008E002F00F071209E75D42EA03721B0919
:1013C0007754491C52EA0307F3D10278002312072D
:1013D00004D5702D06D009B1022311342246F0BC89
:1013E00000F02BB901231034F8E770B504460D4620
:1013F00021461068FFF752FE024629462046BDE806
:1014000070400023C6E7D21D22F00703D3E9002372
:10141000C0E70368126843F0200303600823C36138
:101420000023B7E7601A00002DE9F05F8946044603
:101430004FF0000ADFF874B1FB44C0F820A020464A
:10144000E1688847002874D0252806D0D4E9012116
:101450009047206A401C2062F1E700265F46204644
:10146000E16888472028054607DB312D05D2781929
:1014700010F8200C08B10643F1E7B00701D526F0BB
:101480000406C4F81CA00027C4F818A02A2D09D00F
:10149000284601F073FC38B304EB8708303DC8F8E8
:1014A000185019E059F8041B204604EB870291619B
:1014B000E1688847012F054618D1E069002820DA45
:1014C00026F020061DE0D8F8180000EB800005EBA0
:1014D00040003038C8F818002046E16888470546C3
:1014E00001F04CFC0028EED1012F0AD02E2D08D19E
:1014F0002046E16888477F1C0546022F46F02006FB
:10150000C4DBA069002803DA404246F00106A0616E
:10151000F00701D026F010066C2D0BD0682D09D0F5
:101520004C2D39D06A2D35D0742D35D07A2D33D04D
:1015300016E038E0E1682F4620468847B842054665
:1015400009D16C2F26D04FF48060E1680643204615
:101550008847054604E06C2F1AD04FF4807006438C
:101560000DB3A5F14100192802D8203546F40066D4
:101570004A462946204626604E46FEF713FE80B1B5
:1015800001280BD0F61D26F0070000F1080956E7E8
:101590004020E4E78020D8E70020D6E706F10409E0
:1015A0004DE7284652E7206ABDE8F09FF019000099
:1015B00030B5B0F10A024FEA900E71F100034EEA25
:1015C000817EB0EB0E0061EB91014FEA101E4EEAF6
:1015D000017E10EB0E0041EB11114FEA102E4EEA86
:1015E000016E10EB0E0041EB11214FEA104E4EEA56
:1015F000014E10EB0E0041EB1141401841F100018A
:101600004FEAD00040EA41704FEAD10110EB80056B
:101610004FEA810444EA907444EB01046D1944EBF1
:101620000404521BA3414FF0000348BF0A3200D507
:1016300030BD401C41F1000130BD2DE9F0470D46A1
:1016400099469246044600F124080168880604D5AC
:10165000E06921F01001216000E00120A84201DDD5
:10166000471B00E00027A1697A1902EB0900081A5C
:10167000A0612078C00602D42046FFF7DFFC0026D8
:1016800008E0D4E901211AF806009047206A401CBE
:10169000761C20624E45F4DB2078C0060AD5204631
:1016A000FFF7CCFC06E0D4E9012130209047206A06
:1016B000401C2062381EA7F10107F4DC07E0D4E9E2
:1016C000012118F805009047206A401C2062281E5E
:1016D000A5F10105F3DC2046FFF7C6FC20780006E3
:1016E00002D50220BDE8F0870120FBE770472DE915
:1016F000FF4F0C461E464FF0FF378BB0D2E900017A
:10170000DDF860800A908A46C1F30A5505B93D4666
:10171000002108464FF00000BAF1000F00F440002D
:1017200005DA00EB80004FF4400101EA50004FEA77
:101730009059B9F1010F00DDB9460A9850EA4A0004
:101740000ED044F61050A5F2FF3545432F14B8F1E2
:10175000000F1ED07542291E1EDDC9F100021CE0DB
:10176000B8F1010F4FF0000001D0302103E0F24347
:1017700005E02154401CB042FBDB30460022002132
:1017800021540B99C1F80880C1E900200FB0BDE8D1
:10179000F08FBD1B6D1CDEE74A4600DA694206A8E1
:1017A00000F06EFA06AB93E8070003AB83E807008E
:1017B00050460A9900F023FB8DE80700A0F5005081
:1017C0001F3800900398002D09DD42F21F014A46A0
:1017D000084403A90390684600F082FD08E0A0F5E4
:1017E00000504A461F3803A90390684600F08CFD5C
:1017F0008DE807000004000C03D04FF0FF304108D3
:1018000000E01046B8F1000F03D000220092154608
:101810001EE0751E05D4FFF7CBFE303262556D1EFB
:10182000F9D5B3460122084302D000227F1C04E010
:101830002078302801D100227F1E002A099786D007
:101840001DE0112D07DAFFF7B3FE303262556D1C33
:1018500050EA0102F5D1084302D00098C8B10EE069
:101860000021681E05E0235C625C63542254401E24
:10187000491C8142F7DBAB46A81B401E09900020A3
:1018800004F80B000B98099AC0F80880C0E9002BF7
:101890007CE711264FF0000859E72DE9F04F884604
:1018A0000446D21D22F0070191B0D1E90001CDE933
:1018B0000A0101F04FFA02460B98C00F01D02D200B
:1018C00007E02068810701D52B2002E0202101EAF2
:1018D000C000032A099001D0072A05DB03464146D0
:1018E000204600F08DF90BE12078800601D5E069F3
:1018F00000E00620B8F1650F814606D0B8F1660F0A
:1019000018D0B8F1670F70D131E00020B9F1110F94
:10191000009001DB112301E009F101030AAA01A9EA
:101920000CA8FFF7E4FEDDE90C70002609F10105C3
:10193000834647E001204B4600904FF000470AAA3B
:1019400001A90CA8FFF7D3FEDDE90DB00C995D46A7
:10195000002610B909F101000D18B9EB050003D4F8
:10196000C0F1FF3609F10105A5EB09002BE0B9F143
:10197000010F01DA4FF001090020B9F1110F0090B9
:10198000484601DD112300E003460AAA01A90CA87C
:10199000FFF7ADFEDDE90C704D460026834620784A
:1019A00000070AD4AB4500DA5D4601A8012D04DD2D
:1019B000411911F8011C302907D04F4502DA17F1FF
:1019C000040F04DA012082460FE06D1EEEE7002FBF
:1019D00002DCED1B3E4403E0781CA84200DD7D1CC8
:1019E000B81B00F1010A4FF000472078000703D42C
:1019F000AA4501DB4FF0FF3A0021B7F1004F0DF18E
:101A000043088DF8431024D002202B23002F01DA45
:101A10007F422D230A21021EA0F1010000DC5FB1EC
:101A200097FBF1FC97FBF1F201FB1C7C17460CF1D4
:101A3000300C08F801CDEEE7A8F101000370218811
:101A4000090501D5452100E06521A0F1010800F854
:101A5000011C09980FA9A1EB0807FF1D00B1012087
:101A6000411901EBEA70A1693844081A401EA061CF
:101A70002078C00602D42046FFF7E0FA099828B182
:101A8000D4E901219047206A401C20622078C006DA
:101A900022D52046FFF7D2FA1EE0002E04DBB34524
:101AA00002DD01A8805D00E03020D4E901219047EB
:101AB000206A401C2062761CAAF101005FEA000A3D
:101AC0000AD100F099F8C0680168405CD4E90121AE
:101AD0009047206A401C2062281EA5F10105DCDC2D
:101AE00007E0D4E9012118F8010B9047206A401C57
:101AF0002062381EA7F10107F3DC2046FFF7B4FA95
:101B0000032011B043E610B5436913B1AFF3008071
:101B100001E0FFF7CCFA012010BD127800F124019A
:101B20000A7000224A700122EDE711684FF0FF327F
:101B3000E9E710B5436913B1AFF3008001E0FFF7A7
:101B400055FB012010BD128800F12401828400227F
:101B5000C2840122EDE711684FF0FF32E9E770B56A
:101B600016460C46054600F03FF8036893F801015D
:101B7000012806D0FF2C0FD8185D68B101202C7009
:101B800070BDD3F807013246214603F20713034420
:101B90002846BDE8704018474FF0FF3070BD7546CD
:101BA00000F0E2F8AE4605006946534620F0070013
:101BB000854618B020B5FEF761FBBDE820404FF028
:101BC00000064FF000074FF000084FF0000B21F027
:101BD0000701AC46ACE8C009ACE8C009ACE8C009F4
:101BE000ACE8C0098D46704710B500F005F8001D3F
:101BF00010BD00BFC5110000004870472C02002036
:101C00002DE9F0411F46044603260168072A01F426
:101C1000006004DB08B116A505E016A503E008B1D5
:101C200015A500E015A521F010002060A069C01ED8
:101C3000A0610FB1401EA0612046FFF7FFF94FB130
:101C4000D4E9012138469047206A401C2062C01C1C
:101C5000206206E0206AFAE7D4E9012115F8010BB9
:101C60009047761EF8D22046FFF7FEF9BDE8F081D6
:101C70004E414E006E616E00494E4600696E660030
:101C80002DE9F047814616468AB0334878440DC89E
:101C90008DE80D0030487844801C03AC0DC884E802
:101CA0000D0041F69B300844372190FBF1F290FB88
:101CB000F1F5A5F1800501FB12041B3C02D564423D
:101CC000012000E00020DFF890A080460027FA44C1
:101CD000AAF1BE0A0DE0E00709D03246684607EBDC
:101CE00047010AEB810100F00FFB8DE8070064104B
:101CF0007F1C002CEFD1184F7F44AC3F18E0E80761
:101D000014D007EB04100DF1180A90E80E008AE8D1
:101D10000E00C068F04201D198190890324606A919
:101D200003A800F0F1FA03AB83E807006D10641C10
:101D3000002DE4D132466946B8F1000F03A802D065
:101D400000F0CEFA01E000F0DFFAC9E90001C9F8BD
:101D500008200AB0BDE8F0872C1200000446AFF35B
:101D600000802046FEF781FA004870470C020020F0
:101D70004FF0013C50F8042B51F8043B9A4221D11A
:101D8000A2EB0C03934313EACC1317D150F8042BA6
:101D900051F8043B9A4215D1A2EB0C03934313EA8A
:101DA000CC130BD150F8042B51F8043B9A4209D1C3
:101DB000A2EB0C03934313EACC13DBD04FF00000EB
:101DC000704700BFD01A01BAB1FA81F101F01801D1
:101DD00022FA01F0CB40C1F12001DBB2C0B2C01A3F
:101DE0002CFA01F3D11A914311EAC311E6D17047DD
:101DF00001491820ABBEFEE72600020070475FEAEB
:101E0000400C08BF91F0000F4FEA8C234FEAC1222B
:101E100043EA51514FEA1C5018BF00F5F0404FEA19
:101E2000300018BF41F000415FEA6C5C00F029808F
:101E3000BCF1FF3F08BF40F080407047130C06BF65
:101E400012044FF0100C4FF0000C130E04BF1202DE
:101E50000CF1080C130F04BF12010CF1040C930FCA
:101E600004BF92000CF1020CD30F04BF52000CF11E
:101E7000010C11464FF00002A0F11F00A0EB0C0076
:101E8000704711F0004F08BF704731F000413FF438
:101E9000D5AF0B0C06BF09044FF0100C4FF0000C2F
:101EA0000B0E04BF09020CF1080C0B0F04BF090153
:101EB0000CF1040C8B0F04BF89000CF1020CCB0F4A
:101EC00004BF49000CF1010CCCF12003A0EB0C0085
:101ED00022FA03F302FA0CF241EA030100F10100D5
:101EE000704720F07F4C80EA030023F07F47ACEB83
:101EF000070303F57C5300F0004003F1FF032DE9D5
:101F000080494FEA154B09B44FEA144325EA0B4EBA
:101F100024EA03480FF2042606EB132749083E780B
:101F20005FEA320203FB0667C7F5000707FB06F608
:101F30004FEA54374FEAD64606F1020607FB066C15
:101F4000CCF1005C4FEA1C472CEA074C07FB06F477
:101F50000CFB06F504EB15464FEA961634BF00203D
:101F60004FF000404FEAD13706FB07FC4FEA1C4C0C
:101F70000CFB0BF7D21B03FB0CF761EB07010CFB0F
:101F80000EF7B0EB074072EB17420CFB08F734BFBB
:101F9000A2EB0742B2EB074261EB17414FEA0C4458
:101FA0004FEA910706FB07FC4FEA1C4C0CFB0BF7B2
:101FB000B0EBC74072EB573203FB0CF734BFA2EB18
:101FC000C742B2EBC74261EB57310CFB0EF7B0EBE7
:101FD000C70072EB57720CFB08F734BFA2EBC702C5
:101FE000B2EBC70261EB5771039F4FEA816141EA8F
:101FF000921104EBCC044FEAD1374FEA826206FB20
:1020000007FC42EA90124FEA80604FEA1C4C0CFB3E
:102010000BF7D21B03FB0CF761EB07010CFB0EF770
:10202000B0EB074072EB17420CFB08F734BFA2EB92
:102030000742B2EB074261EB17414FEA8C554FEA7A
:10204000910704EB9C2406FB07FC4FEA1C4C0CFB9D
:102050000BF7B0EBC74072EB573203FB0CF734BF02
:10206000A2EBC742B2EBC74261EB57310CFB0EF754
:10207000B0EBC70072EB57720CFB08F734BFA2EB52
:10208000C702B2EBC70261EB577115EB4C254FEA63
:10209000816141EA92114FEA82624FEAD13742EA06
:1020A000901206FB07FC44F100044FEA80604FEAFF
:1020B0001C4C0CFB0BF7D21B03FB0CF761EB07016D
:1020C0000CFB0EF7B0EB074072EB17420CFB08F766
:1020D00034BFA2EB0742B2EB074261EB174115EBAD
:1020E0001C154FEA813141EA92414FEA823242EABD
:1020F00090424FEA80304FEA0C7644F1000448EAFF
:1021000003434EEA0B484FF0000EB2EB080C71EBA4
:10211000030724BF624639464EEB0E0E4FF0000B0C
:102120000018524149414BEB0B0BB2EB080C71EB21
:1021300003077BF1000B24BF624639464EEB0E0EBF
:102140004FF0000B0018524149414BEB0B0BB2EB27
:10215000080C71EB03077BF1000B24BF6246394684
:102160004EEB0E0E51EA020718BF46F0010616EBC1
:102170000E7655F1000254F1000103D5BDE8890146
:10218000BDE80088BDE88901BDE80048B6195241A4
:1021900041EB0101A3F10103704780807F7E7D7CCC
:1021A0007B7A7978777676757473727171706F6EE9
:1021B0006E6D6C6C6B6A6A69686867666665646494
:1021C000636362616160605F5F5E5E5D5D5C5C5B1E
:1021D0005B5A5A595958585757565655555554548D
:1021E000535352525251515050504F4F4F4E4E4DEB
:1021F0004D4D4C4C4C4B4B4B4A4A4A494949484837
:102200004847474747464646454545444444444376
:1022100043434342424242414141002B26D477008E
:1022200021D01CB54FEA370703B44FF010004FF030
:1022300010014FF000000FBCBDE810400BF1010B86
:10224000BBF1010F08BF5FEA170722BF12F10102BD
:1022500011F101014FF0004143F1000300F0004093
:1022600043EA00007047F9D35708DAE746EA064622
:1022700013F1400F4FEA16461FDD13F1200FDFBFA9
:1022800016430A46002120335B42C8D0C3F1200721
:1022900046EA064602FA07F74FEA164646EA0706F6
:1022A000C3F1200722FA03F201FA07F721FA03F13A
:1022B0004FF0000342EA0702B1E746EA020646EAA7
:1022C00006464FEA164646EA0106BCBF46EA0646FF
:1022D000360C4FF000034FF000024FF000019EE774
:1022E0002DE9C048934630B491E8380007C831EA78
:1022F000400C48BF34EA430C03D5FFF7F2FDFFF76B
:102300008CFFF0BCBDE800882DE9C048934630B48E
:1023100091E8380007C810F0804F08BF13F0804FD5
:1023200003D100F005F8FFF778FFF0BCBDE80088A6
:1023300020F07F4780EA030023F07F4C07EB0C037B
:10234000A3F57C5300F00040A3F1FE0392F0000FD0
:1023500000F0B38095F0000F00F077802DE901497F
:102360004FEA11404FEA144621EA004800FB06FC00
:1023700024EA064708FB06F607FB08F800FB07F708
:1023800018EB06484CEB164C4FEA124B18EB07487B
:102390004FEA15464CEB174022EA0B4E0BFB06FCAE
:1023A00025EA06470EFB06F607FB0EFE0BFB07F7BA
:1023B0001EEB064E4CEB164C4FF000061EEB074E84
:1023C0004CEB174B18EB0B0840F1000018EB0E0B11
:1023D00058EB000840F100008F1A4FF000013CBF9D
:1023E000C943661B14BFB5EB040C00213CBFC943B5
:1023F000F61B4FEA17444EEA8E0E27EA04454FEAD1
:102400001C4704FB07622CEA074C05FB07F70CFB93
:1024100005F604FB0CFC16EB074642EB174216EBE5
:102420000C4642EB1C421BEB060658EB02024141F4
:1024300046EA9E0601D5BDE80189B619524141EB35
:102440000101A3F10103BDE801894FEA14454FEAF8
:10245000114724EA054621EA074C05FB07F406FB71
:1024600007F70CFB06F105FB0CFC11EB074144EBF5
:1024700017444FEA124711EB0C4144EB1C4422EA8B
:10248000074C05FB07F206FB07F70CFB06F605FBFE
:102490000CFC16EB074642EB174216EB0C4642EBE0
:1024A0001C456A1854F1000148BF7047B6195241E3
:1024B00041EB0101A3F10103704795F0000F37D004
:1024C0004FEA11424FEA144721EA024624EA074C38
:1024D00002FB07F106FB07F70CFB06F402FB0CFC02
:1024E00014EB074441EB17414FEA154714EB0C443A
:1024F00041EB1C4125EA074C02FB07F506FB07F7F9
:102500000CFB06F602FB0CFC16EB074645EB1745E9
:1025100016EB0C4645EB1C42121951F1000148BF65
:102520007047B619524141EB0101A3F10103704715
:102530004FEA14454FEA114724EA054621EA074CC1
:1025400005FB07F106FB07F70CFB06F24FF0000650
:1025500005FB0CFC12EB074241EB174112EB0C425E
:1025600051EB1C4148BF7047921841EB0101A3F1A8
:10257000010370470029016802D041F0010101E028
:1025800021F00101016070470268002122F0010280
:102590000260016041608160C160304B2F49C21A06
:1025A0008039984245D018DC2D4BA0EB03029842AD
:1025B00037D00ADC2B4A80182BD014282DD028289D
:1025C00026D1486840F4706036E0142A2DD0282ABD
:1025D0001ED1486840F470002EE0B2F56C7F32D016
:1025E0000ADCB2F5627F29D0B2F5677F10D1D1F84D
:1025F000040440F0F00009E0B2F5717F28D0B2F594
:10260000767F05D1D1F8040440F47020C1F80404A9
:102610007047486840F00F000EE0486840F0F00056
:102620000AE0486840F4704006E0486840F47020D2
:1026300002E0486840F0706048607047D1F80404D8
:1026400040F00F00E2E7D1F8040440F47060DDE7E9
:10265000D1F8040440F47040D8E700008000024044
:1026600044000240F8FFFDBF406880B2704770B57B
:10267000026847F6F0739A430E6A8B680C6933431D
:10268000D1E905562C432343CC6933432343D1E995
:1026900009542B43234313430360CA6842600A680A
:1026A00082604968C16070BD0149086070470000E0
:1026B00014040140054B01461A6800205B690A407A
:1026C0000B4202D0002A00D00120704700040140D4
:1026D0000149C860704700000020024070B50546FF
:1026E00040F6FF76304600F049F8042813D10A4C32
:1026F000206940F0020020616561206940F04000DF
:102700002061304600F03AF8012804D0216941F6F2
:10271000FD721140216170BD002002400849042073
:10272000CA68D20701D001207047CA68520701D594
:1027300002207047C968C906FBD503207047000016
:102740000020024070B506460D460F2000F016F836
:1027500004280FD1084C206940F001002061358029
:102760000F2000F00BF8012804D0216941F6FE7219
:102770001140216170BD00000020024000B50346F9
:10278000FFF7CCFF05E0FF20401EFDD1FFF7C6FF9D
:102790005B1E012802D1002BF5D101E0002B00D1F6
:1027A000052000BD254A10B5811A1315D414904296
:1027B0002ED00DDC224940181CD0984221D0A042D6
:1027C0003BD10121102000F015F9002110200DE06F
:1027D000994224D0A14229D0B1F5406F2DD10121D9
:1027E0000C02204600F006F900212046BDE810400A
:1027F00000F000B90121042000F0FCF800210420C1
:10280000F4E70121082000F0F5F800210820EDE7A9
:102810000121202000F0EEF800212020E6E7012130
:10282000402000F0E7F800214020DFE70121802070
:1028300000F0E0F800218020D8E710BD001401402E
:1028400000F8FEBFF0B5CB780022DC0603F00F03E2
:1028500001D58C7823430C880F2714F0FF0F4FF01D
:10286000010C1CD0D0F800500E880CFA02F426405F
:10287000A64210D1960007FA06FE25EA0E0E03FACC
:1028800006F5CE7845EA0E05282E00D14461CE78B3
:10289000482E00D10461521C082AE5D305600A883D
:1028A000FF2A1ED94568002202F108060CFA06F438
:1028B0000E882640A64210D1960007FA06FE25EAA9
:1028C0000E0E03FA06F5CE7845EA0E05282E00D145
:1028D0004461CE78482E00D10461521C082AE3D30B
:1028E0004560F0BDF0B50F23C27801784FF0E024C9
:1028F000012742B3D4F80C2D467802F4E062C2F509
:10290000E062120AC2F10405D3408278AE401A4058
:10291000324315018A07D20E954021F003010B19AD
:10292000D3F80064FF2191408E430D402E43C3F83D
:1029300000640078410900F01F0004EB810187402A
:10294000C1F80071F0BD01F01F008740480904EB99
:102950008000C0F88071F0BD024908430249086058
:10296000704700000000FA050CED00E0024A11403B
:10297000014302480160704780FFFF1F08ED00E03F
:10298000034A516821F440410143516070470000FF
:1029900000100240044A0029516901D0014300E0BF
:1029A000814351617047000000100240044A002931
:1029B000D16901D0014300E08143D161704700003B
:1029C00000100240044A0029116901D0014300E0CF
:1029D000814311617047000000100240044A002941
:1029E000916901D0014300E081439161704700008B
:1029F00000100240044A0029D16801D0014300E0E0
:102A00008143D16070470000001002400B4801680C
:102A100041F0010101604168094A114041600168CB
:102A2000084A11400160016821F480210160426878
:102A3000002122F4FE0242608160704700100240D3
:102A40000000FFF8FFFFF6FE30B5204A5168204B2A
:102A500011F00C0103D0042901D0082901D0036032
:102A600011E05168022401F4701104EB91415468A3
:102A7000184D14F4803F02D05468A40301D5694373
:102A800000E0594301605168134B01F0F00109095E
:102A90005C5C0168E1404160546804F4E064240A2D
:102AA0001C5D21FA04F48460546804F46054E40A60
:102AB0001B5DD940C1605268074B02F44042920B43
:102AC0001B1F9A5CB1FBF2F1016130BD00100240A6
:102AD00000127A0000093D00EC2D0008034600209A
:102AE0005909094A012901D1116804E0022901D1DB
:102AF000116A00E0516A03F01F02012393400B4268
:102B000000D00120704700000010024002484068D9
:102B100000F00C007047000000100240034A5168AA
:102B200021F0F001014351607047000000100240A5
:102B30000B490A6822F480320A600A68B0F5803FC7
:102B400022F480220A6007D0B0F5802F03D10868F4
:102B500040F4A02008607047086840F48030F9E72E
:102B600000100240034A516821F4E06101435160C2
:102B70007047000000100240034A516821F4605180
:102B800041EAC000506070470010024001490866E9
:102B90007047000000004242034B5A68084322F489
:102BA0007C1210435860704700100240034A51687D
:102BB00021F0030101435160704700000010024002
:102BC0004FF0E021012803D1086940F0010004E042
:102BD000801C04D1086920F00100086170470020C2
:102BE000886170474FF0E0210028086902D040F06A
:102BF000020001E020F00200086170474FF0E02180
:102C00004861704730B5028A4FF2FF031A400B88C3
:102C10004D888C88C9882B430C432343134303827C
:102C200030BD0029818902D041F4005101E021F436
:102C3000005181817047002A828A01D00A4300E056
:102C40008A43828270470000184A10B5811A131512
:102C500090421BD007DC1649401814D0984223D16B
:102C600001218C0417E0994213D0B1F56C4F1BD1B0
:102C700001218C032046FFF7BDFE2046BDE8104031
:102C80000021FFF7B7BE01214C0404E00121CC0470
:102C900001E001210C052046FFF794FE2046BDE827
:102CA00010400021FFF78EBE10BD0000004C004018
:102CB00000BCFFBF30B50446008A85B00D464CF617
:102CC000FF710840E98801432182A0894EF6F31183
:102CD0000840A9882A8911436A8902431143A181C6
:102CE000A08A4FF6FF410840A9890143A1826846A6
:102CF000FFF7AAFE1048844201D1039800E0029831
:102D000019214843296864228900B0FBF1F0B0FB27
:102D1000F2F109010B096FF018056B43322500EB46
:102D2000830005EB0010B0FBF2F000F00F00084349
:102D3000208105B030BD00000038014010B50121F0
:102D4000CC022046FFF73EFE2046BDE810400021A1
:102D5000FFF738BE490050EAC12018BF04204A0DD1
:102D600018BF40F0010040F2FF72B2EB515F08BFA4
:102D700040F00200012808BF0520704730380A28BB
:102D800001D20120704700207047000010B50029D3
:102D90000AD00878002807D005487844FEF7E8FFF5
:102DA000002801D0002010BD0248784410BD00006A
:102DB0005A0100005201000010B500290AD008781D
:102DC000002807D005487844FEF7D2FF002801D03C
:102DD000002010BD0248784410BD00004A010000E8
:102DE00042010000FEF759BD020406080000000081
:102DF00001020304010203040607080900000000A1
:102E00000000000030313233343536373839414232
:102E1000434445464030580030313233343536373C
:102E200038396162636465664030780004000008E8
:102E3000000000000000000200010000100000007F
:102E400002400000000000A000000000054000005B
:102E5000000000C8000000000C4000000000409C82
:102E600000000000194000000020BCBE000000006F
:102E700034400000BFC91B8E00000004B5400000B4
:102E8000504BCFD06607E2CF010000006C4100003C
:102E90003E8251AADFEEA73401000000D9420000B3
:102EA000DCB5A0E23A301F97FFFFFFFFB4450000FA
:102EB000FD25A0C8E9A3C14FFFFFFFFFFF3F0000B2
:102EC0000000008000000000FF3F000000000080C4
:102ED0000000000020300008000000203C0000003E
:102EE0006C0100085C3000083C0000203412000037
:102EF000880100081C00000043000000F8FFFFFFED
:102F00000C0000000E0000000F0000002E0000006A
:102F10001001000043000000F8FFFFFF00404040A8
:102F2000404040404040414141414140404040409C
:102F30004040404040404040404040404005020248
:102F40000202020202020202020202020220202007
:102F50002020202020202002020202020202909063
:102F60009090909010101010101010101010101061
:102F700010101010101010100202020202028888B5
:102F800088888888080808080808080808080808C1
:102F900008080808080808080202020240000000A9
:102FA0000000000000000000000000000000000021
:102FB0000000000000000000000000000000000011
:102FC0000000000000000000000000000000000001
:102FD00000000000000000000000000000000000F1
:102FE00000000000000000000000000000000000E1
:102FF00000000000000000000000000000000000D1
:1030000000000000000000000000000000000000C0
:1030100000000000000000000000000000000000B0
:1030200000000000000000000000000000000000A0
:103030000000000000000008000000000000000088
:103040000000000000000000000000000000000080
:0C30500000000000000000000000000074
:020000040800F2
:046FE000410100006B
:0400000508000131BD
:00000001FF
